:020000040800F2
:10000000000001206D5200083D4F0008434F0008DA
:10001000494F00084F4F0008554F000800000000EE
:1000200000000000000000000000000011A900080E
:100030005B4F000800000000F1AA000839AB00087F
:10004000B5520008B5520008B5520008694F0008C3
:10005000B5520008B5520008B5520008B552000864
:10006000B5520008B5520008B5520008B552000854
:10007000B5520008B5520008B5520008B552000844
:10008000B5520008B5520008B5520008B552000834
:10009000B5520008B5520008B5520008B552000824
:1000A000B5520008B5520008B5520008B552000814
:1000B000B5520008B5520008B5520008B552000804
:1000C000B5520008B5520008B5520008B5520008F4
:1000D000B55200087D4F0008B5520008B55200081F
:1000E000B5520008914F0008B5520008B5520008FB
:1000F000B5520008B5520008B5520008B5520008C4
:10010000B5520008B5520008B5520008B5520008B3
:10011000B5520008B5520008A54F0008B5520008B6
:10012000B5520008B5520008B5520008B552000893
:1001300000000000000000000000000000000000BF
:1001400000000000000000000000000000000000AF
:10015000000000000000000000000000000000009F
:10016000000000000000000000000000000000008F
:10017000000000000000000000000000000000007F
:10018000000000000000000000000000000000006F
:10019000000000000000000000000000000000005F
:1001A000000000000000000000000000000000004F
:1001B000000000000000000000000000000000003F
:1001C000000000000000000000000000000000002F
:1001D000000000000000000000000000000000001F
:0401E0005FF8E0F1F3
:1001F00010B5054C237833B9044B13B10448AFF361
:1002000000800123237010BDF401002000000000D5
:10021000B0F8000808B5034B1BB103490348AFF31E
:10022000008008BD00000000F8010020B0F80008C0
:10023000034613F8012B002AFBD1181A0138704726
:1002400081F0004102E000BF83F0004330B54FEA87
:1002500041044FEA430594EA050F08BF90EA020FF4
:100260001FBF54EA000C55EA020C7FEA645C7FEA87
:10027000655C00F0E2804FEA5454D4EB5555B8BFAA
:100280006D420CDD2C4480EA020281EA030382EA1B
:10029000000083EA010180EA020281EA0303362DAD
:1002A00088BF30BD11F0004F4FEA01314FF4801C80
:1002B0004CEA113102D0404261EB410113F0004F92
:1002C0004FEA03334CEA133302D0524263EB430349
:1002D00094EA050F00F0A780A4F10104D5F1200EE7
:1002E0000DDB02FA0EFC22FA05F2801841F1000142
:1002F00003FA0EF2801843FA05F359410EE0A5F116
:1003000020050EF1200E012A03FA0EFC28BF4CF046
:10031000020C43FA05F3C01851EBE37101F00045FC
:1003200007D54FF0000EDCF1000C7EEB00006EEB09
:100330000101B1F5801F1BD3B1F5001F0CD3490893
:100340005FEA30004FEA3C0C04F101044FEA4452EA
:1003500012F5800F80F09A80BCF1004F08BF5FEA71
:10036000500C50F1000041EB045141EA050130BD51
:100370005FEA4C0C404141EB0101013C28BFB1F563
:10038000801FE9D291F0000F04BF01460020B1FAAE
:1003900081F308BF2033A3F10B03B3F120020CDA81
:1003A0000C3208DD02F1140CC2F10C0201FA0CF05F
:1003B00021FA02F10CE002F11402D8BFC2F1200CC4
:1003C00001FA02F120FA0CFCDCBF41EA0C0190407A
:1003D000E41AA2BF01EB0451294330BD6FEA0404C3
:1003E0001F3C1CDA0C340EDC04F11404C4F12002AE
:1003F00020FA04F001FA02F340EA030021FA04F3C0
:1004000045EA030130BDC4F10C04C4F1200220FA16
:1004100002F001FA04F340EA0300294630BD21FA54
:1004200004F0294630BD94F0000F83F4801306BF1A
:1004300081F480110134013D4EE77FEA645C18BF0E
:100440007FEA655C29D094EA050F08BF90EA020FA5
:1004500005D054EA000C04BF1946104630BD91EA9D
:10046000030F1EBF0021002030BD5FEA545C05D1A0
:100470004000494128BF41F0004130BD14F58004DF
:100480003CBF01F5801130BD01F0004545F0FE4153
:1004900041F470014FF0000030BD7FEA645C1ABF88
:1004A000194610467FEA655C1CBF0B46024650EABF
:1004B000013406BF52EA033591EA030F41F40021EB
:1004C00030BD00BF90F0000F04BF0021704730B571
:1004D0004FF4806404F132044FF000054FF0000146
:1004E00050E700BF90F0000F04BF0021704730B507
:1004F0004FF4806404F1320410F0004548BF4042DC
:100500004FF000013EE700BF42004FEAE2014FEA30
:1005100031014FEA02701FBF12F07F4393F07F4F0B
:1005200081F06051704732F07F4208BF704793F00E
:100530007F4F04BF41F40021704730B54FF4607421
:1005400001F0004521F000411CE700BF50EA010224
:1005500008BF704730B54FF000050AE050EA0102CD
:1005600008BF704730B511F0004502D5404261EB3D
:1005700041014FF4806404F132045FEA915C3FF47E
:10058000D8AE4FF003025FEADC0C18BF03325FEA1B
:10059000DC0C18BF033202EBDC02C2F1200300FACC
:1005A00003FC20FA02F001FA03FE40EA0E0021FAF1
:1005B00002F11444BDE600BF70B54FF0FF0C4CF4DF
:1005C000E06C1CEA11541DBF1CEA135594EA0C0F91
:1005D00095EA0C0F00F0DEF82C4481EA030621EACC
:1005E0004C5123EA4C5350EA013518BF52EA033507
:1005F00041F4801143F4801338D0A0FB02CE4FF0B9
:100600000005E1FB02E506F00042E0FB03E54FF0E8
:100610000006E1FB03569CF0000F18BF4EF0010EE0
:10062000A4F1FF04B6F5007F64F5407404D25FEADC
:100630004E0E6D4146EB060642EAC62141EA55518F
:100640004FEAC52040EA5E504FEACE2EB4F1FD0CD1
:1006500088BFBCF5E06F1ED8BEF1004F08BF5FEA4F
:10066000500E50F1000041EB045170BD06F0004601
:1006700046EA010140EA020081EA0301B4EB5C04AE
:10068000C2BFD4EB0C0541EA045170BD41F48011A6
:100690004FF0000E013C00F3AB8014F1360FDEBFCB
:1006A000002001F0004170BDC4F10004203C35DAA7
:1006B0000C341BDC04F11404C4F1200500FA05F32A
:1006C00020FA04F001FA05F240EA020001F00042CB
:1006D00021F0004110EBD37021FA04F642EB060141
:1006E0005EEA430E08BF20EAD37070BDC4F10C046B
:1006F000C4F1200500FA04F320FA05F001FA04F22F
:1007000040EA020001F0004110EBD37041F100011A
:100710005EEA430E08BF20EAD37070BDC4F1200525
:1007200000FA05F24EEA020E20FA04F301FA05F28D
:1007300043EA020321FA04F001F0004121FA04F235
:1007400020EA020000EBD3705EEA430E08BF20EA05
:10075000D37070BD94F0000F0FD101F0004640003F
:1007600041EB010111F4801F08BF013CF7D041EAC1
:10077000060195F0000F18BF704703F000465200C5
:1007800043EB030313F4801F08BF013DF7D043EA96
:100790000603704794EA0C0F0CEA135518BF95EA4C
:1007A0000C0F0CD050EA410618BF52EA4306D1D1D3
:1007B00081EA030101F000414FF0000070BD50EAF2
:1007C000410606BF1046194652EA430619D094EA7C
:1007D0000C0F02D150EA013613D195EA0C0F05D166
:1007E00052EA03361CBF104619460AD181EA0301BA
:1007F00001F0004141F0FE4141F470014FF0000072
:1008000070BD41F0FE4141F4780170BD70B54FF00C
:10081000FF0C4CF4E06C1CEA11541DBF1CEA13558C
:1008200094EA0C0F95EA0C0F00F0A7F8A4EB05046E
:1008300081EA030E52EA03354FEA013100F0888065
:100840004FEA03334FF0805545EA131343EA12632E
:100850004FEA022245EA111545EA10654FEA0026E3
:100860000EF000419D4208BF964244F1FD0404F59C
:10087000407402D25B084FEA3202B61A65EB0305F8
:100880005B084FEA32024FF480104FF4002CB6EBB5
:10089000020E75EB030E22BFB61A754640EA0C0035
:1008A0005B084FEA3202B6EB020E75EB030E22BF75
:1008B000B61A754640EA5C005B084FEA3202B6EBB6
:1008C000020E75EB030E22BFB61A754640EA9C0075
:1008D0005B084FEA3202B6EB020E75EB030E22BF45
:1008E000B61A754640EADC0055EA060E18D04FEA03
:1008F000051545EA16754FEA06164FEAC30343EAA3
:1009000052734FEAC2025FEA1C1CC0D111F4801F6F
:100910000BD141EA00014FF000004FF0004CB6E768
:1009200011F4801F04BF01430020B4F1FD0C88BF07
:10093000BCF5E06F3FF6AFAEB5EB030C04BFB6EB12
:10094000020C5FEA500C50F1000041EB045170BD05
:100950000EF0004E4EEA113114EB5C04C2BFD4EB32
:100960000C0541EA045170BD41F480114FF0000EB6
:10097000013C90E645EA060E8DE60CEA135594EA32
:100980000C0F08BF95EA0C0F3FF43BAF94EA0C0F35
:100990000AD150EA01347FF434AF95EA0C0F7FF4AA
:1009A00025AF104619462CE795EA0C0F06D152EAFE
:1009B00003353FF4FDAE1046194622E750EA4106E2
:1009C00018BF52EA43067FF4C5AE50EA41047FF4F3
:1009D0000DAF52EA43057FF4EBAE12E74FF0FF3C58
:1009E00006E000BF4FF0010C02E000BF4FF0010C29
:1009F0004DF804CD4FEA410C7FEA6C5C4FEA430CA2
:100A000018BF7FEA6C5C1BD001B050EA410C0CBFF0
:100A100052EA430C91EA030F02BF90EA020F002052
:100A2000704710F1000F91EA030F58BF994208BFB9
:100A300090422CBFD8176FEAE37040F00100704776
:100A40004FEA410C7FEA6C5C02D150EA013C07D1CD
:100A50004FEA430C7FEA6C5CD6D152EA033CD3D018
:100A60005DF8040B704700BF8446104662468C4612
:100A70001946634600E000BF01B5FFF7B7FF002845
:100A800048BF10F1000F01BD4DF808EDFFF7F4FF6E
:100A90000CBF012000205DF808FB00BF4DF808EDF9
:100AA000FFF7EAFF34BF012000205DF808FB00BF1C
:100AB0004DF808EDFFF7E0FF94BF012000205DF83E
:100AC00008FB00BF4DF808EDFFF7CEFF94BF0120F3
:100AD00000205DF808FB00BF4DF808EDFFF7C4FFEC
:100AE00034BF012000205DF808FB00BF4FEA410C35
:100AF0007FEA6C5C02D150EA013C0AD14FEA430C18
:100B00007FEA6C5C02D152EA033C02D14FF0000054
:100B100070474FF0010070474FEA410212F5001292
:100B200015D211D56FF47873B3EB625212D94FEA34
:100B3000C12343F0004343EA505311F0004F23FA1E
:100B400002F018BF404270474FF00000704750EA73
:100B5000013005D111F0004008BF6FF00040704730
:100B60004FF00000704700BF4A0011D212F500128A
:100B700011D20DD56FF47873B3EB62520ED44FEAF5
:100B8000C12343F0004343EA505323FA02F0704775
:100B90004FF00000704750EA013002D14FF0FF30B3
:100BA00070474FF0000070474FEA4102B2F1E04356
:100BB00024BFB3F5001CDCF1FE5C0DD901F0004C44
:100BC0004FEAC0024CEA5070B2F1004F40EB830094
:100BD00008BF20F00100704711F0804F21D113F1C0
:100BE0003872BCBF01F00040704741F480114FEAF9
:100BF0005252C2F11802C2F1200C10FA0CF320FA82
:100C000002F018BF40F001004FEAC1234FEAD3239E
:100C100003FA0CFC40EA0C0023FA02F34FEA430308
:100C2000CCE77FEA625307D150EA01331EBF4FF091
:100C3000FE4040F44000704701F0004040F0FE40AC
:100C400040F40000704700BF38B505460C4600224E
:100C5000002328462146FFF721FF28B928462146D0
:100C6000BDE8384000F00AB8284604F1004100F021
:100C700005F8404261EB410138BD00BFD0B500220C
:100C80000B4B06460F46FFF797FCFFF76DFF044638
:100C9000FFF718FC0022074BFFF78EFC02460B46BD
:100CA00030463946FFF7D0FAFFF75EFF2146D0BD48
:100CB0000000F03D0000F04180B483B000AF034677
:100CC000FB80FB889BB2FB80044BFA8892B21A80AF
:100CD00000BF0C37BD4680BC704700BFFE07006CEC
:100CE00080B483B000AF0346FB80FB889BB2FB80DF
:100CF000044BFA8892B25A8000BF0C37BD4680BCC4
:100D0000704700BFFE07006C80B483B000AF054B96
:100D10005B889BB2FB80FB889BB218460C37BD46B4
:100D200080BC7047FE07006C80B483B000AF034600
:100D30000A46FB801346BB80054AFB881380044AA1
:100D4000BB88538000BF0C37BD4680BC704700BFD6
:100D5000FE07006C80B400AF034B044A12891A806E
:100D600000BFBD4680BC7047FE07006C100200202B
:100D700080B582B000AF03460A46FB801346BB80B5
:100D8000654B9B8841F66312934267D1624B9B7916
:100D9000002B1ED1604B1A88FB88D31A9BB2013BF3
:100DA000FB805D4B5B891846FFF786FF0020FFF74D
:100DB00097FF0020FFF794FFFB881B0A9BB21846A1
:100DC000FFF78EFFFB88DBB29BB21846FFF788FF68
:100DD00021E0514B5B891846FFF76EFFFB881B0A29
:100DE0009BB21846FFF77CFFFB88DBB29BB218462C
:100DF000FFF776FF484B1B88013B1B129BB218463E
:100E0000FFF76EFF444B1B88013B9BB2DBB29BB2EA
:100E10001846FFF765FF404B9B891846FFF74CFFCC
:100E2000BB881B0A9BB21846FFF75AFFBB88DBB290
:100E30009BB21846FFF754FF374B5B88013B1B12F0
:100E40009BB21846FFF74CFF334B5B88013B9BB2CC
:100E5000DBB29BB21846FFF743FF58E02E4B9B884E
:100E600045F21052934230D12B4B5B891846FFF765
:100E700023FFFB881B0A9BB21846FFF731FF264B66
:100E80005B8901339BB21846FFF716FFFB88DBB284
:100E90009BB21846FFF724FF1F4B9B891846FFF7AC
:100EA0000BFFBB881B0A9BB21846FFF719FF1A4BB2
:100EB0009B8901339BB21846FFF7FEFEBB88DBB26D
:100EC0009BB21846FFF70CFF21E0134B5B891846D5
:100ED000FFF7F2FEFB881B0A9BB21846FFF700FFE4
:100EE000FB88DBB29BB21846FFF7FAFE0A4B9B89E0
:100EF0001846FFF7E1FEBB881B0A9BB21846FFF7B6
:100F0000EFFEBB88DBB29BB21846FFF7E9FE00BFDD
:100F10000837BD4680BD00BF1002002080B584B0F8
:100F200000AF0346FB710023FB810023BB819A4B7A
:100F30009B79012B05D1984B9B8841F66312934214
:100F400009D1954B9B79002B34D1934B9B8841F66B
:100F5000631293422ED1FB79072B2CD801A252F8B1
:100F600023F000BF850F00088B0F0008910F0008C9
:100F7000970F00089D0F0008A30F0008A90F000895
:100F8000AF0F00080623FB7115E00723FB7112E089
:100F90000423FB710FE00523FB710CE00123FB71BF
:100FA00009E00023FB7106E00323FB7103E0022349
:100FB000FB7100E000BFFB79072B36D801A252F885
:100FC00023F000BF2B100008E50F0008EF0F00080A
:100FD000F90F0008031000080D1000081710000892
:100FE00021100008FB8943F08003FB811DE0FB8991
:100FF00043F04003FB8118E0FB8943F0C003FB8111
:1010000013E0FB8943F02003FB810EE0FB8943F0F2
:101010006003FB8109E0FB8943F0A003FB8104E04E
:10102000FB8943F0E003FB8100BF5B4B9B8845F2EB
:101030001052934203D14FF45853BB8101E0362341
:10104000BB81554B9B8849F24132934205D0524BAC
:101050009B8847F28972934203D1FB8943F00803CE
:10106000FB81FA89BB8911461846FFF75DFE4A4BA2
:101070009B8841F66312934225D0FB8903F020033D
:10108000002B10D0444B1A88434B5B889A421AD2EB
:10109000414B1B887B81404B5A883F4B1A803E4A0C
:1010A0007B8953800FE03C4B1A883B4B5B889A420C
:1010B00009D9394B1B887B81374B5A88364B1A80AC
:1010C000354A7B895380344B9B8845F210529342BA
:1010D00064D1314B5B891846FFF7EEFD0020FFF726
:1010E000FFFD2D4B5B8901339BB21846FFF7E4FDF2
:1010F0000020FFF7F5FD284B5B8902339BB21846B1
:10110000FFF7DAFD244B1B88013B1B129BB21846EC
:10111000FFF7E6FD204B5B8903339BB21846FFF7D0
:10112000CBFD1D4B1B88013B9BB2DBB29BB218462B
:10113000FFF7D6FD184B9B891846FFF7BDFD002031
:10114000FFF7CEFD144B9B8901339BB21846FFF786
:10115000B3FD0020FFF7C4FD0F4B9B8902339BB208
:101160001846FFF7A9FD0C4B5B88013B1B129BB295
:101170001846FFF7B5FD084B9B8903339BB2184611
:10118000FFF79AFD044B5B88013B9BB2DBB29BB23D
:101190001846FFF7A5FD39E0100200201D4B5B89C2
:1011A0001846FFF789FD0020FFF79AFD0020FFF7A2
:1011B00097FD184B1B88013B1B129BB21846FFF78B
:1011C0008FFD144B1B88013B9BB2DBB29BB21846D0
:1011D000FFF786FD0F4B9B891846FFF76DFD00203A
:1011E000FFF77EFD0020FFF77BFD0A4B5B88013B8C
:1011F0001B129BB21846FFF773FD064B5B88013B41
:101200009BB2DBB29BB21846FFF76AFD00BF1037F6
:10121000BD4680BD1002002080B582B000AF0346FD
:101220000A46FB801346BB80BA88FB8811461846E5
:10123000FFF79EFDFFF78EFD044B1A68044B92B238
:101240005A8000BF0837BD4680BD00BF00000020A7
:10125000FE07006C80B582B000AF0346FB800B46F2
:10126000BB8013467B80584B9B8845F210529342BB
:1012700030D1554B5B891846FFF71EFDFB881B0AD2
:101280009BB21846FFF72CFD4F4B5B8901339BB295
:101290001846FFF711FDFB88DBB29BB21846FFF73B
:1012A0001FFD494B9B891846FFF706FDBB881B0AAB
:1012B0009BB21846FFF714FD434B9B8901339BB249
:1012C0001846FFF7F9FCBB88DBB29BB21846FFF764
:1012D00007FD6DE03C4B9B8841F66312934245D17C
:1012E000394B9B79002B06D1374B1A88FB88D31AD0
:1012F0009BB2013BFB80344B5B891846FFF7DCFC5B
:10130000FB881B0A9BB21846FFF7EAFCFB88DBB29E
:101310009BB21846FFF7E4FCFB881B0A9BB21846F9
:10132000FFF7DEFCFB88DBB29BB21846FFF7D8FC68
:10133000254B9B891846FFF7BFFCBB881B0A9BB255
:101340001846FFF7CDFCBB88DBB29BB21846FFF70F
:10135000C7FCBB881B0A9BB21846FFF7C1FCBB88C1
:10136000DBB29BB21846FFF7BBFC21E0164B5B8952
:101370001846FFF7A1FCFB881B0A9BB21846FFF733
:10138000AFFCFB88DBB29BB21846FFF7A9FC0E4B03
:101390009B891846FFF790FCBB881B0A9BB2184636
:1013A000FFF79EFCBB88DBB29BB21846FFF798FCA8
:1013B000064B054A12891A80044A7B88538000BF75
:1013C0000837BD4680BD00BF10020020FE07006C3C
:1013D00080B582B000AF0346FB71BE20FFF76CFC06
:1013E0000520FFF77DFCFB791846FFF77BF810A37B
:1013F000D3E90023FFF7E0F802460B4610461946F2
:10140000FFF7B2FB03469BB21846FFF769FC0120C9
:10141000FFF766FCFF20FFF763FC0020FFF760FC8E
:101420000020FFF75DFC00BF0837BD4680BD00BF50
:10143000666666666666044080B582B000AF0346A5
:10144000FB71584AFB799371FB79002B51D1554BB5
:10145000F0221A80534B4FF4A0725A80514B9B8854
:1014600045F21052934214D14E4B4FF430521A8130
:101470004C4B4FF428525A814A4B4FF42C529A81CC
:10148000484B4FF4F0721A80464B4FF448725A8022
:1014900020E0444B9B8841F66312934211D1414BAB
:1014A0002C221A813F4B2B225A813E4B2A229A81B1
:1014B0003C4B4FF4F0721A803A4B4FF448725A800A
:1014C00008E0384B2C221A81364B2A225A81354BA0
:1014D0002B229A81334B9B8845F21032934259D18B
:1014E000304B4FF4A0721A802E4B4FF4F0725A809A
:1014F00050E02C4B4FF4A0721A802A4BF0225A80F5
:10150000284B9B8845F21052934214D1254B4FF43F
:1015100030521A81234B4FF428525A81214B4FF4F9
:101520002C529A811F4B4FF448721A801D4B4FF476
:10153000F0725A8020E01B4B9B8841F66312934265
:1015400011D1184B2C221A81164B2A225A81154B85
:101550002B229A81134B4FF448721A80114B4FF48F
:10156000F0725A8008E00F4B2C221A810D4B2A2270
:101570005A810C4B2B229A810A4B9B8845F21032E0
:10158000934207D1074B4FF4F0721A80054B4FF48A
:10159000A0725A800020FFF7C1FC00BF0837BD468B
:1015A00080BD00BF1002002080B586B000AF8C4B1C
:1015B0009B698B4A43F008039361894B9B6903F055
:1015C00008037B607B680123BB600123FB60012370
:1015D0003B6103237B6107F108031946814804F04E
:1015E00007FB322003F04EF9D320FFF765FBFFF72E
:1015F0008BFB03461A467C4B9A80FFF785FB03461C
:101600001A46794B9A80FFF77FFB03461A46764BC2
:101610009A80754B9B881B029AB2734B9A80FFF796
:1016200073FB03461A46704B9B8813439AB26E4B6A
:101630009A806D4B9B8849F24132934200F0C780FB
:101640000420FFF739FBFFF75FFB03461A46664BA2
:101650009A80FFF759FB03461A46634B9A80FFF7BF
:1016600053FB03461A46604B9A805F4B9B881B02D4
:101670009AB25D4B9A80FFF747FB03461A465A4BD6
:101680009B8813439AB2584B9A80574B9B8848F2D9
:101690005252934203D1544B47F289729A80524B73
:1016A0009B8847F28972934200F09180D420FFF723
:1016B00003FBFFF729FB03461A464B4B9A80FFF7C3
:1016C00023FB03461A46484B9A80FFF71DFB03464F
:1016D0001A46454B9A80444B9B881B029AB2424B58
:1016E0009A80FFF711FB03461A463F4B9B88134332
:1016F0009AB23D4B9A803C4B9B8845F21032934204
:1017000065D055214FF47040FFF70EFBAA214FF230
:101710000100FFF709FB52214FF20200FFF704FB23
:1017200008214FF20300FFF7FFFA01214FF20400F6
:10173000FFF7FAFA4FF44540FFF7BEFAFFF7E4FA75
:1017400003461A46284B9A80274B9B881B029AB265
:10175000254B9A804CF20150FFF7AEFAFFF7D4FA0E
:1017600003461A46204B9B8813439AB21E4B9A801D
:101770001D4B9B8845F21052934228D0A120FFF7C1
:101780009BFAFFF7C1FA03461A46174B9A80FFF7F8
:10179000BBFA03461A46144B9A80134B9B881B02D4
:1017A0009AB2114B9A80FFF7AFFA03461A460E4BD6
:1017B0009B8813439AB20C4B9A800B4B9B8845F243
:1017C0006172934203D1084B41F663129A80064B33
:1017D0009B8849F24132934240F01E8106E000BFEF
:1017E00000100240000C014010020020CF20FFF743
:1017F00063FA0020FFF774FAC120FFF771FA302076
:10180000FFF76EFAED20FFF757FA6420FFF768FA4A
:101810000320FFF765FA1220FFF762FA8120FFF735
:101820005FFAE820FFF748FA8520FFF759FA102001
:10183000FFF756FA7A20FFF753FACB20FFF73CFA6E
:101840003920FFF74DFA2C20FFF74AFA0020FFF766
:1018500047FA3420FFF744FA0220FFF741FAF72055
:10186000FFF72AFA2020FFF73BFAEA20FFF724FAD5
:101870000020FFF735FA0020FFF732FAC020FFF70B
:101880001BFA1B20FFF72CFAC120FFF715FA0120E5
:10189000FFF726FAC520FFF70FFA3020FFF720FAEE
:1018A0003020FFF71DFAC720FFF706FAB720FFF731
:1018B00017FA3620FFF700FA4820FFF711FA3A200E
:1018C000FFF7FAF95520FFF70BFAB120FFF7F4F90B
:1018D0000020FFF705FA1A20FFF702FAB620FFF7FB
:1018E000EBF90A20FFF7FCF9A220FFF7F9F9F22043
:1018F000FFF7E2F90020FFF7F3F92620FFF7DCF904
:101900000120FFF7EDF9E020FFF7D6F90F20FFF7F0
:10191000E7F92A20FFF7E4F92820FFF7E1F908208A
:10192000FFF7DEF90E20FFF7DBF90820FFF7D8F903
:101930005420FFF7D5F9A920FFF7D2F94320FFF78C
:10194000CFF90A20FFF7CCF90F20FFF7C9F90020E3
:10195000FFF7C6F90020FFF7C3F90020FFF7C0F931
:101960000020FFF7BDF9E120FFF7A6F90020FFF7FF
:10197000B7F91520FFF7B4F91720FFF7B1F90720E1
:10198000FFF7AEF91120FFF7ABF90620FFF7A8F932
:101990002B20FFF7A5F95620FFF7A2F93C20FFF70F
:1019A0009FF90520FFF79CF91020FFF799F90F2008
:1019B000FFF796F93F20FFF793F93F20FFF790F9E3
:1019C0000F20FFF78DF92B20FFF776F90020FFF7A6
:1019D00087F90020FFF784F90120FFF781F93F2004
:1019E000FFF77EF92A20FFF767F90020FFF778F963
:1019F0000020FFF775F90020FFF772F9EF20FFF7DD
:101A00006FF91120FFF758F9782002F03BFF2920E9
:101A1000FFF752F902F0A8B86D4B9B8847F2897224
:101A2000934240F0D7801120FFF746F9782002F06A
:101A300029FF3620FFF740F90020FFF751F93A203F
:101A4000FFF73AF90520FFF74BF9B220FFF734F919
:101A50000C20FFF745F90C20FFF742F90020FFF7B3
:101A60003FF93320FFF73CF93320FFF739F9B7206E
:101A7000FFF722F93520FFF733F9BB20FFF71CF9F8
:101A80003220FFF72DF9C020FFF716F90C20FFF7E1
:101A900027F9C220FFF710F90120FFF721F9C32031
:101AA000FFF70AF91020FFF71BF9C420FFF704F92C
:101AB0002020FFF715F9C620FFF7FEF80F20FFF7EB
:101AC0000FF9D020FFF7F8F8A420FFF709F9A120BB
:101AD000FFF706F9E020FFF7EFF8D020FFF700F955
:101AE0000020FFF7FDF80220FFF7FAF80720FFF7C4
:101AF000F7F80A20FFF7F4F82820FFF7F1F8322072
:101B0000FFF7EEF84420FFF7EBF84220FFF7E8F884
:101B10000620FFF7E5F80E20FFF7E2F81220FFF7A6
:101B2000DFF81420FFF7DCF81720FFF7D9F8E120E1
:101B3000FFF7C2F8D020FFF7D3F80020FFF7D0F866
:101B40000220FFF7CDF80720FFF7CAF80A20FFF7B9
:101B5000C7F82820FFF7C4F83120FFF7C1F8542058
:101B6000FFF7BEF84720FFF7BBF80E20FFF7B8F8E5
:101B70001C20FFF7B5F81720FFF7B2F81B20FFF77E
:101B8000AFF81E20FFF7ACF82A20FFF795F80020E9
:101B9000FFF7A6F80020FFF7A3F80020FFF7A0F852
:101BA000EF20FFF79DF82B20FFF786F80020FFF7C6
:101BB00097F80020FFF794F80120FFF791F83F20F5
:101BC000FFF78EF82920FFF777F801F0CDBF00BFAF
:101BD00010020020034B9B8845F21032934240F0E4
:101BE0007C8701E010020020ED20FFF765F801205E
:101BF000FFF776F8FE20FFF773F8EE20FFF75CF8AA
:101C0000DE20FFF76DF82120FFF76AF8F120FFF7DB
:101C100053F80120FFF764F8DF20FFF74DF810209C
:101C2000FFF75EF8C420FFF747F88F20FFF758F85A
:101C3000C620FFF741F80020FFF752F8E220FFF737
:101C40004FF8E220FFF74CF8E220FFF749F8BF20F9
:101C5000FFF732F8AA20FFF743F8B020FFF72CF87F
:101C60000D20FFF73DF80020FFF73AF80D20FFF7B1
:101C700037F80020FFF734F81120FFF731F8002083
:101C8000FFF72EF81920FFF72BF80020FFF728F8B0
:101C90002120FFF725F80020FFF722F82D20FFF77D
:101CA0001FF80020FFF71CF83D20FFF719F800206F
:101CB000FFF716F85D20FFF713F80020FFF710F884
:101CC0005D20FFF70DF80020FFF70AF8B120FEF7BE
:101CD000F3FF8020FFF704F80020FFF701F88B20C6
:101CE000FEF7FEFF0020FEF7FBFF9620FEF7F8FF51
:101CF0000020FEF7F5FFB220FEF7DEFF0020FEF722
:101D0000EFFF0020FEF7ECFF0220FEF7E9FF0020C6
:101D1000FEF7E6FF0320FEF7E3FF0020FEF7E0FFFB
:101D2000B320FEF7C9FF0020FEF7DAFF0020FEF720
:101D3000D7FF0020FEF7D4FF0020FEF7D1FF0020E0
:101D4000FEF7CEFF0020FEF7CBFF0020FEF7C8FF16
:101D50000020FEF7C5FF0020FEF7C2FF0020FEF7BF
:101D6000BFFF0020FEF7BCFF0020FEF7B9FF0020F8
:101D7000FEF7B6FF0020FEF7B3FF0020FEF7B0FF2E
:101D80000020FEF7ADFF0020FEF7AAFF0020FEF7BF
:101D9000A7FF0020FEF7A4FF0020FEF7A1FF002010
:101DA000FEF79EFF0020FEF79BFF0020FEF798FF46
:101DB0000020FEF795FFB420FEF77EFF8B20FEF794
:101DC0008FFF0020FEF78CFF9620FEF789FF002092
:101DD000FEF786FFA120FEF783FF0020FEF780FFBD
:101DE000B520FEF769FF0220FEF77AFF0020FEF71C
:101DF00077FF0320FEF774FF0020FEF771FF042039
:101E0000FEF76EFF0020FEF76BFFB620FEF754FFD3
:101E10000020FEF765FF0020FEF762FFB720FEF707
:101E20004BFF0020FEF75CFF0020FEF759FF3F202C
:101E3000FEF756FF0020FEF753FF5E20FEF750FF2F
:101E40000020FEF74DFF6420FEF74AFF0020FEF75A
:101E500047FF8C20FEF744FF0020FEF741FFAC2037
:101E6000FEF73EFF0020FEF73BFFDC20FEF738FFC9
:101E70000020FEF735FF7020FEF732FF0020FEF74E
:101E80002FFF9020FEF72CFF0020FEF729FFEB200C
:101E9000FEF726FF0020FEF723FFDC20FEF720FFE1
:101EA0000020FEF71DFFB820FEF706FF0020FEF71A
:101EB00017FF0020FEF714FF0020FEF711FF00209F
:101EC000FEF70EFF0020FEF70BFF0020FEF708FFD5
:101ED0000020FEF705FF0020FEF702FFBA20FEF704
:101EE000EBFE2420FEF7FCFE0020FEF7F9FE0020AA
:101EF000FEF7F6FE0020FEF7F3FEC120FEF7DCFE43
:101F00002020FEF7EDFE0020FEF7EAFE5420FEF74B
:101F1000E7FE0020FEF7E4FEFF20FEF7E1FE0020D2
:101F2000FEF7DEFEC220FEF7C7FE0A20FEF7D8FE4F
:101F30000020FEF7D5FE0420FEF7D2FE0020FEF7BB
:101F4000CFFEC320FEF7B8FE3C20FEF7C9FE0020FE
:101F5000FEF7C6FE3A20FEF7C3FE0020FEF7C0FEE5
:101F60003920FEF7BDFE0020FEF7BAFE3720FEF74F
:101F7000B7FE0020FEF7B4FE3C20FEF7B1FE0020C5
:101F8000FEF7AEFE3620FEF7ABFE0020FEF7A8FE01
:101F90003220FEF7A5FE0020FEF7A2FE2F20FEF75E
:101FA0009FFE0020FEF79CFE2C20FEF799FE0020ED
:101FB000FEF796FE2920FEF793FE0020FEF790FE26
:101FC0002620FEF78DFE0020FEF78AFE2420FEF775
:101FD00087FE0020FEF784FE2420FEF781FE00200D
:101FE000FEF77EFE2320FEF77BFE0020FEF778FE44
:101FF0003C20FEF775FE0020FEF772FE3620FEF74D
:102000006FFE0020FEF76CFE3220FEF769FE002016
:10201000FEF766FE2F20FEF763FE0020FEF760FE4F
:102020002C20FEF75DFE0020FEF75AFE2920FEF769
:1020300057FE0020FEF754FE2620FEF751FE00203A
:10204000FEF74EFE2420FEF74BFE0020FEF748FE72
:102050002420FEF745FE0020FEF742FE2320FEF777
:102060003FFE0020FEF73CFEC420FEF725FE622066
:10207000FEF736FE0020FEF733FE0520FEF730FEA9
:102080000020FEF72DFE8420FEF72AFE0020FEF73A
:1020900027FEF020FEF724FE0020FEF721FE182088
:1020A000FEF71EFE0020FEF71BFEA420FEF718FE22
:1020B0000020FEF715FE1820FEF712FE0020FEF7A6
:1020C0000FFE5020FEF70CFE0020FEF709FE0C204C
:1020D000FEF706FE0020FEF703FE1720FEF700FEC7
:1020E0000020FEF7FDFD9520FEF7FAFD0020FEF72B
:1020F000F7FDF320FEF7F4FD0020FEF7F1FDE620EA
:10210000FEF7EEFD0020FEF7EBFDC520FEF7D4FD47
:102110003220FEF7E5FD0020FEF7E2FD4420FEF749
:10212000DFFD0020FEF7DCFD6520FEF7D9FD002075
:10213000FEF7D6FD7620FEF7D3FD0020FEF7D0FD9A
:102140008820FEF7CDFD0020FEF7CAFDC620FEF771
:10215000B3FD2020FEF7C4FD0020FEF7C1FD1720CF
:10216000FEF7BEFD0020FEF7BBFD0120FEF7B8FD27
:102170000020FEF7B5FDC720FEF79EFD0020FEF70C
:10218000AFFD0020FEF7ACFD0020FEF7A9FD00200A
:10219000FEF7A6FDC820FEF78FFD0020FEF7A0FD8C
:1021A0000020FEF79DFD0020FEF79AFD0020FEF7BF
:1021B00097FDC920FEF780FD0020FEF791FD00206D
:1021C000FEF78EFD0020FEF78BFD0020FEF788FD58
:1021D0000020FEF785FD0020FEF782FD0020FEF7BF
:1021E0007FFD0020FEF77CFD0020FEF779FD00203A
:1021F000FEF776FD0020FEF773FD0020FEF770FD70
:102200000020FEF76DFD0020FEF76AFD0020FEF7BE
:1022100067FD0020FEF764FDE020FEF74DFD16206F
:10222000FEF75EFD0020FEF75BFD1C20FEF758FD6B
:102230000020FEF755FD2120FEF752FD0020FEF79D
:102240004FFD3620FEF74CFD0020FEF749FD4620ED
:10225000FEF746FD0020FEF743FD5220FEF740FD4D
:102260000020FEF73DFD6420FEF73AFD0020FEF75A
:1022700037FD7A20FEF734FD0020FEF731FD8B207C
:10228000FEF72EFD0020FEF72BFD9920FEF728FD1E
:102290000020FEF725FDA820FEF722FD0020FEF716
:1022A0001FFDB920FEF71CFD0020FEF719FDC4201C
:1022B000FEF716FD0020FEF713FDCA20FEF710FD05
:1022C0000020FEF70DFDD220FEF70AFD0020FEF7EC
:1022D00007FDD920FEF704FD0020FEF701FDE020F8
:1022E000FEF7FEFC0020FEF7FBFCF320FEF7F8FCF7
:1022F0000020FEF7F5FCE120FEF7DEFC1620FEF7DD
:10230000EFFC0020FEF7ECFC1C20FEF7E9FC0020AF
:10231000FEF7E6FC2220FEF7E3FC0020FEF7E0FCDF
:102320003620FEF7DDFC0020FEF7DAFC4520FEF744
:10233000D7FC0020FEF7D4FC5220FEF7D1FC002091
:10234000FEF7CEFC6420FEF7CBFC0020FEF7C8FCB5
:102350007A20FEF7C5FC0020FEF7C2FC8B20FEF7BA
:10236000BFFC0020FEF7BCFC9920FEF7B9FC002062
:10237000FEF7B6FCA820FEF7B3FC0020FEF7B0FC89
:10238000B920FEF7ADFC0020FEF7AAFCC420FEF742
:10239000A7FC0020FEF7A4FCCA20FEF7A1FC002049
:1023A000FEF79EFCD220FEF79BFC0020FEF798FC77
:1023B000D820FEF795FC0020FEF792FCE020FEF707
:1023C0008FFC0020FEF78CFCF320FEF789FC002038
:1023D000FEF786FCE220FEF76FFC0520FEF780FC8E
:1023E0000020FEF77DFC0B20FEF77AFC0020FEF7B4
:1023F00077FC1B20FEF774FC0020FEF771FC3420F4
:10240000FEF76EFC0020FEF76BFC4420FEF768FC34
:102410000020FEF765FC4F20FEF762FC0020FEF76F
:102420005FFC6120FEF75CFC0020FEF759FC792080
:10243000FEF756FC0020FEF753FC8820FEF750FC08
:102440000020FEF74DFC9720FEF74AFC0020FEF727
:1024500047FCA620FEF744FC0020FEF741FCB72015
:10246000FEF73EFC0020FEF73BFCC220FEF738FCE6
:102470000020FEF735FCC720FEF732FC0020FEF7F7
:102480002FFCD120FEF72CFC0020FEF729FCD620E3
:10249000FEF726FC0020FEF723FCDD20FEF720FCE3
:1024A0000020FEF71DFCF320FEF71AFC0020FEF7CB
:1024B00017FCE320FEF700FC0520FEF711FC0020CE
:1024C000FEF70EFC0A20FEF70BFC0020FEF708FCCE
:1024D0001C20FEF705FC0020FEF702FC3320FEF76F
:1024E000FFFB0020FEF7FCFB4420FEF7F9FB002079
:1024F000FEF7F6FB5020FEF7F3FB0020FEF7F0FBA3
:102500006220FEF7EDFB0020FEF7EAFB7820FEF7E5
:10251000E7FB0020FEF7E4FB8820FEF7E1FB00204C
:10252000FEF7DEFB9720FEF7DBFB0020FEF7D8FB73
:10253000A620FEF7D5FB0020FEF7D2FBB720FEF762
:10254000CFFB0020FEF7CCFBC220FEF7C9FB00202A
:10255000FEF7C6FBC720FEF7C3FB0020FEF7C0FB5B
:10256000D120FEF7BDFB0020FEF7BAFBD520FEF719
:10257000B7FB0020FEF7B4FBDD20FEF7B1FB002027
:10258000FEF7AEFBF320FEF7ABFB0020FEF7A8FB47
:10259000E420FEF791FB0120FEF7A2FB0020FEF7EE
:1025A0009FFB0120FEF79CFB0020FEF799FB022019
:1025B000FEF796FB0020FEF793FB2A20FEF790FB28
:1025C0000020FEF78DFB3C20FEF78AFB0020FEF783
:1025D00087FB4B20FEF784FB0020FEF781FB5D208C
:1025E000FEF77EFB0020FEF77BFB7420FEF778FBF6
:1025F0000020FEF775FB8420FEF772FB0020FEF73B
:102600006FFB9320FEF76CFB0020FEF769FBA22016
:10261000FEF766FB0020FEF763FBB320FEF760FBCE
:102620000020FEF75DFBBE20FEF75AFB0020FEF700
:1026300057FBC420FEF754FB0020FEF751FBCD20D2
:10264000FEF74EFB0020FEF74BFBD320FEF748FBC6
:102650000020FEF745FBDD20FEF742FB0020FEF7E1
:102660003FFBF320FEF73CFB0020FEF739FBE520A3
:10267000FEF722FB0020FEF733FB0020FEF730FBC5
:102680000020FEF72DFB0020FEF72AFB0220FEF7BC
:1026900027FB0020FEF724FB2920FEF721FB00206A
:1026A000FEF71EFB3C20FEF71BFB0020FEF718FB8D
:1026B0004B20FEF715FB0020FEF712FB5D20FEF716
:1026C0000FFB0020FEF70CFB7420FEF709FB002037
:1026D000FEF706FB8420FEF703FB0020FEF700FB5D
:1026E0009320FEF7FDFA0020FEF7FAFAA220FEF78B
:1026F000F7FA0020FEF7F4FAB320FEF7F1FA002013
:10270000FEF7EEFABE20FEF7EBFA0020FEF7E8FA3D
:10271000C420FEF7E5FA0020FEF7E2FACD20FEF72E
:10272000DFFA0020FEF7DCFAD320FEF7D9FA00200A
:10273000FEF7D6FADC20FEF7D3FA0020FEF7D0FA37
:10274000F320FEF7CDFA0020FEF7CAFAE620FEF7E6
:10275000B3FA1120FEF7C4FA0020FEF7C1FA3420C4
:10276000FEF7BEFA0020FEF7BBFA5620FEF7B8FAD5
:102770000020FEF7B5FA7620FEF7B2FA0020FEF749
:10278000AFFA7720FEF7ACFA0020FEF7A9FA662030
:10279000FEF7A6FA0020FEF7A3FA8820FEF7A0FABB
:1027A0000020FEF79DFA9920FEF79AFA0020FEF726
:1027B00097FABB20FEF794FA0020FEF791FA9920D1
:1027C000FEF78EFA0020FEF78BFA6620FEF788FAF5
:1027D0000020FEF785FA5520FEF782FA0020FEF76A
:1027E0007FFA5520FEF77CFA0020FEF779FA4520A3
:1027F000FEF776FA0020FEF773FA4320FEF770FA30
:102800000020FEF76DFA4420FEF76AFA0020FEF77A
:1028100067FAE720FEF750FA3220FEF761FA00204F
:10282000FEF75EFA5520FEF75BFA0020FEF758FA35
:102830007620FEF755FA0020FEF752FA6620FEF7E2
:102840004FFA0020FEF74CFA6720FEF749FA002005
:10285000FEF746FA6720FEF743FA0020FEF740FA3B
:102860008720FEF73DFA0020FEF73AFA9920FEF79E
:1028700037FA0020FEF734FABB20FEF731FA0020C9
:10288000FEF72EFA9920FEF72BFA0020FEF728FA21
:102890007720FEF725FA0020FEF722FA4420FEF703
:1028A0001FFA0020FEF71CFA5620FEF719FA002046
:1028B000FEF716FA2320FEF713FA0020FEF710FAAF
:1028C0003320FEF70DFA0020FEF70AFA4520FEF746
:1028D00007FA0020FEF704FAE820FEF7EDF90020E1
:1028E000FEF7FEF90020FEF7FBF99920FEF7F8F954
:1028F0000020FEF7F5F98720FEF7F2F90020FEF739
:10290000EFF98820FEF7ECF90020FEF7E9F97720CF
:10291000FEF7E6F90020FEF7E3F96620FEF7E0F99E
:102920000020FEF7DDF98820FEF7DAF90020FEF737
:10293000D7F9AA20FEF7D4F90020FEF7D1F9BB2081
:10294000FEF7CEF90020FEF7CBF99920FEF7C8F983
:102950000020FEF7C5F96620FEF7C2F90020FEF759
:10296000BFF95520FEF7BCF90020FEF7B9F9552054
:10297000FEF7B6F90020FEF7B3F94420FEF7B0F9F0
:102980000020FEF7ADF94420FEF7AAF90020FEF77B
:10299000A7F95520FEF7A4F90020FEF7A1F9E920D8
:1029A000FEF78AF9AA20FEF79BF90020FEF798F9B6
:1029B0000020FEF795F90020FEF792F90020FEF7BF
:1029C0007BF9AA20FEF78CF9CF20FEF775F90020DD
:1029D000FEF786F90020FEF783F90020FEF780F964
:1029E0000020FEF77DF90020FEF77AF90020FEF7BF
:1029F00077F90020FEF774F90020FEF771F9002046
:102A0000FEF76EF90020FEF76BF90020FEF768F97B
:102A10000020FEF765F90020FEF762F90020FEF7BE
:102A20005FF90020FEF75CF90020FEF759F900205D
:102A3000FEF756F9F020FEF73FF90020FEF750F9B7
:102A40005020FEF74DF90020FEF74AF90020FEF76E
:102A500047F90020FEF744F9F320FEF72DF9002096
:102A6000FEF73EF9F920FEF727F90620FEF738F9C0
:102A70001020FEF735F92920FEF732F90020FEF785
:102A80002FF93A20FEF718F95520FEF729F9112001
:102A9000FEF712F9642001F0F5FE2920FEF70CF98B
:102AA0003520FEF709F90020FEF71AF95120FEF74C
:102AB00003F9FF20FEF714F95320FEF7FDF82C2050
:102AC000FEF70EF95520FEF7F7F88220FEF708F919
:102AD0002C20FEF7F1F801F047B8044B9B8845F233
:102AE0001052934240F0818702E000BF10020020A4
:102AF00055214FF47040FEF717F9AA214FF201005B
:102B0000FEF712F952214FF20200FEF70DF90821EB
:102B10004FF20300FEF708F901214FF20400FEF71F
:102B200003F90D214FF43040FEF7FEF80D214BF272
:102B30000100FEF7F9F80D214BF20200FEF7F4F860
:102B400034214FF43640FEF7EFF834214BF20160A8
:102B5000FEF7EAF834214BF20260FEF7E5F80D21AA
:102B60004FF43140FEF7E0F80D214BF20110FEF773
:102B7000DBF80D214BF20210FEF7D6F834214FF4AA
:102B80003740FEF7D1F834214BF20170FEF7CCF854
:102B900034214BF20270FEF7C7F800214FF43240A7
:102BA000FEF7C2F800214BF20120FEF7BDF800212C
:102BB0004BF20220FEF7B8F824214FF43840FEF71C
:102BC000B3F824214BF60100FEF7AEF824214BF6B2
:102BD0000200FEF7A9F801214FF43F40FEF7A4F8E8
:102BE0000F214FF43340FEF79FF80F214BF20130D5
:102BF000FEF79AF80F214BF20230FEF795F83421D8
:102C00004FF43940FEF790F834214BF60110FEF7EF
:102C10008BF834214BF60210FEF786F808214FF4AA
:102C20003540FEF781F808214BF20150FEF77CF8A1
:102C300008214BF20250FEF777F803214FF442408F
:102C4000FEF772F824214FF43A40FEF76DF8242184
:102C50004BF60120FEF768F824214BF60220FEF720
:102C600063F800214FF43C40FEF75EF878214BF604
:102C70000140FEF759F800214BF60240FEF754F8E8
:102C800000214FF43D40FEF74FF878214BF60150FC
:102C9000FEF74AF800214BF60250FEF745F80021F6
:102CA0004FF43E40FEF740F864214BF60160FEF71A
:102CB0003BF800214FF45140FEF736F833214DF236
:102CC0000110FEF731F800214DF20210FEF72CF84A
:102CD00034214DF20310FEF727F800214DF20410C5
:102CE000FEF722F83A214DF20510FEF71DF80021FB
:102CF0004DF20610FEF718F84A214DF20710FEF7C4
:102D000013F800214DF20810FEF70EF85C214DF289
:102D10000910FEF709F800214DF20A10FEF704F839
:102D200081214DF20B10FDF7FFFF00214DF20C1039
:102D3000FDF7FAFFA6214DF20D10FDF7F5FF00217A
:102D40004DF20E10FDF7F0FFE5214DF20F10FDF7EB
:102D5000EBFF01214DF21010FDF7E6FF13214DF2BC
:102D60001110FDF7E1FF01214DF21210FDF7DCFF1C
:102D700054214DF21310FDF7D7FF01214DF214102D
:102D8000FDF7D2FF82214DF21510FDF7CDFF012195
:102D90004DF21610FDF7C8FFCA214DF21710FDF7CE
:102DA000C3FF02214DF21810FDF7BEFF00214DF2C6
:102DB0001910FDF7B9FF02214DF21A10FDF7B4FF0B
:102DC00001214DF21B10FDF7AFFF02214DF21C1047
:102DD000FDF7AAFF34214DF21D10FDF7A5FF0221DA
:102DE0004DF21E10FDF7A0FF67214DF21F10FDF7F9
:102DF0009BFF02214DF22010FDF796FF84214DF23A
:102E00002110FDF791FF02214DF22210FDF78CFFFA
:102E1000A4214DF22310FDF787FF02214DF224106B
:102E2000FDF782FFB7214DF22510FDF77DFF02214E
:102E30004DF22610FDF778FFCF214DF22710FDF758
:102E400073FF02214DF22810FDF76EFFDE214DF2D7
:102E50002910FDF769FF02214DF22A10FDF764FFEA
:102E6000F2214DF22B10FDF75FFF02214DF22C10E5
:102E7000FDF75AFFFE214DF22D10FDF755FF0321FE
:102E80004DF22E10FDF750FF10214DF22F10FDF7DF
:102E90004BFF03214DF23010FDF746FF33214DF279
:102EA0003110FDF741FF03214DF23210FDF73CFFD9
:102EB0006D214DF23310FDF737FF00214FF45240E2
:102EC000FDF732FF33214DF20120FDF72DFF0021E8
:102ED0004DF20220FDF728FF34214DF20320FDF7CB
:102EE00023FF00214DF20420FDF71EFF3A214DF291
:102EF0000520FDF719FF00214DF20620FDF714FF14
:102F00004A214DF20720FDF70FFF00214DF2082066
:102F1000FDF70AFF5C214DF20920FDF705FF0021B6
:102F20004DF20A20FDF700FF81214DF20B20FDF745
:102F3000FBFE00214DF20C20FDF7F6FEA6214DF21E
:102F40000D20FDF7F1FE00214DF20E20FDF7ECFE05
:102F5000E5214DF20F20FDF7E7FE01214DF2102093
:102F6000FDF7E2FE13214DF21120FDF7DDFE0121F8
:102F70004DF21220FDF7D8FE54214DF21320FDF73B
:102F8000D3FE01214DF21420FDF7CEFE82214DF239
:102F90001520FDF7C9FE01214DF21620FDF7C4FEF4
:102FA000CA214DF21720FDF7BFFE02214DF2182075
:102FB000FDF7BAFE00214DF21920FDF7B5FE022102
:102FC0004DF21A20FDF7B0FE01214DF21B20FDF756
:102FD000ABFE02214DF21C20FDF7A6FE34214DF27E
:102FE0001D20FDF7A1FE02214DF21E20FDF79CFEE3
:102FF00067214DF21F20FDF797FE02214DF22020A0
:10300000FDF792FE84214DF22120FDF78DFE022175
:103010004DF22220FDF788FEA4214DF22320FDF77A
:1030200083FE02214DF22420FDF77EFEB7214DF2F2
:103030002520FDF779FE02214DF22620FDF774FED2
:10304000CF214DF22720FDF76FFE02214DF22820FF
:10305000FDF76AFEDE214DF22920FDF765FE022113
:103060004DF22A20FDF760FEF2214DF22B20FDF7F4
:103070005BFE02214DF22C20FDF756FEFE214DF2A3
:103080002D20FDF751FE03214DF22E20FDF74CFEC1
:1030900010214DF22F20FDF747FE03214DF2302085
:1030A000FDF742FE33214DF23120FDF73DFE0321B5
:1030B0004DF23220FDF738FE6D214DF23320FDF741
:1030C00033FE00214FF45340FDF72EFE33214DF225
:1030D0000130FDF729FE00214DF20230FDF724FEFC
:1030E00034214DF20330FDF71FFE00214DF2043074
:1030F000FDF71AFE3A214DF20530FDF715FE0021CD
:103100004DF20630FDF710FE4A214DF20730FDF773
:103110000BFE00214DF20830FDF706FE5C214DF25A
:103120000930FDF701FE00214DF20A30FDF7FCFDEC
:1031300081214DF20B30FDF7F7FD00214DF20C30EF
:10314000FDF7F2FDA6214DF20D30FDF7EDFD00215A
:103150004DF20E30FDF7E8FDE5214DF20F30FDF7A1
:10316000E3FD01214DF21030FDF7DEFD13214DF29C
:103170001130FDF7D9FD01214DF21230FDF7D4FDDC
:1031800054214DF21330FDF7CFFD01214DF21430E3
:10319000FDF7CAFD82214DF21530FDF7C5FD012175
:1031A0004DF21630FDF7C0FDCA214DF21730FDF784
:1031B000BBFD02214DF21830FDF7B6FD00214DF2A6
:1031C0001930FDF7B1FD02214DF21A30FDF7ACFDCB
:1031D00001214DF21B30FDF7A7FD02214DF21C30FD
:1031E000FDF7A2FD34214DF21D30FDF79DFD0221BA
:1031F0004DF21E30FDF798FD67214DF21F30FDF7AF
:1032000093FD02214DF22030FDF78EFD84214DF219
:103210002130FDF789FD02214DF22230FDF784FDBA
:10322000A4214DF22330FDF77FFD02214DF2243021
:10323000FDF77AFDB7214DF22530FDF775FD02212E
:103240004DF22630FDF770FDCF214DF22730FDF70E
:103250006BFD02214DF22830FDF766FDDE214DF2B7
:103260002930FDF761FD02214DF22A30FDF75CFDAA
:10327000F2214DF22B30FDF757FD02214DF22C309B
:10328000FDF752FDFE214DF22D30FDF74DFD0321DE
:103290004DF22E30FDF748FD10214DF22F30FDF795
:1032A00043FD03214DF23030FDF73EFD33214DF259
:1032B0003130FDF739FD03214DF23230FDF734FD99
:1032C0006D214DF23330FDF72FFD00214FF45440B6
:1032D000FDF72AFD33214DF20140FDF725FD0021C8
:1032E0004DF20240FDF720FD34214DF20340FDF781
:1032F0001BFD00214DF20440FDF716FD3A214DF271
:103300000540FDF711FD00214DF20640FDF70CFDD3
:103310004A214DF20740FDF707FD00214DF208401C
:10332000FDF702FD5C214DF20940FDF7FDFC002197
:103330004DF20A40FDF7F8FC81214DF20B40FDF7FC
:10334000F3FC00214DF20C40FDF7EEFCA6214DF2FE
:103350000D40FDF7E9FC00214DF20E40FDF7E4FCC5
:10336000E5214DF20F40FDF7DFFC01214DF2104049
:10337000FDF7DAFC13214DF21140FDF7D5FC0121D8
:103380004DF21240FDF7D0FC54214DF21340FDF7F1
:10339000CBFC01214DF21440FDF7C6FC82214DF219
:1033A0001540FDF7C1FC01214DF21640FDF7BCFCB4
:1033B000CA214DF21740FDF7B7FC02214DF218402B
:1033C000FDF7B2FC00214DF21940FDF7ADFC0221E2
:1033D0004DF21A40FDF7A8FC01214DF21B40FDF70C
:1033E000A3FC02214DF21C40FDF79EFC34214DF25E
:1033F0001D40FDF799FC02214DF21E40FDF794FCA3
:1034000067214DF21F40FDF78FFC02214DF2204055
:10341000FDF78AFC84214DF22140FDF785FC022155
:103420004DF22240FDF780FCA4214DF22340FDF730
:103430007BFC02214DF22440FDF776FCB7214DF2D2
:103440002540FDF771FC02214DF22640FDF76CFC92
:10345000CF214DF22740FDF767FC02214DF22840B5
:10346000FDF762FCDE214DF22940FDF75DFC0221F3
:103470004DF22A40FDF758FCF2214DF22B40FDF7AA
:1034800053FC02214DF22C40FDF74EFCFE214DF283
:103490002D40FDF749FC03214DF22E40FDF744FC81
:1034A00010214DF22F40FDF73FFC03214DF230403B
:1034B000FDF73AFC33214DF23140FDF735FC032195
:1034C0004DF23240FDF730FC6D214DF23340FDF7F7
:1034D0002BFC00214FF45540FDF726FC33214DF223
:1034E0000150FDF721FC00214DF20250FDF71CFCBC
:1034F00034214DF20350FDF717FC00214DF204502A
:10350000FDF712FC3A214DF20550FDF70DFC0021AC
:103510004DF20650FDF708FC4A214DF20750FDF729
:1035200003FC00214DF20850FDF7FEFB5C214DF23B
:103530000950FDF7F9FB00214DF20A50FDF7F4FBAD
:1035400081214DF20B50FDF7EFFB00214DF20C50A5
:10355000FDF7EAFBA6214DF20D50FDF7E5FB00213A
:103560004DF20E50FDF7E0FBE5214DF20F50FDF757
:10357000DBFB01214DF21050FDF7D6FB13214DF27C
:103580001150FDF7D1FB01214DF21250FDF7CCFB9C
:1035900054214DF21350FDF7C7FB01214DF2145099
:1035A000FDF7C2FB82214DF21550FDF7BDFB012155
:1035B0004DF21650FDF7B8FBCA214DF21750FDF73A
:1035C000B3FB02214DF21850FDF7AEFB00214DF286
:1035D0001950FDF7A9FB02214DF21A50FDF7A4FB8B
:1035E00001214DF21B50FDF79FFB02214DF21C50B3
:1035F000FDF79AFB34214DF21D50FDF795FB02219A
:103600004DF21E50FDF790FB67214DF21F50FDF764
:103610008BFB02214DF22050FDF786FB84214DF2F9
:103620002150FDF781FB02214DF22250FDF77CFB7A
:10363000A4214DF22350FDF777FB02214DF22450D7
:10364000FDF772FBB7214DF22550FDF76DFB02210E
:103650004DF22650FDF768FBCF214DF22750FDF7C4
:1036600063FB02214DF22850FDF75EFBDE214DF297
:103670002950FDF759FB02214DF22A50FDF754FB6A
:10368000F2214DF22B50FDF74FFB02214DF22C5051
:10369000FDF74AFBFE214DF22D50FDF745FB0321BE
:1036A0004DF22E50FDF740FB10214DF22F50FDF74B
:1036B0003BFB03214DF23050FDF736FB33214DF239
:1036C0003150FDF731FB03214DF23250FDF72CFB59
:1036D0006D214DF23350FDF727FB00214FF456408A
:1036E000FDF722FB33214DF20160FDF71DFB0021A8
:1036F0004DF20260FDF718FB34214DF20360FDF737
:1037000013FB00214DF20460FDF70EFB3A214DF250
:103710000560FDF709FB00214DF20660FDF704FB93
:103720004A214DF20760FDF7FFFA00214DF20860D3
:10373000FDF7FAFA5C214DF20960FDF7F5FA002178
:103740004DF20A60FDF7F0FA81214DF20B60FDF7B2
:10375000EBFA00214DF20C60FDF7E6FAA6214DF2DE
:103760000D60FDF7E1FA00214DF20E60FDF7DCFA85
:10377000E5214DF20F60FDF7D7FA01214DF21060FF
:10378000FDF7D2FA13214DF21160FDF7CDFA0121B8
:103790004DF21260FDF7C8FA54214DF21360FDF7A7
:1037A000C3FA01214DF21460FDF7BEFA82214DF2F9
:1037B0001560FDF7B9FA01214DF21660FDF7B4FA74
:1037C000CA214DF21760FDF7AFFA02214DF21860E1
:1037D000FDF7AAFA00214DF21960FDF7A5FA0221C2
:1037E0004DF21A60FDF7A0FA01214DF21B60FDF7C2
:1037F0009BFA02214DF21C60FDF796FA34214DF23E
:103800001D60FDF791FA02214DF21E60FDF78CFA62
:1038100067214DF21F60FDF787FA02214DF220600B
:10382000FDF782FA84214DF22160FDF77DFA022135
:103830004DF22260FDF778FAA4214DF22360FDF7E6
:1038400073FA02214DF22460FDF76EFAB7214DF2B2
:103850002560FDF769FA02214DF22660FDF764FA52
:10386000CF214DF22760FDF75FFA02214DF228606B
:10387000FDF75AFADE214DF22960FDF755FA0221D3
:103880004DF22A60FDF750FAF2214DF22B60FDF760
:103890004BFA02214DF22C60FDF746FAFE214DF263
:1038A0002D60FDF741FA03214DF22E60FDF73CFA41
:1038B00010214DF22F60FDF737FA03214DF23060F1
:1038C000FDF732FA33214DF23160FDF72DFA032175
:1038D0004DF23260FDF728FA6D214DF23360FDF7AD
:1038E00023FA55214FF47040FDF71EFAAA214FF23A
:1038F0000100FDF719FA52214FF20200FDF714FA08
:1039000008214FF20300FDF70FFA00214FF20400E7
:10391000FDF70AFACC214FF43140FDF705FA0021FA
:103920004BF20110FDF700FA05214FF43640FDF788
:10393000FBF970214FF43740FDF7F6F970214BF297
:103940000170FDF7F1F901214FF43840FDF7ECF972
:1039500003214BF60100FDF7E7F903214BF60200C6
:10396000FDF7E2F903214BF60300FDF7DDF9022133
:103970004FF43C40FDF7D8F900214BF60140FDF72C
:10398000D3F900214BF60240FDF7CEF9D0214FF4D8
:103990004940FDF7C9F902214CF60110FDF7C4F9C1
:1039A00050214CF60210FDF7BFF950214CF60310E0
:1039B000FDF7BAF950214CF60410FDF7B5F90021D6
:1039C0004FF45450FDF7B0F955214FF46850FDF70E
:1039D000ABF94FF48850FDF76FF9782000F012FF33
:1039E0004FF42450FDF768F9BEE0664B9B8841F622
:1039F0006312934240F0B880E220FDF75DF91D208C
:103A0000FDF76EF90220FDF76BF90420FDF768F968
:103A1000642000F0F7FEE020FDF74EF90120FDF7ED
:103A20005FF90A2000F02EFFE020FDF745F90320A2
:103A3000FDF756F90C2000F025FF0120FDF73CF9B9
:103A40000A2000F01FFFE620FDF736F92F20FDF7D2
:103A500047F9FF20FDF744F9FF20FDF741F9B020B9
:103A6000FDF72AF92020FDF73BF90020FDF738F992
:103A70000320FDF735F940F21F30FDF731F9012041
:103A8000FDF72EF940F2DF10FDF72AF90020FDF7CF
:103A900027F9B420FDF710F90420FDF721F940F2D1
:103AA0001F40FDF71DF90020FDF71AF92E20FDF744
:103AB00017F90020FDF714F90020FDF711F9002097
:103AC000FDF70EF90020FDF70BF9B620FDF7F4F82D
:103AD0000220FDF705F94FF40370FDF701F900200E
:103AE000FDF7FEF81720FDF7FBF81520FDF7F8F8B5
:103AF0000020FDF7F5F80020FDF7F2F8F020FDF7C3
:103B0000DBF80320FDF7ECF82920FDF7D5F8D020ED
:103B1000FDF7D2F80020FDF7E3F8BE20FDF7CCF862
:103B20000520FDF7DDF8FE20FDF7DAF80120FDF7AE
:103B3000D7F80020FDF7D4F80020FDF7D1F80020D9
:103B4000FDF7CEF8B820FDF7B7F80320FDF7C8F869
:103B50000120FDF7C5F8BA20FDF7AEF80120FDF70A
:103B6000BFF86420FDF734FC0020FDF765FC064B30
:103B700001221A604FF6FF7000F008F800BF1837F6
:103B8000BD4680BD100200208081214280B584B0F6
:103B900000AF0346FB800023FB60114B1B88BB601A
:103BA0000F4B5B881A46BB6802FB03F3BB60002126
:103BB0000020FDF7DDF8FDF7CDF80023FB6005E000
:103BC000084AFB885380FB680133FB60FA68BB68D6
:103BD0009A42F5D300BF00BF1037BD4680BD00BF7D
:103BE00010020020FE07006C90B58DB000AF0446B7
:103BF000084611461A462346FB800346BB800B4607
:103C00007B8013463B800023BB6200237B627A8863
:103C1000FB88D31A3B623A88BB88D31AFB61FB88C6
:103C2000FB60BB88BB603B6A002B02DD01237B612C
:103C30000BE03B6A002B02D100237B6105E04FF0D3
:103C4000FF337B613B6A5B423B62FB69002B02DD19
:103C500001233B610BE0FB69002B02D100233B6198
:103C600005E04FF0FF333B61FB695B42FB613A6A61
:103C7000FB699A4202DD3B6ABB6101E0FB69BB6103
:103C80000023FB852AE0FB689BB2BA6892B211461A
:103C90001846FDF7C1FABA6A3B6A1344BB627A6AF6
:103CA000FB6913447B62BA6ABB699A4207DDBA6A50
:103CB000BB69D31ABB62FA687B691344FB607A6AFA
:103CC000BB699A4207DD7A6ABB69D31A7B62BA681C
:103CD0003B691344BB60FB8D0133FB85FA8DBB69E7
:103CE00001339A42CFDD00BF00BF3437BD4690BDDF
:103CF00090B585B000AF0446084611461A462346E3
:103D0000FB800346BB800B46FB701346BB70BB8831
:103D10007B81BB78DB08DBB21A46BB7803F0070374
:103D2000DBB2002B14BF01230023DBB21344DBB250
:103D3000BA785208D2B202FB03F37B72FB78203BC5
:103D4000FB7000237B736BE0BB780C2B0BD1FA78F4
:103D5000797B394813465B0013449B0003440B44B2
:103D60001B78FB7319E0BB78102B08D1FA787B7BAA
:103D7000324912010A4413441B78FB730DE0BB78EF
:103D8000182B52D1FA78797B2D481346DB00134467
:103D90009B0003440B441B78FB730023BB7337E089
:103DA00097F90F30002B08DA264B1B689AB2B988B6
:103DB000FB881846FDF74EFA0BE097F82030002BF1
:103DC00007D1214B1B689AB2B988FB881846FDF7CA
:103DD00041FAFB7B5B00FB73BB880133BB801B4B51
:103DE0005B88BA889A4222D2BA887B89D21ABB7879
:103DF0009A420AD17B89BB80FB880133FB80134B3D
:103E00001B88FA889A4207D312E0BB7B0133BB734D
:103E1000BB7B072BC4D900E000BF7B7B01337B73E6
:103E20007A7B7B7A9A428FD302E000BF00E000BF2A
:103E30001437BD4690BD00BFA4F9000818FE000865
:103E400008040108000000200400002010020020E7
:103E500080B485B000AF03460A46FB711346BB71C0
:103E60000123FB6004E0FA79FB6802FB03F3FB60CB
:103E7000BB795A1EBA71002BF5D1FB68184614376E
:103E8000BD4680BC7047000090B589B002AFBA60F3
:103E90001A460346FB810B46BB811346FB71002388
:103EA000BB750023FB7555E0FA79FB7DD31ADBB2B5
:103EB000013BDBB219460A20FFF7CAFF0246BB6886
:103EC000B3FBF2F1284BA3FB0123DA0813469B0056
:103ED00013445B00CA1A13467B75BB7D002B1FD1B0
:103EE000FA7DFB79013B9A421ADA7B7D002B15D1D2
:103EF00097F828305B08DBB29BB2FA7D92B202FBE6
:103F000003F39AB2FB89134498B297F82830B98921
:103F1000002200922022FFF7EBFE18E00123BB7580
:103F200097F828305B08DBB29BB2FA7D92B202FBB5
:103F300003F39AB2FB89134498B27B7D3033DAB233
:103F400097F82830B98900240094FFF7D1FEFB7D53
:103F50000133FB75FA7DFB799A42A5D300BF00BF00
:103F60001C37BD4690BD00BFCDCCCCCC90B587B042
:103F700002AF0446084611461A462346FB80034614
:103F8000BB800B467B8013463B80FB88FB737A88A3
:103F9000FB8813447B803A88BB8813443B8024E031
:103FA000FA887B889A4207D3FB7BFB8097F8203006
:103FB0009AB2BB881344BB80BA883B889A421DD210
:103FC0007B6A1A7897F82030B988F8880024009422
:103FD000FFF78EFE97F820305B08DBB29AB2FB88C1
:103FE0001344FB807B6A01337B627B6A1B787E2BE8
:103FF00005D87B6A1B781F2BD2D800E000BF00BF1A
:104000001437BD4690BD000080B584B000AF3B1DA5
:1040100000221A605A609A60184B194A1A60174BAE
:1040200000229A60154B00221A73144B00221A7555
:10403000124B4FF46022DA61104B00225A600F4B92
:1040400001221A610D4801F08DF90346002B01D0C1
:1040500000F036FC01237B600123BB600023FB6082
:104060003B1D1946054801F067FA0346002B01D0B5
:1040700000F026FC00BF1037BD4680BD20020020A6
:104080000024014080B588B000AF786007F11003CC
:1040900000221A605A609A60DA607B681B68144AD2
:1040A000934221D1134B9B69124A43F400739361ED
:1040B000104B9B6903F40073FB60FB680D4B9B691D
:1040C0000C4A43F0040393610A4B9B6903F0040319
:1040D000BB60BB6802233B6103237B6107F11003D4
:1040E0001946054801F084FD00BF2037BD4680BD5C
:1040F00000240140001002400008014080B500AFDC
:104100000C4A01210A2004F015FA03460A4A1360FA
:104110000A4A00210A4804F035F90346094A1360A7
:10412000094A0021094804F02DF90346084A1360A2
:1041300000BF80BDB01101085802002068110108BD
:1041400055410008500200208C1101082D43000841
:104150005402002080B58CB002AF78604FF47A73BF
:104160007B6205F039FC0346FB60654B01930C2331
:1041700000930C23D22205211E20FFF7F7FE614B8E
:104180001B68184605F06EF838625F4B01930C23EC
:1041900000930C23D22214211E20FFF7E7FE3B6A76
:1041A00001930C2300930C23D22214219620FFF7B5
:1041B000DDFE544B1B68184604F0F8FEF861534BC3
:1041C00001930C2300930C23D22223211E20FFF7FE
:1041D000CDFE0C2300930423FA6923216420FFF70A
:1041E00053FE4B4B01930C2300930C23D22232211C
:1041F0001E20FFF7BBFE474B01930C2300930C23BB
:10420000D22241211E20FFF7B1FE434B1E221A800D
:10421000424B50221A80404B1A88414B1A803F4B28
:104220001A88404B1A800023BB6100237B61354B09
:104230001B68184604F09CFE0346BB61BA690C2358
:104240000093042332219620FFF71EFE2D4B1B689E
:10425000184604F0ABFE03467B617A690C23009399
:10426000042341219620FFF70FFE264B1B6807F120
:104270000B013222184604F09BFD38613B69012B8B
:104280003CD1FB7A0422934206D1264B1B8819337A
:104290009AB2244B1A8014E0FB7A0122934206D191
:1042A0001F4B1B88143B9AB21D4B1A8009E0FB7A06
:1042B0000222934205D11A4B1B8814339AB2184B31
:1042C0001A80154B1888154B1988154B1A88154BF1
:1042D0001B88FFF789FC124B1A880F4B1A80114B71
:1042E0001A880E4B1A8020210F4801F044FE07F176
:1042F0000C03796A184605F0ABF998E700BF96E71A
:10430000F0F800085802002004F9000814F9000829
:1043100024F9000840F90008080000200A000020E5
:104320000C0000200E000020000C014080B584B07D
:1043300000AF78606423FB6005F04EFB0346BB6072
:104340001021194801F0E8FD0346002B07D1174B57
:10435000186800236422164904F094FB1CE008212D
:10436000114801F0D9FD0346002B07D10F4B186807
:10437000002364220F4904F085FB0DE001210E4863
:1043800001F0CAFD0346002B06D0084B1868002335
:1043900064220A4904F076FB07F10803F96818461D
:1043A00005F056F9CCE700BF001801405802002084
:1043B0006411010865110108000801406611010837
:1043C00080B58EB000AF07F11C0300221A605A605E
:1043D0009A60DA601A615A619A613B4600221A605B
:1043E0005A609A60DA601A615A619A61304B4FF0F4
:1043F00020421A602E4B2F4A5A602D4B06229A609B
:104400002B4B0022DA602A4B00221A61284B102223
:104410005A61274B00229A61254B0022DA61244B16
:1044200000221A62224B00225A62214B4FF4805222
:104430009A621F4B0022DA621D4B4FF480421A63CE
:104440001B4B00225A631A4B00229A630623FB611E
:104450000F233B621A237B620023BB621023FB62A3
:1044600011233B6300237B6303233B600F237B60AB
:104470000623BB600023FB6010233B6111237B619B
:104480000023BB613A4607F11C031946084802F0B5
:104490005CFD0346002B01D000F012FA064BDB69ED
:1044A000054A43F48063D36100BF3837BD4680BD01
:1044B0005C020020040100A00000014080B586B02D
:1044C00000AF07F1080300221A605A609A60DA60B0
:1044D0001F4B1B68002B36D11D4B01221A601D4B50
:1044E0005B691C4A43F4807353611A4B5B6903F4A4
:1044F00080737B607B6841F20103BB600223FB6039
:1045000003237B6107F108031946134801F070FB90
:104510004FF68073BB600223FB6003237B6107F1CE
:10452000080319460D4801F063FB4CF23373BB607E
:104530000223FB6003237B6107F108031946084847
:1045400001F056FB00E000BF1837BD4680BD00BF3C
:10455000A402002000100240002001400018014089
:104560000014014080B582B000AF7860FFF7A6FF6D
:1045700000BF0837BD4680BD80B58AB000AF07F1E7
:10458000180300221A605A609A60DA604F4B9B69E8
:104590004E4A43F0400393614C4B9B6903F0400348
:1045A0007B617B69494B9B69484A43F010039361E7
:1045B000464B9B6903F010033B613B69434B9B698E
:1045C000424A43F004039361404B9B6903F00403A8
:1045D000FB60FB683D4B9B693C4A43F480739361ED
:1045E0003A4B9B6903F48073BB60BB68374B9B6994
:1045F000364A43F008039361344B9B6903F0080388
:104600007B607B68314B9B69304A43F020039361A8
:104610002E4B9B6903F020033B603B680022202166
:104620002B4801F090FC01224FF48051294801F001
:104630008AFC00222021274801F085FC1823BB6159
:104640000023FB6101233B6207F118031946204850
:1046500001F0CEFA2023BB610123FB6100233B6202
:1046600003237B6207F118031946194801F0C0FAC9
:104670000123BB610023FB6102233B6207F11803A6
:104680001946154801F0B4FA4FF48053BB61012379
:10469000FB6101233B6203237B6207F11803194688
:1046A0000C4801F0A5FA2023BB610123FB61002324
:1046B0003B6203237B6207F118031946054801F0AA
:1046C00097FA00BF2837BD4680BD00BF00100240EA
:1046D00000180140000C01400008014080B58CB07A
:1046E00000AF0023FB6200F0E7FD00F029F8FFF7C0
:1046F00043FF00F027FDFFF763FE00F0E7FA00F04C
:10470000E5F8FFF781FCFCF74FFF0B4B4FF47842C5
:104710001A604FF6FF70FFF739FA03F0CDFDFFF78F
:10472000EDFC03F0FBFD4FF4FA7003F0D5FE202101
:10473000024801F020FCF6E700000020000C0140D8
:1047400080B596B000AF07F130032822002118464B
:1047500006F084FC07F11C0300221A605A609A607C
:10476000DA601A613B1D00221A605A609A60DA60B2
:104770001A615A6105233B634FF480337B63002346
:10478000BB630123FB6301233B640223FB644FF4FF
:1047900080333B654FF4E0137B6507F13003184627
:1047A00001F00EFC0346002B01D000F089F80F2326
:1047B000FB6102233B6200237B624FF48063BB6298
:1047C0000023FB6207F11C030221184601F07AFE68
:1047D0000346002B01D000F073F803237B604FF4F5
:1047E0008073BB600023FB603B1D184602F028F875
:1047F0000346002B01D000F063F800BF5837BD46D8
:1048000080BD000080B586B000AF78601C4B9B680F
:104810007B6100F079FD38617A681346DB00134450
:10482000DB00FB60FA687B699A4215D900BF00F093
:104830006BFD02463B699342F9D07A69FB68D31A53
:1048400003F58C3303F5A073BB6000BF0C4B9B6872
:10485000BA689A42FAD30FE07A69FB68D31ABB6050
:1048600000BF074B9B68BA689A4205D200F04CFD26
:1048700002463B699342F4D000BF1837BD4680BD65
:1048800010E000E080B582B000AF7860786800F09A
:1048900045FD00BF0837BD4680BD000080B582B031
:1048A00000AF78607B681B68044A934201D100F036
:1048B00019FD00BF0837BD4680BD00BF0010004095
:1048C00080B400AF72B600BFFEE7000080B500AF55
:1048D0000A4B0B4A1A60094B4FF0FF325A60074BE4
:1048E0004FF480729A60054802F038F90346002BB5
:1048F00001D0FFF7E5FF00BF80BD00BFB40200207C
:104900000028004080B584B000AF78607B681B68E9
:10491000134A934220D101F047FB124BDB69114A45
:1049200043F00063D3610F4BDB6903F00063FB606E
:10493000FB680D4B01221A6000220521032000F0C4
:10494000EAFF032001F003F800220521292000F0EE
:10495000E2FF292000F0FBFF00BF1037BD4680BDFD
:1049600000280040001002403C04424280B483B062
:1049700000AF0346FB80FB8803F003039BB2002BD0
:104980000BD1FB880F4AA2FB03125209642101FBE1
:1049900002F29B1A9BB2002B0CD1FB88094AA2FBA6
:1049A0000312D2094FF4C87101FB02F29B1A9BB2A9
:1049B000002B01D1012300E0002318460C37BD462F
:1049C00080BC70471F85EB5180B586B000AF0023D7
:1049D000FB6000237B6100237B82654A3B4607CA5C
:1049E00083E80700634B9B69FB60FB681B04FB606B
:1049F000604BDB69FA681344FB60FB685E4AA2FB0C
:104A000003231B0C7B615D4B1B881A467B69934219
:104A100064D07B699AB2594B1A8040F2B2737B82A0
:104A200016E07B8A1846FFF7A1FF0346002B08D04B
:104A30007B69B3F5B77F10D37B69A3F5B7737B614F
:104A400003E07B69A3F26D137B617B8A01337B8278
:104A50007B69B3F5B67FE4D800E000BF484A7B8AA3
:104A6000938000237B8226E0454B9B881846FFF706
:104A70007DFF0346002B09D07B8A012B06D17B6981
:104A80001C2B1CD97B691D3B7B6111E07B8A183391
:104A90003B4413F8183C1A467B69934211D37B8A36
:104AA00018333B4413F8183C1A467B699B1A7B6108
:104AB0007B8A01337B827B691B2BD5D802E000BF48
:104AC00000E000BF7B8ADBB20133DAB22C4B9A7173
:104AD0007B69DBB20133DAB2294BDA71FB68264A13
:104AE000A2FB0312120C274901FB02F29B1A7B6105
:104AF0007B69254AA2FB0323DB0ADAB2204B1A703A
:104B00007A69214BA3FB0213DB0A4FF4616101FBBD
:104B100003F3D31A1D4AA2FB03235B09DAB2184B35
:104B20005A707B69184AA2FB0312D20A4FF46161E2
:104B300001FB02F29A1A154BA3FB021359090B460B
:104B40001B015B1A9B00D11ACAB20D4B9A700C4B19
:104B50009B880B4A91790A4AD279184600F018F8D6
:104B600003461A46064B1A7200BF1837BD4680BD71
:104B70005CF900080028004007452EC2C80200204A
:104B8000A802002080510100C5B3A29189888888BD
:104B900080B485B000AF0346FB800B467B711346A3
:104BA0003B710023FB737B79022B05D87B790C3397
:104BB0007B71FB88013BFB803B795A1C7B795B0056
:104BC000D1187B795A1C13465B001344164A82FBAA
:104BD00003025210DB17D31ACA18FB881344FA8851
:104BE000920892B21344FA881049A1FB02125209AA
:104BF00092B29B1AFA880D49A1FB0212D20992B215
:104C00001A440B4B83FB021313449910D317C91A90
:104C10000B46DB005B1AD11A0B46FB73FB7B184675
:104C20001437BD4680BC7047676666661F85EB51CA
:104C30009324499280B58AB002AF78600023FB606C
:104C400007F1100300221A605A609A60DA60FFF7D9
:104C5000BBFE0F4B1B781A460D4B5B7819460C4B6D
:104C60009B7807F10C0000930B460A4907F070F897
:104C700007F10C0301930C2300930C23C822962107
:104C80001E20FFF773F900BF2037BD4680BD00BF6F
:104C9000A802002068F9000880B584B002AF7860EF
:104CA0002021084801F067F9074B01930C2300937A
:104CB0000C23C822AA211E20FFF758F900BF08378D
:104CC000BD4680BD0018014080F9000880B500AFE6
:104CD000174B184A1A60164B4FF482725A60144BE5
:104CE00000229A60124B0022DA60114B02221A61F4
:104CF0000F4B01225A610E4B4FF400729A610C4B1C
:104D00001022DA610A4B00221A62094B00225A6211
:104D1000074B00229A62064B0A22DA62044802F02C
:104D200090F80346002B01D0FFF7CAFD00BF80BDFD
:104D3000CC0200200038004080B588B000AF786019
:104D400007F1100300221A605A609A60DA607B68EB
:104D50001B681C4A934231D11B4BDB691A4A43F44E
:104D60008043D361184BDB6903F48043FB60FB682D
:104D7000154B9B69144A43F008039361124B9B69DE
:104D800003F00803BB60BB684FF420433B61022380
:104D90007B610323FB6107F1100319460B4800F008
:104DA00027FF4FF480433B6100237B610023BB61FD
:104DB00007F110031946054800F01AFF00BF20371D
:104DC000BD4680BD0038004000100240000C01408C
:104DD00080B584B000AF184B9B69174A43F00103BC
:104DE0009361154B9B6903F00103BB60BB68124BD9
:104DF000DB69114A43F08053D3610F4BDB6903F049
:104E000080537B607B6800220F216FF0010000F06F
:104E100082FD0A4B5B68FB60FB6823F0E063FB608C
:104E2000FB6843F00073FB60044AFB68536000BFFB
:104E30001037BD4680BD00BF001002400000014099
:104E400080B58EB000AF78600023FB620023BB62A8
:104E5000002387F83330344BDB69334A43F01003C7
:104E6000D361314BDB6903F01003FB60FB6807F192
:104E7000100207F114031146184601F093FC3B6A37
:104E8000FB62FB6A002B03D101F064FC786304E051
:104E900001F060FC03465B007B637B6B234AA2FB53
:104EA00003239B0C013BBB62214B224A1A60204B1F
:104EB00040F2E732DA601E4ABB6A53601C4B0022A4
:104EC0001A611B4B00229A60194B00229A61184804
:104ED00002F088F8034687F8333097F83330002B18
:104EE0001BD1134802F0D6F8034687F8333097F801
:104EF0003330002B11D1362000F029FD7B680F2BB9
:104F000008D800227968362000F005FD0A4A7B683F
:104F1000136002E0012387F8333097F833301846E6
:104F20003837BD4680BD00BF0010024083DE1B4302
:104F300024030020001000401400002080B400AFC3
:104F4000FEE780B400AFFEE780B400AFFEE780B4B8
:104F500000AFFEE780B400AFFEE780B400AF00BF53
:104F6000BD4680BC7047000080B500AF024801F02C
:104F700028FF00BF80BD00BFB402002080B500AF95
:104F8000024802F073FB00BF80BD00BF7003002029
:104F900080B500AF024801F06DFE00BF80BD00BFCC
:104FA000B402002080B500AF024802F0D3F800BF81
:104FB00080BD00BF2403002080B400AF0123184649
:104FC000BD4680BC704780B582B000AF7860396064
:104FD00006F00CF8034616221A604FF0FF3318460D
:104FE0000837BD4680BD80B582B000AF78604FF015
:104FF000FF317868FFF7E7FFFEE780B586B000AFC6
:10500000F860B9607A6000237B610AE0AFF300804A
:105010000146BB685A1CBA60CAB21A707B69013378
:105020007B617A697B689A42F0DB7B6818461837A7
:10503000BD4680BD80B586B000AFF860B9607A60CB
:1050400000237B6109E0BB685A1CBA601B781846D4
:1050500000F0F6F87B6901337B617A697B689A42DC
:10506000F1DB7B6818461837BD4680BD80B483B03D
:1050700000AF78604FF0FF3318460C37BD4680BC58
:10508000704780B483B000AF786039603B684FF4FC
:1050900000525A60002318460C37BD4680BC70474A
:1050A00080B483B000AF7860012318460C37BD464A
:1050B00080BC704780B485B000AFF860B9607A609A
:1050C000002318461437BD4680BC704780B586B0B3
:1050D00000AF7860144A154BD31A7B617B693B6142
:1050E000134B1B68002B02D1114B124A1A60104B54
:1050F0001A687B6813443A699A4207D205F076FF32
:1051000003460C221A604FF0FF3309E0084B1B687E
:10511000FB60074B1A687B681344054A1360FB6801
:1051200018461837BD4680BD00000120000400006D
:105130006C030020181D002080B400AF00BFBD46E6
:1051400080BC704780B500AF114B124A1A60104BFB
:105150004FF4E1325A600E4B00229A600C4B002251
:10516000DA600B4B00221A61094B0C225A61084B82
:1051700000229A61064B0022DA61054802F0A2F98A
:105180000346002B01D0FFF79BFB00BF80BD00BF93
:10519000700300200038014080B588B000AF78600F
:1051A00007F1100300221A605A609A60DA607B6887
:1051B0001B68204A934239D11F4B9B691E4A43F416
:1051C000804393611C4B9B6903F48043FB60FB6845
:1051D000194B9B69184A43F004039361164B9B6972
:1051E00003F00403BB60BB684FF400733B61022310
:1051F0007B610323FB6107F1100319460F4800F0A0
:10520000F7FC4FF480633B6100237B610023BB61AB
:1052100007F110031946094800F0EAFC00220521B5
:10522000252000F078FB252000F091FB00BF2037FF
:10523000BD4680BD0038014000100240000801401A
:1052400080B584B000AF78607B68DBB2FB7307F198
:105250000F0164230122044802F084F97B68184698
:105260001037BD4680BD00BF70030020FFF764FF0C
:105270000B480C490C4A002302E0D458C4500433B4
:10528000C4188C42F9D3094A094C002301E0136089
:105290000432A242FBD305F0AFFEFFF71FFA7047BE
:1052A00000000020F4010020B4160108F4010020E1
:1052B000141D0020FEE7000080B500AF084B1B68FE
:1052C000074A43F010031360032000F019FB0F207E
:1052D000FFF7B6FDFFF77CFD0023184680BD00BF39
:1052E0000020024080B400AF054B1B781A46054BE6
:1052F0001B681344034A136000BFBD4680BC70475F
:1053000018000020B803002080B400AF024B1B68D7
:105310001846BD4680BC7047B803002080B584B0F5
:1053200000AF7860FFF7F0FFB8607B68FB60FB6858
:10533000B3F1FF3F05D00A4B1B781A46FB681344B4
:10534000FB6000BFFFF7E0FF0246BB68D31AFA68B4
:105350009A42F7D800BF00BF1037BD4680BD00BFDE
:105360001800002080B586B000AF78600023FB7580
:1053700000233B610023BB600023FB607B68002BA4
:1053800001D10123CEE07B689B68002B7B689B6A80
:10539000002B09D17B680022DA627B68002283F847
:1053A00024207868FEF76EFE786800F0BDF90346A9
:1053B000FB757B689B6A03F01003002B40F0A9800B
:1053C000FB7D002B40F0A5807B689B6A23F488530B
:1053D00023F0020343F002027B689A627B685A68FA
:1053E0007B681B6851498B420AD17B68DB69B3F546
:1053F000402F02D07B68DB6904E04FF4002301E01A
:105400007B68DB691A437B681B7B5B001343BA68CC
:105410001343BB607B689B68B3F5807F03D07B68D8
:105420009B68012B02D14FF4807300E000233A699E
:1054300013433B617B681B7D012B19D17B681B7B70
:10544000002B09D17B689B69013B5A033B691343DD
:1054500043F400633B610BE07B689B6A43F02002EE
:105460007B689A627B68DB6A43F001027B68DA62E0
:105470007B681B685B6823F469417B681B683A6939
:105480000A435A607B681B689A68294B13407A6804
:105490001268B9680B4393607B689B68B3F5807FA3
:1054A00003D07B689B68012B04D17B681B69013B9F
:1054B0001B05FB607B681B68DB6A23F470017B685B
:1054C0001B68FA680A43DA627B681B689A68194BA2
:1054D0001340BA689A420BD17B680022DA627B687B
:1054E0009B6A23F0030343F001027B689A6218E091
:1054F0007B689B6A23F0120343F010027B689A6278
:105500007B68DB6A43F001027B68DA620123FB758A
:1055100007E07B689B6A43F010027B689A62012374
:10552000FB75FB7D18461837BD4680BD003C014029
:10553000FDF7E1FFFE0E1FFF80B485B000AF78607D
:1055400039600023FB730023BB607B6893F8243031
:10555000012B01D10223DCE07B68012283F82420A7
:105560003B685B68062B1CD87B681B68596B3B68E3
:105570005A6813469B001344053B1F2202FA03F3AB
:10558000DB4319403B6818683B685A6813469B0028
:105590001344053B00FA03F27B681B680A435A6315
:1055A0003CE03B685B680C2B1CD87B681B68196B64
:1055B0003B685A6813469B001344233B1F2202FAA0
:1055C00003F3DB4319403B6818683B685A6813468D
:1055D0009B001344233B00FA03F27B681B680A43D9
:1055E0001A631BE07B681B68D96A3B685A681346DC
:1055F0009B001344413B1F2202FA03F3DB43194093
:105600003B6818683B685A6813469B001344413B4B
:1056100000FA03F27B681B680A43DA623B681B6886
:10562000092B1CD97B681B68D9683B681A6813462C
:105630005B0013441E3B072202FA03F3DB431940CD
:105640003B6898683B681A6813465B0013441E3B2E
:1056500000FA03F27B681B680A43DA6019E07B6892
:105660001B6819693B681A6813465B0013440722DC
:1056700002FA03F3DB4319403B6898683B681A68F9
:1056800013465B00134400FA03F27B681B680A436D
:105690001A613B681B68102B03D03B681B68112BF9
:1056A00032D17B681B681D4A934225D17B681B68F9
:1056B0009B6803F40003002B26D17B681B689A6863
:1056C0007B681B6842F400029A603B681B68102BE1
:1056D0001AD1134B1B68134AA2FB03239A0C1346DF
:1056E0009B0013445B00BB6002E0BB68013BBB60F6
:1056F000BB68002BF9D107E07B689B6A43F020026E
:105700007B689A620123FB737B68002283F8242064
:10571000FB7B18461437BD4680BC7047002401400F
:105720001000002083DE1B4380B584B000AF78609A
:105730000023FB607B681B689B6803F00103012B5F
:105740002ED17B681B689A687B681B6822F0010277
:105750009A60FFF7D9FDF8601BE0FFF7D5FD024620
:10576000FB68D31A022B14D97B681B689B6803F073
:105770000103012B0DD17B689B6A43F010027B680B
:105780009A627B68DB6A43F001027B68DA6201237C
:1057900007E07B681B689B6803F00103012BDCD0EA
:1057A000002318461037BD4680BD000080B485B088
:1057B00000AF78607B6803F00703FB600C4BDB688D
:1057C000BB60BA684FF6FF031340BB60FB681A0268
:1057D000BB68134343F0BF6343F40033BB60044A28
:1057E000BB68D36000BF1437BD4680BC704700BFA4
:1057F00000ED00E080B400AF044BDB681B0A03F04F
:1058000007031846BD4680BC704700BF00ED00E0AE
:1058100080B483B000AF0346FB7197F90730002BCB
:105820000BDBFB7903F01F02064997F907305B0990
:10583000012000FA02F241F8232000BF0C37BD46D8
:1058400080BC704700E100E080B483B000AF034645
:105850003960FB7197F90730002B0ADB3B68DAB23D
:105860000C4997F907301201D2B20B4483F8002398
:105870000AE03B68DAB20849FB7903F00F03043B06
:105880001201D2B20B441A7600BF0C37BD4680BC61
:10589000704700BF00E100E000ED00E080B489B097
:1058A00000AFF860B9607A60FB6803F00703FB6142
:1058B000FB69C3F10703042B28BF0423BB61FB6909
:1058C0000433062B02D9FB69033B00E000237B6114
:1058D0004FF0FF32BB6902FA03F3DA43BB681A40A8
:1058E0007B699A404FF0FF317B6901FA03F3D9439A
:1058F0007B680B40134318462437BD4680BC704775
:1059000080B582B000AF78607868FFF74FFF00BFC6
:105910000837BD4680BD80B586B000AF0346B9608C
:105920007A60FB7300237B61FFF764FF78617A681C
:10593000B9687869FFF7B2FF024697F90F30114650
:105940001846FFF781FF00BF1837BD4680BD80B500
:1059500082B000AF0346FB7197F907301846FFF796
:1059600057FF00BF0837BD4680BD80B485B000AF8B
:1059700078600023FB737B6893F82130DBB2022B45
:1059800008D07B6804229A637B68002283F8202079
:10599000012320E07B681B681A687B681B6822F083
:1059A0000E021A607B681B681A687B681B6822F00D
:1059B00001021A607B681A6C7B68DB6B012101FABB
:1059C00002F25A607B68012283F821207B68002262
:1059D00083F82020FB7B18461437BD4680BC7047F7
:1059E00080B584B000AF78600023FB737B6893F8C8
:1059F0002130DBB2022B05D07B6804229A6301239D
:105A0000FB73D6E07B681B681A687B681B6822F012
:105A10000E021A607B681B681A687B681B6822F09C
:105A200001021A607B681B681A46644B9A4258D977
:105A30007B681B68624A93424FD07B681B68614A4F
:105A4000934248D07B681B685F4A934240D07B6892
:105A50001B685E4A934238D07B681B685C4A93425D
:105A600030D07B681B685B4A934228D07B681B68F8
:105A7000524A934220D07B681B68574A934219D000
:105A80007B681B68554A934212D07B681B68544A56
:105A900093420AD07B681B68524A934202D14FF46A
:105AA00080531BE04FF4803318E04FF4807315E00F
:105AB000102313E0012311E04FF080730EE04FF448
:105AC00080130BE04FF4803308E04FF4805305E07F
:105AD0004FF4807302E0102300E00123424A536038
