:020000040800F2
:1000000000000120C1170008491400084F1400081F
:10001000551400085B14000861140008000000007B
:10002000000000000000000000000000671400084D
:1000300073140008000000007F1400088B140008EF
:10004000091800080918000809180008091800080C
:1000500009180008091800080918000809180008FC
:1000600009180008091800080918000809180008EC
:1000700009180008091800080918000809180008DC
:1000800009180008091800080918000809180008CC
:1000900009180008091800080918000809180008BC
:1000A00009180008091800080918000809180008AC
:1000B000091800080918000809180008091800089C
:1000C000091800080918000809180008091800088C
:1000D00009180008991400080918000809180008F0
:1000E000091800080918000809180008091800086C
:1000F000091800080918000809180008091800085C
:10010000091800080918000809180008091800084B
:10011000091800080918000809180008091800083B
:10012000091800080918000809180008091800082B
:1001300000000000000000000000000000000000BF
:1001400000000000000000000000000000000000AF
:10015000000000000000000000000000000000009F
:10016000000000000000000000000000000000008F
:10017000000000000000000000000000000000007F
:10018000000000000000000000000000000000006F
:10019000000000000000000000000000000000005F
:1001A000000000000000000000000000000000004F
:1001B000000000000000000000000000000000003F
:1001C000000000000000000000000000000000002F
:1001D000000000000000000000000000000000001F
:0401E0005FF8E0F1F3
:1001E80010B5054C237833B9044B13B10448AFF369
:1001F80000800123237010BDE001002000000000F2
:100208004486000808B5034B1BB103490348AFF304
:10021800008008BD00000000E401002044860008BA
:10022800034613F8012B002AFBD1181A013870472E
:1002380081F0004102E000BF83F0004330B54FEA8F
:1002480041044FEA430594EA050F08BF90EA020FFC
:100258001FBF54EA000C55EA020C7FEA645C7FEA8F
:10026800655C00F0E2804FEA5454D4EB5555B8BFB2
:100278006D420CDD2C4480EA020281EA030382EA23
:10028800000083EA010180EA020281EA0303362DB5
:1002980088BF30BD11F0004F4FEA01314FF4801C88
:1002A8004CEA113102D0404261EB410113F0004F9A
:1002B8004FEA03334CEA133302D0524263EB430351
:1002C80094EA050F00F0A780A4F10104D5F1200EEF
:1002D8000DDB02FA0EFC22FA05F2801841F100014A
:1002E80003FA0EF2801843FA05F359410EE0A5F11E
:1002F80020050EF1200E012A03FA0EFC28BF4CF04F
:10030800020C43FA05F3C01851EBE37101F0004504
:1003180007D54FF0000EDCF1000C7EEB00006EEB11
:100328000101B1F5801F1BD3B1F5001F0CD349089B
:100338005FEA30004FEA3C0C04F101044FEA4452F2
:1003480012F5800F80F09A80BCF1004F08BF5FEA79
:10035800500C50F1000041EB045141EA050130BD59
:100368005FEA4C0C404141EB0101013C28BFB1F56B
:10037800801FE9D291F0000F04BF01460020B1FAB6
:1003880081F308BF2033A3F10B03B3F120020CDA89
:100398000C3208DD02F1140CC2F10C0201FA0CF067
:1003A80021FA02F10CE002F11402D8BFC2F1200CCC
:1003B80001FA02F120FA0CFCDCBF41EA0C01904082
:1003C800E41AA2BF01EB0451294330BD6FEA0404CB
:1003D8001F3C1CDA0C340EDC04F11404C4F12002B6
:1003E80020FA04F001FA02F340EA030021FA04F3C8
:1003F80045EA030130BDC4F10C04C4F1200220FA1F
:1004080002F001FA04F340EA0300294630BD21FA5C
:1004180004F0294630BD94F0000F83F4801306BF22
:1004280081F480110134013D4EE77FEA645C18BF16
:100438007FEA655C29D094EA050F08BF90EA020FAD
:1004480005D054EA000C04BF1946104630BD91EAA5
:10045800030F1EBF0021002030BD5FEA545C05D1A8
:100468004000494128BF41F0004130BD14F58004E7
:100478003CBF01F5801130BD01F0004545F0FE415B
:1004880041F470014FF0000030BD7FEA645C1ABF90
:10049800194610467FEA655C1CBF0B46024650EAC7
:1004A800013406BF52EA033591EA030F41F40021F3
:1004B80030BD00BF90F0000F04BF0021704730B579
:1004C8004FF4806404F132044FF000054FF000014E
:1004D80050E700BF90F0000F04BF0021704730B50F
:1004E8004FF4806404F1320410F0004548BF4042E4
:1004F8004FF000013EE700BF42004FEAE2014FEA39
:1005080031014FEA02701FBF12F07F4393F07F4F13
:1005180081F06051704732F07F4208BF704793F016
:100528007F4F04BF41F40021704730B54FF4607429
:1005380001F0004521F000411CE700BF50EA01022C
:1005480008BF704730B54FF000050AE050EA0102D5
:1005580008BF704730B511F0004502D5404261EB45
:1005680041014FF4806404F132045FEA915C3FF486
:10057800D8AE4FF003025FEADC0C18BF03325FEA23
:10058800DC0C18BF033202EBDC02C2F1200300FAD4
:1005980003FC20FA02F001FA03FE40EA0E0021FAF9
:1005A80002F11444BDE600BF70B54FF0FF0C4CF4E7
:1005B800E06C1CEA11541DBF1CEA135594EA0C0F99
:1005C80095EA0C0F00F0DEF82C4481EA030621EAD4
:1005D8004C5123EA4C5350EA013518BF52EA03350F
:1005E80041F4801143F4801338D0A0FB02CE4FF0C1
:1005F8000005E1FB02E506F00042E0FB03E54FF0F1
:100608000006E1FB03569CF0000F18BF4EF0010EE8
:10061800A4F1FF04B6F5007F64F5407404D25FEAE4
:100628004E0E6D4146EB060642EAC62141EA555197
:100638004FEAC52040EA5E504FEACE2EB4F1FD0CD9
:1006480088BFBCF5E06F1ED8BEF1004F08BF5FEA57
:10065800500E50F1000041EB045170BD06F0004609
:1006680046EA010140EA020081EA0301B4EB5C04B6
:10067800C2BFD4EB0C0541EA045170BD41F48011AE
:100688004FF0000E013C00F3AB8014F1360FDEBFD3
:10069800002001F0004170BDC4F10004203C35DAAF
:1006A8000C341BDC04F11404C4F1200500FA05F332
:1006B80020FA04F001FA05F240EA020001F00042D3
:1006C80021F0004110EBD37021FA04F642EB060149
:1006D8005EEA430E08BF20EAD37070BDC4F10C0473
:1006E800C4F1200500FA04F320FA05F001FA04F237
:1006F80040EA020001F0004110EBD37041F1000123
:100708005EEA430E08BF20EAD37070BDC4F120052D
:1007180000FA05F24EEA020E20FA04F301FA05F295
:1007280043EA020321FA04F001F0004121FA04F23D
:1007380020EA020000EBD3705EEA430E08BF20EA0D
:10074800D37070BD94F0000F0FD101F00046400047
:1007580041EB010111F4801F08BF013CF7D041EAC9
:10076800060195F0000F18BF704703F000465200CD
:1007780043EB030313F4801F08BF013DF7D043EA9E
:100788000603704794EA0C0F0CEA135518BF95EA54
:100798000C0F0CD050EA410618BF52EA4306D1D1DB
:1007A80081EA030101F000414FF0000070BD50EAFA
:1007B800410606BF1046194652EA430619D094EA84
:1007C8000C0F02D150EA013613D195EA0C0F05D16E
:1007D80052EA03361CBF104619460AD181EA0301C2
:1007E80001F0004141F0FE4141F470014FF000007A
:1007F80070BD41F0FE4141F4780170BD70B54FF015
:10080800FF0C4CF4E06C1CEA11541DBF1CEA135594
:1008180094EA0C0F95EA0C0F00F0A7F8A4EB050476
:1008280081EA030E52EA03354FEA013100F088806D
:100838004FEA03334FF0805545EA131343EA126336
:100848004FEA022245EA111545EA10654FEA0026EB
:100858000EF000419D4208BF964244F1FD0404F5A4
:10086800407402D25B084FEA3202B61A65EB030500
:100878005B084FEA32024FF480104FF4002CB6EBBD
:10088800020E75EB030E22BFB61A754640EA0C003D
:100898005B084FEA3202B6EB020E75EB030E22BF7D
:1008A800B61A754640EA5C005B084FEA3202B6EBBE
:1008B800020E75EB030E22BFB61A754640EA9C007D
:1008C8005B084FEA3202B6EB020E75EB030E22BF4D
:1008D800B61A754640EADC0055EA060E18D04FEA0B
:1008E800051545EA16754FEA06164FEAC30343EAAB
:1008F80052734FEAC2025FEA1C1CC0D111F4801F78
:100908000BD141EA00014FF000004FF0004CB6E770
:1009180011F4801F04BF01430020B4F1FD0C88BF0F
:10092800BCF5E06F3FF6AFAEB5EB030C04BFB6EB1A
:10093800020C5FEA500C50F1000041EB045170BD0D
:100948000EF0004E4EEA113114EB5C04C2BFD4EB3A
:100958000C0541EA045170BD41F480114FF0000EBE
:10096800013C90E645EA060E8DE60CEA135594EA3A
:100978000C0F08BF95EA0C0F3FF43BAF94EA0C0F3D
:100988000AD150EA01347FF434AF95EA0C0F7FF4B2
:1009980025AF104619462CE795EA0C0F06D152EA06
:1009A80003353FF4FDAE1046194622E750EA4106EA
:1009B80018BF52EA43067FF4C5AE50EA41047FF4FB
:1009C8000DAF52EA43057FF4EBAE12E74FF0FF3C60
:1009D80006E000BF4FF0010C02E000BF4FF0010C31
:1009E8004DF804CD4FEA410C7FEA6C5C4FEA430CAA
:1009F80018BF7FEA6C5C1BD001B050EA410C0CBFF9
:100A080052EA430C91EA030F02BF90EA020F00205A
:100A1800704710F1000F91EA030F58BF994208BFC1
:100A280090422CBFD8176FEAE37040F0010070477E
:100A38004FEA410C7FEA6C5C02D150EA013C07D1D5
:100A48004FEA430C7FEA6C5CD6D152EA033CD3D020
:100A58005DF8040B704700BF8446104662468C461A
:100A68001946634600E000BF01B5FFF7B7FF00284D
:100A780048BF10F1000F01BD4DF808EDFFF7F4FF76
:100A88000CBF012000205DF808FB00BF4DF808ED01
:100A9800FFF7EAFF34BF012000205DF808FB00BF24
:100AA8004DF808EDFFF7E0FF94BF012000205DF846
:100AB80008FB00BF4DF808EDFFF7CEFF94BF0120FB
:100AC80000205DF808FB00BF4DF808EDFFF7C4FFF4
:100AD80034BF012000205DF808FB00BF4FEA410C3D
:100AE8007FEA6C5C02D150EA013C0AD14FEA430C20
:100AF8007FEA6C5C02D152EA033C02D14FF000005D
:100B080070474FF0010070474FEA410212F500129A
:100B180015D211D56FF47873B3EB625212D94FEA3C
:100B2800C12343F0004343EA505311F0004F23FA26
:100B380002F018BF404270474FF00000704750EA7B
:100B4800013005D111F0004008BF6FF00040704738
:100B58004FF00000704700BF4A0011D212F5001292
:100B680011D20DD56FF47873B3EB62520ED44FEAFD
:100B7800C12343F0004343EA505323FA02F070477D
:100B88004FF00000704750EA013002D14FF0FF30BB
:100B980070474FF0000070474FEA4102B2F1E0435E
:100BA80024BFB3F5001CDCF1FE5C0DD901F0004C4C
:100BB8004FEAC0024CEA5070B2F1004F40EB83009C
:100BC80008BF20F00100704711F0804F21D113F1C8
:100BD8003872BCBF01F00040704741F480114FEA01
:100BE8005252C2F11802C2F1200C10FA0CF320FA8A
:100BF80002F018BF40F001004FEAC1234FEAD323A7
:100C080003FA0CFC40EA0C0023FA02F34FEA430310
:100C1800CCE77FEA625307D150EA01331EBF4FF099
:100C2800FE4040F44000704701F0004040F0FE40B4
:100C380040F40000704700BF38B505460C46002256
:100C4800002328462146FFF721FF28B928462146D8
:100C5800BDE8384000F00AB8284604F1004100F029
:100C680005F8404261EB410138BD00BFD0B5002214
:100C78000B4B06460F46FFF797FCFFF76DFF044640
:100C8800FFF718FC0022074BFFF78EFC02460B46C5
:100C980030463946FFF7D0FAFFF75EFF2146D0BD50
:100CA8000000F03D0000F04180B588B000AFF8606A
:100CB800B9607A600023BB83FB68BB61BB687B615A
:100CC8000023FB8329E07B6901331B789BB21B025D
:100CD8007B827B691B789AB27B8A13437B827B6910
:100CE80002337B61BB8B5A1CBA831946134A7B8A31
:100CF80022F81130BB8BB3F5806F0BD10023BB8377
:100D08004FF480620D49B86900F094F8BB6903F5A7
:100D18000063BB61FB8B0233FB83FB8B7A689A42CF
:100D2800D1D8BB8B002B05D0BB8B1A460349B869B9
:100D380000F080F800BF2037BD4680BD00020020CB
:100D480080B584B000AF78607B681A680C4B13409C
:100D5800B3F1005F0FD17B6804331B681A46094B57
:100D68001A607B681B68FB60FB6883F3088800BF18
:100D7800044B1B68984700BF1037BD4680BD00BFB5
:100D88000000FE2FFC01002080B483B000AF786023
:100D98007B681B889BB218460C37BD4680BC7047E1
:100DA80090B587B000AFF860B9601346FB800023A8
:100DB800FB820EE0FB8A5B00BA68D418F868FFF77C
:100DC800E3FF03462380FB680233FB60FB8A0133A1
:100DD800FB82FA8AFB889A42ECD300BF00BF1C371B
:100DE800BD4690BDB0B586B000AFF860B960134697
:100DF800FB800023FB8214E0FB8A5B00BA68134483
:100E08001B889BB200221C46154622462B46F968D1
:100E1800012000F0CDFFFB680233FB60FB8A013341
:100E2800FB82FA8AFB889A42E6D300BF00BF1837D4
:100E3800BD46B0BD80B58EB000AFF860B96013464E
:100E4800FB80FB68B3F1006FC0F0A180FB68B3F1D1
:100E5800205F80F09C8001F01BF8FB6803F1784369
:100E6800BB62BB6ADB0A7B63BB6AC3F30A035B082A
:100E78007B867B8EC3F580633B86FA883B8E9A42DD
:100E880001D8FB883B867B6B03F58033DB024FF48C
:100E9800806241491846FFF783FF0023FB850CE079
:100EA8007A8EFB8D13443C4A32F813304FF6FF72AA
:100EB800934207D1FB8D0133FB85FA8D3B8E9A4215
:100EC800EED300E000BFFA8D3B8E9A4232D2002367
:100ED800BB610123FB6101237B627B6B03F58033DC
:100EE800DB023B6207F1140207F1180311461846AA
:100EF80001F0B6F80023FB850DE0FB8D5B00BA68B6
:100F08001A44F98D7B8E0B441188234A22F813105A
:100F1800FB8D0133FB85FA8D3B8E9A42EDD37B6BBB
:100F280003F58033DB024FF480621B491846FFF754
:100F380059FF05E03B8E1A46B968F868FFF752FF7B
:100F4800FA883B8E9A421ED07B6B01337B63002369
:100F58007B863B8E5B00BA681344BB603B8E5B00AC
:100F68001A46FB681344FB60FA883B8ED31AFB8051
:100F7800FB88B3F5806F03D94FF480633B8682E723
:100F8800FB883B867FE700BF00F0A8FF00E000BFBA
:100F98003837BD4680BD00BF000A002080B58EB03E
:100FA80000AF07F11C0300221A605A609A60DA60E9
:100FB8001A615A619A613B4600221A605A609A6027
:100FC800DA601A615A619A61304B4FF020421A6018
:100FD8002E4B2F4A5A602D4B06229A602B4B00222B
:100FE800DA602A4B00221A61284B10225A61274BDB
:100FF80000229A61254B0022DA61244B00221A62F2
:10100800224B00225A62214B4FF480529A621F4BA6
:101018000022DA621D4B4FF480421A631B4B0022F8
:101028005A631A4B00229A630623FB610F233B6223
:101038001A237B620023BB621023FB6211233B63EC
:1010480000237B6303233B600F237B600623BB6085
:101058000023FB6010233B6111237B610023BB61EC
:101068003A4607F11C031946084801F05DFE03469D
:10107800002B01D000F0BDF9064BDB69054A43F4AB
:101088008063D36100BF3837BD4680BD00120020A1
:10109800040100A00000014080B586B000AF07F150
:1010A800080300221A605A609A60DA601F4B1B68B6
:1010B800002B36D11D4B01221A601D4B5B691C4A5F
:1010C80043F4807353611A4B5B6903F480737B604C
:1010D8007B6841F20103BB600223FB6003237B6151
:1010E80007F108031946134801F062F84FF68073B8
:1010F800BB600223FB6003237B6107F108031946E9
:101108000D4801F055F84CF23373BB600223FB60C5
:1011180003237B6107F108031946084801F048F8E2
:1011280000E000BF1837BD4680BD00BF4812002050
:101138000010024000200140001801400014014046
:1011480080B582B000AF7860FFF7A6FF00BF083710
:10115800BD4680BD80B58AB000AF07F118030022F4
:101168001A605A609A60DA60444B9B69434A43F0BC
:1011780040039361414B9B6903F040037B617B69AA
:101188003E4B9B693D4A43F0100393613B4B9B697F
:1011980003F010033B613B69384B9B69374A43F0C6
:1011A80004039361354B9B6903F00403FB60FB6800
:1011B800324B9B69314A43F4807393612F4B9B698F
:1011C80003F48073BB60BB682C4B9B692B4A43F0CC
:1011D80020039361294B9B6903F020037B607B68A4
:1011E800264B9B69254A43F008039361234B9B696F
:1011F80003F008033B603B6800222021204801F0EF
:101208006BF9002220211F4801F066F91823BB6101
:101218000023FB6101233B6207F1180319461848B4
:1012280000F0C6FF2023BB610123FB6100233B6262
:1012380003237B6207F118031946114800F0B8FF31
:101248000123BB610023FB6102233B6207F1180302
:1012580019460D4800F0ACFF2023BB610123FB6158
:1012680000233B6203237B6207F1180319460548F4
:1012780000F09EFF00BF2837BD4680BD0010024029
:1012880000180140000C014000080140B0B592B0C0
:1012980000AF00237B64304B07F120041D460FCDBF
:1012A8000FC42B6823700023A7F842300023A7F847
:1012B800403000F0A7FA00F061F8FFF74BFF00F0AC
:1012C800B7F9FFF76BFE254B1B68002B30D0B7F83A
:1012D8004220224B1B689A4226D1204B1B68A7F854
:1012E80040300023A7F842301C4B00221A601C48EB
:1012F80003F0DCFBB7F8403019461A4803F050FBFE
:10130800B7F840301A4618491848FFF7CDFC184876
:1013180003F0CCFB0A2000F0D7FA1448FFF710FDC1
:10132800144803F0C3FB03E00C4B1B68A7F84230DA
:101338000A2000F0C9FA7B6C01337B647B6CC72BF5
:10134800C1DDB7F84230002BBDD10B4803F0AEFB2E
:1013580000237B64B7E700BF98860008501200207E
:10136800608600086C8600085412002000000108FE
:1013780080860008888600089086000880B590B0AE
:1013880000AF07F1180328220021184602F092FC4A
:101398003B1D00221A605A609A60DA601A610223C3
:1013A800BB610123BB621023FB6200237B6307F14F
:1013B8001803184601F0A8F80346002B01D000F0E6
:1013C80018F80F237B600023BB600023FB60002319
:1013D8003B6100237B613B1D0021184601F016FB91
:1013E8000346002B01D000F004F800BF4037BD468B
:1013F80080BD80B400AF72B600BFFEE780B483B092
:1014080000AF0E4B9B690D4A43F0010393610B4BF0
:101418009B6903F001037B607B68084BDB69074A23
:1014280043F08053D361054BDB6903F080533B6085
:101438003B6800BF0C37BD4680BC704700100240B7
:1014480080B400AFFEE780B400AFFEE780B400AF21
:10145800FEE780B400AFFEE780B400AFFEE780B4DB
:1014680000AF00BFBD4680BC704780B400AF00BF6E
:10147800BD4680BC704780B400AF00BFBD4680BC8D
:10148800704780B500AF00F003FA00BF80BD0000D0
:1014980080B500AF024801F08DFD00BF80BD00BFE0
:1014A80058EE002080B400AF01231846BD4680BC2A
:1014B800704780B582B000AF7860396002F0D0FB29
:1014C800034616221A604FF0FF3318460837BD4608
:1014D80080BD80B582B000AF78604FF0FF3178688A
:1014E800FFF7E7FFFEE780B586B000AFF860B960A8
:1014F8007A6000237B610AE0AFF300800146BB6895
:101508005A1CBA60CAB21A707B6901337B617A6966
:101518007B689A42F0DB7B6818461837BD4680BD69
:1015280080B586B000AFF860B9607A6000237B614F
:1015380009E0BB685A1CBA601B78184600F0FCF832
:101548007B6901337B617A697B689A42F1DB7B684E
:1015580018461837BD4680BD80B483B000AF7860A8
:101568004FF0FF3318460C37BD4680BC704780B437
:1015780083B000AF786039603B684FF400525A601E
:10158800002318460C37BD4680BC704780B483B032
:1015980000AF7860012318460C37BD4680BC704701
:1015A80080B485B000AFF860B9607A60002318464F
:1015B8001437BD4680BC704780B586B000AF7860F0
:1015C800144A154BD31A7B617B693B61134B1B682B
:1015D800002B02D1114B124A1A60104B1A687B6813
:1015E80013443A699A4207D202F03AFB03460C22A6
:1015F8001A604FF0FF3309E0084B1B68FB60074B8C
:101608001A687B681344054A1360FB681846183744
:10161800BD4680BD00000120000400004C120020DF
:10162800D8EE002080B400AF00BFBD4680BC704734
:1016380080B500AF134B144A1A60124B4FF4E132D5
:101648005A60104B00229A600E4B0022DA600D4B54
:1016580000221A610B4B0C225A610A4B00229A6134
:10166800084B0022DA61074801F0ABFB0346002B68
:1016780001D0FFF7BEFE01220449024801F074FCC4
:1016880000BF80BD58EE00200038014054EE002015
:1016980080B588B000AF786007F1100300221A60A7
:1016A8005A609A60DA607B681B68204A934239D195
:1016B8001F4B9B691E4A43F4804393611C4B9B69F3
:1016C80003F48043FB60FB68194B9B69184A43F09D
:1016D80004039361164B9B6903F00403BB60BB686A
:1016E8004FF400733B6102237B610323FB6107F125
:1016F800100319460F4800F05BFD4FF480633B610F
:1017080000237B610023BB6107F1100319460948D8
:1017180000F04EFD00220021252000F0D0F9252000
:1017280000F0E9F900BF2037BD4680BD0038014010
:10173800001002400008014080B584B000AF786016
:101748007B68DBB2FB7307F10F01642301220448B5
:1017580001F087FB7B6818461037BD4680BD00BF87
:1017680058EE002080B582B000AF78607B680E4AE2
:10177800934214D10D4B1B68B3F55C4F0AD20B4B47
:101788001B680B4A11780B4AD154084B1B6801336C
:10179800064A136001220649034801F0E5FB00BF31
:1017A8000837BD4680BD00BF58EE0020501200200B
:1017B80054EE002054120020FFF734FF0B480C4968
:1017C8000C4A002302E0D458C4500433C4188C4295
:1017D800F9D3094A094C002301E013600432A242FC
:1017E800FBD302F043FAFFF751FD704700000020D9
:1017F800E00100208C8B0008E0010020D8EE0020DA
:10180800FEE7000080B500AF084B1B68074A43F0AD
:1018180010031360032000F047F90F2000F008F8C8
:10182800FFF7ECFD0023184680BD00BF00200240F2
:1018380080B582B000AF7860124B1A68124B1B78E3
:1018480019464FF47A73B3FBF1F3B2FBF3F318467E
:1018580000F05FF90346002B01D001230EE07B68FE
:101868000F2B0AD8002279684FF0FF3000F027F9D3
:10187800064A7B681360002300E0012318460837F6
:10188800BD4680BD000000200800002004000020A4
:1018980080B400AF054B1B781A46054B1B681344F0
:1018A800034A136000BFBD4680BC70470800002093
:1018B800A0EE002080B400AF024B1B681846BD465E
:1018C80080BC7047A0EE002080B584B000AF78607F
:1018D800FFF7F0FFB8607B68FB60FB68B3F1FF3F80
:1018E80005D00A4B1B781A46FB681344FB6000BFFF
:1018F800FFF7E0FF0246BB68D31AFA689A42F7D8A6
:1019080000BF00BF1037BD4680BD00BF08000020E3
:1019180080B485B000AF78607B6803F00703FB6094
:101928000C4BDB68BB60BA684FF6FF031340BB6023
:10193800FB681A02BB68134343F0BF6343F40033E8
:10194800BB60044ABB68D36000BF1437BD4680BC87
:10195800704700BF00ED00E080B400AF044BDB68C7
:101968001B0A03F007031846BD4680BC704700BF3A
:1019780000ED00E080B483B000AF0346FB7197F937
:101988000730002B0BDBFB7903F01F02064997F9A0
:1019980007305B09012000FA02F241F8232000BF5A
:1019A8000C37BD4680BC704700E100E080B483B0CE
:1019B80000AF03463960FB7197F90730002B0ADB4B
:1019C8003B68DAB20C4997F907301201D2B20B44DE
:1019D80083F800230AE03B68DAB20849FB7903F090
:1019E8000F03043B1201D2B20B441A7600BF0C3726
:1019F800BD4680BC704700BF00E100E000ED00E09C
:101A080080B489B000AFF860B9607A60FB6803F011
:101A18000703FB61FB69C3F10703042B28BF0423F9
:101A2800BB61FB690433062B02D9FB69033B00E069
:101A380000237B614FF0FF32BB6902FA03F3DA43FC
:101A4800BB681A407B699A404FF0FF317B6901FA05
:101A580003F3D9437B680B40134318462437BD462C
:101A680080BC704780B582B000AF78607B68013B6E
:101A7800B3F1807F01D301230FE00A4A7B68013B61
:101A880053600F214FF0FF30FFF790FF054B002206
:101A98009A60044B07221A60002318460837BD468F
:101AA80080BD00BF10E000E080B582B000AF786074
:101AB8007868FFF72DFF00BF0837BD4680BD80B5A9
:101AC80086B000AF0346B9607A60FB7300237B6180
:101AD800FFF742FF78617A68B9687869FFF790FF85
:101AE800024697F90F3011461846FFF75FFF00BF0F
:101AF8001837BD4680BD80B582B000AF0346FB7184
:101B080097F907301846FFF735FF00BF0837BD467D
:101B180080BD80B582B000AF78607868FFF7A2FF1B
:101B2800034618460837BD4680BD80B485B000AF6F
:101B380078600023FB737B6893F82130DBB2022BBB
:101B480008D07B6804229A637B68002283F82020EF
:101B5800012320E07B681B681A687B681B6822F0F9
:101B68000E021A607B681B681A687B681B6822F083
:101B780001021A607B681A6C7B68DB6B012101FA31
:101B880002F25A607B68012283F821207B680022D8
:101B980083F82020FB7B18461437BD4680BC70476D
:101BA80080B584B000AF78600023FB737B6893F83E
:101BB8002130DBB2022B05D07B6804229A63012313
:101BC800FB73D6E07B681B681A687B681B6822F089
:101BD8000E021A607B681B681A687B681B6822F013
:101BE80001021A607B681B681A46644B9A4258D9EE
:101BF8007B681B68624A93424FD07B681B68614AC6
:101C0800934248D07B681B685F4A934240D07B6808
:101C18001B685E4A934238D07B681B685C4A9342D3
:101C280030D07B681B685B4A934228D07B681B686E
:101C3800524A934220D07B681B68574A934219D076
:101C48007B681B68554A934212D07B681B68544ACC
:101C580093420AD07B681B68524A934202D14FF4E0
:101C680080531BE04FF4803318E04FF4807315E085
:101C7800102313E0012311E04FF080730EE04FF4BE
:101C880080130BE04FF4803308E04FF4805305E0F5
:101C98004FF4807302E0102300E00123424A5360AE
:101CA80057E07B681B68364A93424FD07B681B68B5
:101CB800344A934248D07B681B68334A934240D0E9
:101CC8007B681B68314A934238D07B681B68304A6E
:101CD800934230D07B681B682E4A934228D07B6899
:101CE8001B68264A934220D07B681B682A4A934285
:101CF80019D07B681B68294A934212D07B681B68FD
:101D0800274A93420AD07B681B68264A934202D12D
:101D18004FF480531BE04FF4803318E04FF4807386
:101D280015E0102313E0012311E04FF080730EE05B
:101D38004FF480130BE04FF4803308E04FF48053E6
:101D480005E04FF4807302E0102300E00123174AF6
:101D580053607B68012283F821207B68002283F886
:101D680020207B685B6B002B03D07B685B6B7868FB
:101D78009847FB7B18461037BD4680BD800002405F
:101D8800080002401C0002403000024044000240AB
:101D9800580002406C000240080402401C04024043
:101DA80030040240440402400004024000000240A3
:101DB800F0B587B000AFF860B960C7E90023012328
:101DC800FB750023BB7500237B752F4B1B7E012BF6
:101DD80001D1022354E02C4B01221A764CF25030E8
:101DE80000F0A8F80346FB75FB7D002B44D1FB6887
:101DF800012B02D101237B7507E0FB68022B02D17E
:101E080002237B7501E004237B750023BB752DE05D
:101E1800BB7D5A00BB6802EB030CBB7D1901D7E9F7
:101E28000023C1F12006A1F1200022FA01F403FAEF
:101E380006F6344323FA00F0044323FA01F5A3B26B
:101E48001946604600F05AF84CF2503000F072F82B
:101E58000346FB750D4B1B690C4A23F00103136104
:101E6800FB7D002B07D1BB7D0133BB75BA7D7B7D24
:101E78009A42CDD300E000BF034B00221A76FB7DC7
:101E880018461C37BD46F0BDA8EE002000200240D1
:101E980080B483B000AF0023FB710D4B1B6903F0C6
:101EA8008003002B0DD00A4B0A4A5A60084B0A4A95
:101EB8005A60074B1B6903F08003002B01D00123F4
:101EC800FB71FB7918460C37BD4680BC704700BFD4
:101ED8000020024023016745AB89EFCD80B400AFF5
:101EE800054B1B69044A43F080031361002318461D
:101EF800BD4680BC704700BF0020024080B483B05C
:101F080000AF78600B467B80084B0022DA61084BF3
:101F18001B69074A43F0010313617B687A881A80BA
:101F280000BF0C37BD4680BC704700BFA8EE00203C
:101F38000020024080B584B000AF7860FFF7BAFC9B
:101F4800F86010E07B68B3F1FF3F0CD07B68002B92
:101F580007D0FFF7AFFC0246FB68D31A7A689A42AB
:101F680001D2032325E0154BDB6803F00103002BA6
:101F7800E8D1124BDB6803F02003002B02D00F4B93
:101F88002022DA600D4BDB6803F01003002B0BD125
:101F98000A4BDB6903F00103002B05D1074BDB6813
:101FA80003F00403002B03D000F00AF8012300E03B
:101FB800002318461037BD4680BD00BF00200240F0
:101FC80080B483B000AF00237B60234BDB6803F051
:101FD8001003002B09D0214BDB6943F002031F4A91
:101FE800D3617B6843F010037B601B4BDB6803F015
:101FF8000403002B09D0194BDB6943F00103174A8E
:10200800D3617B6843F004037B60134BDB6903F007
:102018000103002B0BD0114BDB6943F004030F4A7B
:10202800D3610D4BDB690C4A23F00103D3617B6854
:1020380040F20112934206D1074BDB69064A23F0AE
:102048000103D36102E0044A7B68D36000BF0C3708
:10205800BD4680BC704700BF00200240A8EE0020AB
:1020680080B584B000AF786039600123FB7300232A
:10207800BB602F4B1B7E012B01D1022353E02C4B5D
:1020880001221A767B681B68022B16D14CF250305D
:10209800FFF750FF0346002B41D1012000F04CF818
:1020A8004CF25030FFF746FF0346FB73214B1B6988
:1020B800204A23F00403136131E04CF25030FFF75B
:1020C80039FF0346002B2AD13B684FF0FF321A60D4
:1020D8007B689B68BB6019E0B86800F049F84CF26F
:1020E8005030FFF727FF0346FB73124B1B69114A59
:1020F80023F002031361FB7B002B03D03B68BA6813
:102108001A600CE0BB6803F50063BB607B68DB68A2
:10211800DA027B689B681344BA689A42DCD3044BA2
:1021280000221A76FB7B18461037BD4680BD00BFDB
:10213800A8EE00200020024080B483B000AF786091
:10214800094B0022DA61094B1B69084A43F0040372
:102158001361064B1B69054A43F04003136100BF36
:102168000C37BD4680BC7047A8EE00200020024016
:1021780080B483B000AF78600B4B0022DA610B4B60
:102188001B690A4A43F002031361084A7B685361DA
:10219800064B1B69054A43F04003136100BF0C3727
:1021A800BD4680BC704700BFA8EE0020002002405A
:1021B80080B48BB000AF7860396000237B62002365
:1021C8003B6279E101227B6A02FA03F3FB613B6817
:1021D8001B68FA691340BB61BA69FB699A4240F00F
:1021E80068813B685B68964A93425ED0944A934202
:1021F80075D8944A934258D0924A93426FD8924ADB
:10220800934252D0904A934269D8904A93424CD014
:102218008E4A934263D88E4A934246D08C4A934260
:102228005DD8122B2AD8122B59D801A252F823F0C4
:10223800B32200088D2200089F220008E12200082E
:10224800E7220008E7220008E7220008E722000842
:10225800E7220008E7220008E7220008E722000832
:10226800E7220008E7220008E7220008E722000822
:10227800E722000895220008A9220008754A93421F
:1022880013D02CE03B68DB683B6229E03B68DB68E5
:1022980004333B6224E03B68DB6808333B621FE0A1
:1022A8003B68DB680C333B621AE03B689B68002B99
:1022B80002D104233B6213E03B689B68012B05D1E4
:1022C80008233B627B68FA691A6109E008233B62CC
:1022D8007B68FA695A6103E000233B6200E000BFB3
:1022E800BB69FF2B01D87B6801E07B6804337B6105
:1022F800BB69FF2B02D87B6A9B0002E07B6A083B24
:102308009B003B617B691A680F213B6901FA03F363
:10231800DB431A40396A3B6901FA03F31A437B69C4
:102328001A603B685B6803F08053002B00F0C180A3
:10233800494B9B69484A43F001039361464B9B69AB
:1023480003F00103BB60BB68444A7B6A9B08023305
:1023580052F82330FB607B6A03F003039B000F22D3
:1023680002FA03F3DB43FA681340FB607B683C4ADC
:1023780093421FD07B683B4A934219D07B683A4A04
:10238800934213D07B68394A93420DD07B68384A10
:10239800934207D07B68374A934201D105230AE06C
:1023A800062308E0042306E0032304E0022302E0F6
:1023B800012300E000237A6A02F0030292009340AE
:1023C800FA681343FB6025497B6A9B080233FA6865
:1023D80041F823203B685B6803F48013002B06D088
:1023E800254B9A682449BB6913438B6006E0224B4E
:1023F8009A68BB69DB43204913408B603B685B6884
:1024080003F40013002B06D01B4BDA681A49BB698A
:102418001343CB6006E0184BDA68BB69DB43164907
:102428001340CB603B685B6803F40033002B25D076
:10243800114B5A681049BB6913434B6025E000BF34
:10244800000032100000311000002210000021109E
:10245800000012100000111000100240000001409E
:1024680000080140000C0140001001400014014028
:1024780000180140001C014000040140154B5A6837
:10248800BB69DB43134913404B603B685B6803F44B
:102498008033002B06D00F4B1A680E49BB691343D3
:1024A8000B6006E00B4B1A68BB69DB430949134014
:1024B8000B607B6A01337B623B681A687B6A22FA8D
:1024C80003F3002B7FF47EAE00BF00BF2C37BD4660
:1024D80080BC70470004014080B483B000AF7860CE
:1024E8000B467B8013467B707B78002B03D07A8861
:1024F8007B681A6103E07B881A047B681A6100BF55
:102508000C37BD4680BC704780B586B000AF786098
:102518007B68002B01D1012372E27B681B6803F002
:102528000103002B00F08780924B5B6803F00C03DB
:10253800042B0CD08F4B5B6803F00C03082B12D1D3
:102548008C4B5B6803F48033B3F5803F0BD1894B28
:102558001B6803F40033002B6CD07B685B68002B8E
:1025680068D101234CE27B685B68B3F5803F06D1F4
:10257800804B1B687F4A43F4803313602EE07B68EE
:102588005B68002B0CD17B4B1B687A4A23F48033A1
:102598001360784B1B68774A23F4802313601DE08F
:1025A8007B685B68B3F5A02F0CD1724B1B68714A2E
:1025B80043F4802313606F4B1B686E4A43F48033E7
:1025C80013600BE06B4B1B686A4A23F4803313607B
:1025D800684B1B68674A23F4802313607B685B6839
:1025E800002B13D0FFF766F9386108E0FFF762F9AE
:1025F80002463B69D31A642B01D9032300E25D4BE1
:102608001B6803F40033002BF0D014E0FFF752F9F5
:10261800386108E0FFF74EF902463B69D31A642B8C
:1026280001D90323ECE1534B1B6803F40033002B5F
:10263800F0D100E000BF7B681B6803F00203002BA9
:1026480063D04C4B5B6803F00C03002B0BD0494B59
:102658005B6803F00C03082B1CD1464B5B6803F442
:102668008033002B16D1434B1B6803F00203002B69
:1026780005D07B681B69012B01D00123C0E13D4BCC
:102688001B6823F0F8027B685B69DB003949134358
:102698000B603AE07B681B69002B20D0364B012287
:1026A8001A60FFF707F9386108E0FFF703F90246F7
:1026B8003B69D31A022B01D90323A1E12D4B1B68D7
:1026C80003F00203002BF0D02A4B1B6823F0F8021A
:1026D8007B685B69DB00274913430B6015E0264BD9
:1026E80000221A60FFF7E6F8386108E0FFF7E2F821
:1026F80002463B69D31A022B01D9032380E11D4B03
:102708001B6803F00203002BF0D17B681B6803F001
:102718000803002B3AD07B689B69002B19D0174B14
:1027280001221A60FFF7C6F8386108E0FFF7C2F81F
:1027380002463B69D31A022B01D9032360E10D4BF2
:102748005B6A03F00203002BF0D0012000F0CEFA00
:102758001CE00A4B00221A60FFF7ACF838610FE062
:10276800FFF7A8F802463B69D31A022B08D90323BE
:1027780046E100BF0010024000004242800442428D
:10278800924B5B6A03F00203002BE9D17B681B685C
:1027980003F00403002B00F0A6800023FB758B4B8D
:1027A800DB6903F08053002B0DD1884BDB69874A26
:1027B80043F08053D361854BDB6903F08053BB60E2
:1027C800BB680123FB75824B1B6803F48073002BE5
:1027D80018D17F4B1B687E4A43F480731360FFF760
:1027E80069F8386108E0FFF765F802463B69D31AD3
:1027F800642B01D9032303E1754B1B6803F4807331
:10280800002BF0D07B68DB68012B06D16F4B1B6A6D
:102818006E4A43F0010313622DE07B68DB68002BEE
:102828000CD16A4B1B6A694A23F001031362674B98
:102838001B6A664A23F0040313621CE07B68DB68AA
:10284800052B0CD1614B1B6A604A43F004031362E9
:102858005E4B1B6A5D4A43F0010313620BE05B4B5E
:102868001B6A5A4A23F001031362584B1B6A574AE2
:1028780023F0040313627B68DB68002B15D0FFF795
:1028880019F838610AE0FFF715F802463B69D31AD0
:1028980041F28832934201D90323B1E04B4B1B6AC2
:1028A80003F00203002BEED014E0FFF703F83861C1
:1028B8000AE0FEF7FFFF02463B69D31A41F288326D
:1028C800934201D903239BE0404B1B6A03F00203A8
:1028D800002BEED1FB7D012B05D13C4BDB693B4A3C
:1028E80023F08053D3617B68DB69002B00F087807D
:1028F800364B5B6803F00C03082B61D07B68DB69FF
:10290800022B46D1334B00221A60FEF7D3FF386101
:1029180008E0FEF7CFFF02463B69D31A022B01D924
:1029280003236DE0294B1B6803F00073002BF0D1E3
:102938007B681B6AB3F5803F08D1244B5B6823F49E
:1029480000327B689B68214913434B601F4B5B68CF
:1029580023F474127B68196A7B685B6A0B431B4912
:1029680013434B601B4B01221A60FEF7A3FF38612B
:1029780008E0FEF79FFF02463B69D31A022B01D9F4
:1029880003233DE0114B1B6803F00073002BF0D0CC
:1029980035E0104B00221A60FEF78CFF386108E022
:1029A800FEF788FF02463B69D31A022B01D903239D
:1029B80026E0064B1B6803F00073002BF0D11EE0E5
:1029C8007B68DB69012B07D1012319E00010024065
:1029D80000700040600042420B4B5B68FB60FB6884
:1029E80003F480327B681B6A9A4206D1FB6803F4C1
:1029F80070127B685B6A9A4201D0012300E00023D1
:102A080018461837BD4680BD0010024080B584B016
:102A180000AF786039607B68002B01D10123D0E0DA
:102A28006A4B1B6803F007033A689A4210D9674B50
:102A38001B6823F0070265493B6813430B60634B2F
:102A48001B6803F007033A689A4201D00123B8E0F3
:102A58007B681B6803F00203002B20D07B681B688F
:102A680003F00403002B05D0594B5B68584A43F424
:102A7800E06353607B681B6803F00803002B05D0F4
:102A8800534B5B68524A43F460535360504B5B6846
:102A980023F0F0027B689B684D4913434B607B68C9
:102AA8001B6803F00103002B40D07B685B68012B97
:102AB80007D1474B1B6803F40033002B15D10123C2
:102AC8007FE07B685B68022B07D1414B1B6803F0F2
:102AD8000073002B09D1012373E03D4B1B6803F001
:102AE8000203002B01D101236BE0394B5B6823F013
:102AF80003027B685B68364913434B60FEF7DAFED6
:102B0800F8600AE0FEF7D6FE0246FB68D31A41F2E7
:102B18008832934201D9032353E02D4B5B6803F0BD
:102B28000C027B685B689B009A42EBD1274B1B68C1
:102B380003F007033A689A4210D2244B1B6823F02B
:102B4800070222493B6813430B60204B1B6803F0C4
:102B580007033A689A4201D0012332E07B681B6878
:102B680003F00403002B08D0194B5B6823F4E062E0
:102B78007B68DB68164913434B607B681B6803F06E
:102B88000803002B09D0124B5B6823F460527B6862
:102B98001B69DB000E4913434B6000F021F8024625
:102BA8000B4B5B681B0903F00F030A49CB5C22FA45
:102BB80003F3094A1360094B1B681846FEF738FEF1
:102BC800002318461037BD4680BD00BF00200240D4
:102BD80000100240AC86000800000020040000201D
:102BE80080B487B000AF0023FB600023BB600023E4
:102BF8007B6100237B6000233B611E4B5B68FB60AD
:102C0800FB6803F00C03042B02D0082B03D027E049
:102C1800194B3B6127E0FB689B0C03F00F03174A35
:102C2800D35C7B60FB6803F48033002B10D0114B1E
:102C38005B685B0C03F00103114AD35CBB607B68E3
:102C48000D4A03FB02F2BB68B2FBF3F37B6104E0BD
:102C58007B680C4A02FB03F37B617B693B6102E002
:102C6800054B3B6100BF3B6918461C37BD4680BC1D
:102C7800704700BF0010024000127A00C4860008A6
:102C8800D486000800093D0080B400AF024B1B68E1
:102C98001846BD4680BC70470000002080B500AFD4
:102CA800FFF7F2FF0246054B5B681B0A03F00703B8
:102CB8000349CB5C22FA03F3184680BD001002409A
:102CC800BC86000880B500AFFFF7DEFF0246054B63
:102CD8005B68DB0A03F007030349CB5C22FA03F3C2
:102CE800184680BD00100240BC86000880B485B03C
:102CF80000AF78600A4B1B680A4AA2FB03235B0AF1
:102D08007A6802FB03F3FB6000BFFB685A1EFA6097
:102D1800002BF9D100BF00BF1437BD4680BC7047F7
:102D280000000020D34D621080B584B000AFF86079
:102D3800B9607A60FB68002B04D0FB689B69B3F527
:102D4800807F01D1012338E0FB6893F84130DBB282
:102D5800002B06D1FB68002283F84020F868FEF7B4
:102D6800EFF9FB681A68FB6808331946104600F04B
:102D7800A1FEFB681868FB689B681A46B96800F0F2
:102D880003FFFB685868FB689A68FB681B6B7968E7
:102D980000F02EFFFB681B68FA68926853F822104F
:102DA800FB681B68FA68926841F0010143F8221039
:102DB800FB68012283F84120002318461037BD46DE
:102DC80080BD80B582B000AF78607B68002B01D1F0
:102DD800012342E07B6893F84130DBB2002B06D137
:102DE8007B68002283F840207868FEF751FC7B68F6
:102DF800242283F841207B681B68DA687B681B689B
:102E080022F40052DA60786800F0C6FD7B681B681F
:102E18001A697B681B6822F490421A617B681B68F8
:102E28005A697B681B6822F02A025A617B681B6812
:102E3800DA687B681B6842F40052DA607B6800221B
:102E48005A647B68202283F841207B68202283F81B
:102E580042207B6800225A63002318460837BD4683
:102E680080BD80B58AB002AFF860B9603B60134698
:102E7800FB8000237B61FB6893F84130DBB2202B99
:102E88006DD1BB68002B02D0FB88002B01D1012338
:102E980066E0FB6800225A64FB68212283F841201F
:102EA800FEF708FD7861FB68FA889A84FB68FA885F
:102EB800DA84FB689B68B3F5805F08D1FB681B69FF
:102EC800002B04D10023FB61BB68BB6103E0BB6836
:102ED800FB610023BB612AE03B6800937B69002209
:102EE8008021F86800F015FB0346002B01D003236E
:102EF80036E0FB69002B0BD1BB691B881A46FB68BF
:102F08001B68C2F308025A60BB690233BB6107E061
:102F1800FB691A78FB681B685A60FB690133FB611F
:102F2800FB68DB8C9BB2013B9AB2FB68DA84FB68D6
:102F3800DB8C9BB2002BCFD13B6800937B690022CE
:102F48004021F86800F0E5FA0346002B01D003237E
:102F580006E0FB68202283F84120002300E00223DA
:102F680018462037BD4680BD80B584B000AFF860F4
:102F7800B9601346FB80FB6893F84230DBB2202B24
:102F880012D1BB68002B02D0FB88002B01D1012392
:102F98000BE0FB6800221A63FB881A46B968F868D8
:102FA80000F025FB034600E0022318461037BD4613
:102FB80080BD000080B5BAB000AF78607B681B6840
:102FC8001B68C7F8E4307B681B68DB68C7F8E0302B
:102FD8007B681B685B69C7F8DC300023C7F8D8300A
:102FE8000023C7F8D430D7F8E43003F00F03C7F84C
:102FF800D830D7F8D830002B0FD1D7F8E43003F009
:103008002003002B09D0D7F8E03003F02003002B71
:1030180003D0786800F001FC5BE2D7F8D830002BC9
:1030280000F0DE80D7F8DC3003F00103002B06D176
:10303800D7F8E03003F49073002B00F0D180D7F874
:10304800E43003F00103002B0BD0D7F8E03003F491
:103058008073002B05D07B685B6C43F001027B68B2
:103068005A64D7F8E43003F00403002B0BD0D7F8E8
:10307800DC3003F00103002B05D07B685B6C43F068
:1030880002027B685A64D7F8E43003F00203002B8D
:103098000BD0D7F8DC3003F00103002B05D07B6898
:1030A8005B6C43F004027B685A64D7F8E43003F0A1
:1030B8000803002B11D0D7F8E03003F02003002BD1
:1030C80005D1D7F8DC3003F00103002B05D07B686D
:1030D8005B6C43F008027B685A647B685B6C002B6E
:1030E80000F0F281D7F8E43003F02003002B08D079
:1030F800D7F8E03003F02003002B02D0786800F006
:103108008CFB7B681B685B6903F04003002B14BFD2
:1031180001230023DBB2C7F8D4307B685B6C03F073
:103128000803002B03D1D7F8D430002B4FD0786890
:1031380000F096FA7B681B685B6903F04003002B7C
:1031480041D07B681B681433C7F89C30D7F89C3093
:1031580053E8003FC7F89830D7F8983023F0400379
:10316800C7F8D0307B681B681433D7F8D020C7F86D
:10317800A820C7F8A430D7F8A410D7F8A82041E8A9
:103188000023C7F8A030D7F8A030002BD9D17B682E
:10319800DB6B002B13D07B68DB6B7E4A5A637B6842
:1031A800DB6B1846FEF7FCFC0346002B16D07B6849
:1031B800DB6B5B6B7A68D26B104698470EE07868D9
:1031C80000F093F90AE0786800F08FF906E0786873
:1031D80000F08BF97B6800225A6475E100BF73E147
:1031E8007B681B6B012B40F04F81D7F8E43003F06C
:1031F8001003002B00F04881D7F8E03003F01003EB
:10320800002B00F041810023BB607B681B681B68B2
:10321800BB607B681B685B68BB60BB687B681B68BE
:103228005B6903F04003002B00F0B6807B68DB6B22
:103238001B685B68A7F8BE30B7F8BE30002B00F0FB
:1032480045817B689B8DB7F8BE209A4280F03E810D
:103258007B68B7F8BE20DA857B68DB6B9B69202B1F
:1032680000F088807B681B680C33C7F88830D7F873
:10327800883053E8003FC7F88430D7F8843023F407
:103288008073C7F8B8307B681B680C33D7F8B82050
:10329800C7F89420C7F89030D7F89010D7F8942042
:1032A80041E80023C7F88C30D7F88C30002BD9D1EF
:1032B8007B681B6814337B677B6F53E8003F3B6771
:1032C8003B6F23F00103C7F8B4307B681B681433E5
:1032D800D7F8B420C7F88020FB67F96FD7F88020AB
:1032E80041E80023BB67BB6F002BE1D17B681B68FB
:1032F80014333B663B6E53E8003FFB65FB6D23F0E0
:103308004003C7F8B0307B681B681433D7F8B02087
:10331800FA66BB66B96EFA6E41E800237B667B6E7F
:10332800002BE3D17B68202283F842207B680022AF
:103338001A637B681B680C33FB64FB6C53E8003F23
:10334800BB64BB6C23F01003C7F8AC307B681B6808
:103358000C33D7F8AC20BA657B65796DBA6D41E856
:1033680000233B653B6D002BE3D17B68DB6B184684
:10337800FEF7DBFB7B6802225A637B689A8D7B68C9
:10338800DB8D9BB2D31A9BB21946786800F0B6F869
:103398009CE000BF2D3700087B689A8D7B68DB8D29
:1033A8009BB2D31AA7F8CE307B68DB8D9BB2002B7B
:1033B80000F08E80B7F8CE30002B00F089807B6853
:1033C8001B680C33BB63BB6B53E8003F7B637B6BB1
:1033D80023F49073C7F8C8307B681B680C33D7F8A0
:1033E800C8207A643B64396C7A6C41E80023FB633B
:1033F800FB6B002BE3D17B681B6814337B627B6A11
:1034080053E8003F3B623B6A23F00103C7F8C4302E
:103418007B681B681433D7F8C4203A63FB62F96AE7
:103428003A6B41E80023BB62BB6A002BE3D17B689F
:10343800202283F842207B6800221A637B681B687D
:103448000C333B613B6953E8003FFB60FB6823F0AA
:103458001003C7F8C0307B681B680C33D7F8C0204E
:10346800FA61BB61B969FA6941E800237B617B694C
:10347800002BE3D17B6802225A63B7F8CE30194695
:10348800786800F03BF823E0D7F8E43003F08003D5
:10349800002B09D0D7F8E03003F08003002B03D0CD
:1034A800786800F053F914E0D7F8E43003F04003EB
:1034B800002B0ED0D7F8E03003F04003002B08D0E3
:1034C800786800F092F904E000BF02E000BF00E075
:1034D80000BFE837BD4680BD80B483B000AF7860D8
:1034E80000BF0C37BD4680BC704780B483B000AFC6
:1034F800786000BF0C37BD4680BC704780B483B08D
:1035080000AF78600B467B8000BF0C37BD4680BC9F
:10351800704780B590B000AFF860B9603B60134663
:10352800FB7150E0BB6CB3F1FF3F4CD0BB6C002B80
:1035380007D0FEF7BFF902463B68D31ABA6C9A4225
:1035480041D2FB681B680C33BB62BB6A53E8003F7F
:103558007B627B6A23F4D073FB63FB681B680C33C4
:10356800FA6B7A633B63396B7A6B41E80023FB6241
:10357800FB6A002BE5D1FB681B6814337B617B6910
:1035880053E8003F3B613B6923F00103BB63FB68E1
:103598001B681433BA6B3A62FB61F9693A6A41E80D
:1035A8000023BB61BB69002BE5D1FB68202283F8AF
:1035B8004120FB68202283F84220FB68002283F820
:1035C800402003230FE0FB681B681A68BB681340A0
:1035D800BA689A420CBF01230023DBB21A46FB7972
:1035E8009A429FD0002318464037BD4680BD80B41C
:1035F80085B000AFF860B9601346FB80FB68BA6815
:103608009A62FB68FA889A85FB68FA88DA85FB680B
:1036180000225A64FB68222283F84220FB681B6957
:10362800002B07D0FB681B68DA68FB681B6842F44C
:103638008072DA60FB681B685A69FB681B6842F095
:1036480001025A61FB681B68DA68FB681B6842F074
:103658002002DA60002318461437BD4680BC704744
:1036680080B495B000AF78607B681B680C337B63CF
:103678007B6B53E8003F3B633B6B23F49073FB6425
:103688007B681B680C33FA6C3A64FB63F96B3A6C21
:1036980041E80023BB63BB6B002BE5D17B681B684B
:1036A80014333B623B6A53E8003FFB61FB6923F03C
:1036B8000103BB647B681B681433BA6CFA62BB6293
:1036C800B96AFA6A41E800237B627B6A002BE5D17C
:1036D8007B681B6B012B19D17B681B680C33FB6063
:1036E800FB6853E8003FBB60BB6823F010037B64B2
:1036F8007B681B680C337A6CBA617B617969BA693B
:1037080041E800233B613B69002BE5D17B6820221F
:1037180083F842207B6800221A6300BF5437BD46F5
:1037280080BC704780B584B000AF78607B685B6A06
:10373800FB60FB680022DA85FB680022DA84F868FF
:10374800FFF7D3FE00BF1037BD4680BD80B485B0FB
:1037580000AF78607B6893F84130DBB2212B3ED113
:103768007B689B68B3F5805F14D17B681B69002B6D
:1037780010D17B681B6AFB60FB681B881A467B6854
:103788001B68C2F308025A607B681B6A9A1C7B6834
:103798001A6208E07B681B6A591C7A6811621A78F9
:1037A8007B681B685A607B68DB8C9BB2013B9BB2D1
:1037B8007A681946D184002B0FD17B681B68DA68B8
:1037C8007B681B6822F08002DA607B681B68DA6815
:1037D8007B681B6842F04002DA60002300E00223A5
:1037E80018461437BD4680BC704780B582B000AF1C
:1037F80078607B681B68DA687B681B6822F0400287
:10380800DA607B68202283F841207868FFF764FE3D
:10381800002318460837BD4680BD80B58CB000AF80
:1038280078607B6893F84230DBB2222B40F0AE80A0
:103838007B689B68B3F5805F17D17B681B69002B99
:1038480013D10023FB627B689B6ABB627B681B68A1
:103858005B689BB2C3F308039AB2BB6A1A807B68A1
:103868009B6A9A1C7B689A6226E07B689B6AFB626B
:103878000023BB627B689B68B3F5805F07D07B68D9
:103888009B68002B0AD17B681B69002B06D17B68DB
:103898001B685B68DAB2FB6A1A7008E07B681B6811
:1038A8005B68DBB203F07F03DAB2FB6A1A707B68ED
:1038B8009B6A5A1C7B689A627B68DB8D9BB2013BD2
:1038C8009BB27A681946D185002B5DD17B681B684D
:1038D800DA687B681B6822F02002DA607B681B6864
:1038E800DA687B681B6822F48072DA607B681B6880
:1038F8005A697B681B6822F001025A617B682022A2
:1039080083F842207B6800225A637B681B6B012B7B
:1039180035D17B6800221A637B681B680C337B6196
:103928007B6953E8003F3B613B6923F010037B62EE
:103938007B681B680C337A6A3A62FB61F9693A6AF8
:1039480041E80023BB61BB69002BE5D17B681B689C
:103958001B6803F01003102B0AD10023FB607B685F
:103968001B681B68FB607B681B685B68FB60FB6807
:103978007B689B8D19467868FFF7C0FD02E0786880
:10398800FDF7F0FE002302E0002300E002231846C2
:103998003037BD4680BD000080B584B000AF786088
:1039A8007B681B681B6923F440517B68DA687B6875
:1039B8001B680A431A617B689A687B681B691A430B
:1039C8007B685B691343BB607B681B68DB6823F417
:1039D800B05323F00C037A681268B9680B43D360BC
:1039E8007B681B685B6923F440717B689A697B6814
:1039F8001B680A435A617B681B682C4A934203D1AF
:103A0800FFF760F9F86002E0FFF748F9F860FA6834
:103A180013469B0013449A001A447B685B689B001A
:103A2800B2FBF3F3224AA2FB03235B091901FA68EC
:103A380013469B0013449A001A447B685B689B00FA
:103A4800B2FBF3F21A4BA3FB02035B09642000FBF1
:103A580003F3D31A1B013233154AA2FB03235B0974
:103A680003F0F0031944FA6813469B0013449A00C4
:103A78001A447B685B689B00B2FBF3F20C4BA3FB18
:103A880002035B09642000FB03F3D31A1B013233E2
:103A9800074AA2FB03235B0903F00F027B681B683C
:103AA8000A449A6000BF1037BD4680BD0038014007
:103AB8001F85EB5180B487B000AF786039603B68F0
:103AC8001A687B6853F822303A68126823F00101BB
:103AD8007B6843F822103B689B68082B02D140237F
:103AE8007B6101E000237B613B685A687B691A436C
:103AF8003B689B681A433B68DB681A433B681B6951
:103B08001A433B685B691A433B68DB691A433B68A5
:103B18001B6A1A433B685B6A1A433B689B6A1A43F1
:103B28003B68DB6A1A433B681B6B13433B613B688A
:103B38009B693A6913433B613B685B6B3A69134382
:103B48003B61104BFB60FB6843F48063FB60FB68E0
:103B580043F4E023FB603B681A687B6853F8222033
:103B6800FB68DB4302EA03013B681A683B691943B7
:103B78007B6843F82210002318461C37BD4680BCDA
:103B8800704700BF7FFB080080B485B000AFF860C5
:103B9800B9607A607B685A1CFB6853F8223003F0DE
:103BA8004041BB681A68BB685B681B011A43BB6865
:103BB8009B681B021A43BB68DB681B041A43BB687B
:103BC8001B69013B1B051A43BB685B69023B1B066B
:103BD8001A43BB689B6913437A6801321943FB682F
:103BE80043F82210002318461437BD4680BC70479E
:103BF80080B485B000AFF860B9607A603B603B681C
:103C0800B3F5804F1DD1FB687A6853F82220134B17
:103C18001340BA681168BA68526812011143BA6849
:103C2800926812021143BA6892691143BA68D2685D
:103C380012040A4343EA0201FB687A6843F8221037
:103C480005E0FB687A686FF0704143F822100023A2
:103C580018461437BD4680BC704700BF0000F0CF3F
:103C6800014B1868704700BF0C00002070B5002693
:103C78000C4D0D4C641BA410A64209D104F0DEFCC7
:103C880000260A4D0A4C641BA410A64205D170BD3B
:103C980055F8043B98470136EEE755F8043B98473A
:103CA8000136F2E7848B0008848B0008848B0008B7
:103CB800888B000803460244934200D1704703F8FA
:103CC800011BF9E7002B2DE9F0471F46BBBF03F1A5
:103CD80000431F4600232D2388B01446129A109DD6
:103CE8001370149BDDF84CA023F02008B8F1460FA0
:103CF80005D0B8F1450F00D10135022300E00323B8
:103D080007AA049206AACDE902A2CDE90035224607
:103D18003B4601F0D1FEB8F1470F064602D1119B90
:103D2800DB0722D5B8F1460F06EB050910D1337829
:103D3800302B0AD10022002320463946FCF79CFE8E
:103D480018B9C5F10105CAF80050DAF800309944ED
:103D58000022002320463946FCF78EFE08B1CDF834
:103D68001C903022079B4B4507D33046079B159A7A
:103D78009B1B136008B0BDE8F087591C07911A70A7
:103D8800F0E70346F7B5002903F8022BB6BF2D224A
:103D98002B224942092942702BDD0DF10704A44664
:103DA8000A2791FBF7F60A46A64607FB1615632A6B
:103DB80005F13005314604F1FF340EF8015CF0DC02
:103DC8003031AEF1020504F8011C2946441C614556
:103DD8000AD30DF10902A2EB0E02654588BF002245
:103DE8001344181A03B0F0BD11F8012B04F8012F81
:103DF800EDE7302330318370C170031DF1E7000017
:103E08002DE9F04F91B00C46DDF8688016461F4644
:103E1800054603F059F9036818460993FCF700FAB8
:103E280000230E93D8F800300A90073323F00703D5
:103E380003F1080294F81890D4F800B0C8F80020EC
:103E4800D3E90023C4E91223D4E9128A2AF00043F3
:103E58000B934FF0FF3240469C4B0B99FCF73EFE0C
:103E680070BB4FF0FF324046984B0B99FCF718FE99
:103E780030BB0022002340465146FCF707FE10B134
:103E88002D2384F84330924B9248B9F1470F94BFE1
:103E98009846804603234FF0000A23612BF0040361
:103EA800236033462146284600970FAA00F0D4F92C
:103EB800013040F090804FF0FF3011B0BDE8F08F36
:103EC8004246534640465146FCF708FE48B1BAF10F
:103ED800000FB8BF2D238048B8BF84F843307F4B0C
:103EE800D3E7636809F0DF015A1C42D106236360F7
:103EF800002206920EAACDE904920DAA4BF4806323
:103F080003920DF13302CDE9013223606368424622
:103F18000093284653460B91FFF7D4FE0B99804631
:103F280047290D9908D1C81C02DB6368994240DD16
:103F3800A9F102095FFA89F9B9F1650F1FD84A4654
:103F4800013904F150000D91FFF71BFF0E9A8246CC
:103F58001318012A236102DC2268D20701D5013334
:103F680023619DF83330002B9BD02D2384F84330F8
:103F780097E74729BCD1002BBAD10123B7E7B9F19C
:103F8800660F18D1002963680BDD216113B9226817
:103F9800D00702D501330B4423614FF0000AA16515
:103FA800DFE713B92268D20701D50233F4E701230A
:103FB800F2E74FF067090E9B994205DB2368216100
:103FC800D807EAD54B1CE7E70029CCBF0122C1F18D
:103FD80002021344E0E723685A0507D423694246DE
:103FE80031462846B84701302BD164E7B9F1650F4F
:103FF80040F2DD80D4E9120100220023FCF73CFDE9
:10400800002833D0012331462846354AB8470130C5
:104018003FF451AFDDE90D239A4202DB2368D8074C
:104028000FD5DDE9092331462846B84701303FF46A
:1040380042AF4FF0000804F11A090E9B013B4345BB
:1040480009DC23689B0700F10281E0680F9B984216
:10405800B8BF184631E701234A4631462846B847D3
:1040680001303FF428AF08F10108E6E70D9B002B6B
:1040780038DC012331462846194AB84701303FF455
:104088001AAFDDE90D23134302D12368D907D8D528
:10409800DDE9092331462846B84701303FF40BAF24
:1040A8004FF0000904F11A0A0D9B5B424B4501DCF5
:1040B8000E9B94E70123524631462846B847013003
:1040C8003FF4F9AE09F10109EEE700BFFFFFEF7F0A
:1040D800DC860008E0860008E8860008E486000818
:1040E800EC8600080E9AA36D9A42A8BF1A46002AC9
:1040F800914637DC4FF0000B29EAE97904F11A02FE
:10410800D4F858A0AAEB09035B4533DCDDE90D239D
:104118009A423BDB2368DA0738D40E9B0D99A3EB50
:104128000A02A3EB01099145A8BF9146B9F1000F16
:1041380034DC4FF0000829EAE97904F11A0ADDE9CC
:104148000D239B1AA3EB090343457FF77AAF01239D
:10415800524631462846B84701303FF4ACAE08F124
:104168000108ECE71346314642462846B847013075
:10417800C0D1A0E60123314628460B92B84701304A
:104188003FF499AE0B9A0BF1010BB9E73146DDE923
:1041980009232846B8470130BFD18CE64B46314643
:1041A800284608EB0A02B8470130C2D183E60E9AC6
:1041B800012A01DCDB0737D5012342463146284670
:1041C800B84701303FF477AEDDE909233146284688
:1041D800B84701303FF46FAED4E912010022002342
:1041E800FCF74AFCD8B90E9B08F10102013B3146A5
:1041F8002846B84701300ED15DE601234A463146CC
:104208002846B84701303FF456AE08F101080E9B26
:10421800013B4345F1DC534604F15002E0E64FF020
:10422800000804F11A09F2E701234246DFE70123F7
:104238004A4631462846B84701303FF43CAE08F1BB
:104248000108E3680F995B1A4345F0DCFDE64FF07F
:10425800000804F11909F4E72DE9F04716469946D4
:104268008A680B6907469342B8BF1346336091F8D2
:1042780043200C46DDF820800AB1013333602368FF
:10428800990642BF336802333360256815F0060586
:1042980006D104F1190AE36832689B1AAB4228DC9C
:1042A80094F84320131E226818BF012392062DD4C8
:1042B8004946384604F14302C047013020D02368FC
:1042C800E56803F00603042B18BF002532684FF099
:1042D8000006A36808BFAD1A226908BF25EAE5757C
:1042E8009342C4BF9B1AED181A34B5421AD1002064
:1042F80008E00123524649463846C047013003D1F9
:104308004FF0FF30BDE8F0870135C4E73020E118F1
:1043180081F843005A1C94F845102244023382F86D
:104328004310C5E70123224649463846C0470130B5
:10433800E6D00136D9E700002DE9FF470F7E914608
:10434800782F80460C469A460C9D01F1430207D807
:10435800622F0AD8002F00F0D980582F00F0A480CF
:1043680004F1420584F842703AE0A7F16303152B83
:10437800F6D801A151F823F0D9430008ED4300080D
:104388006943000869430008694300086943000855
:10439800ED430008694300086943000869430008C1
:1043A80069430008FB4400081D440008DD44000878
:1043B80069430008694300081D450008694300086F
:1043C8001D4400086943000869430008E5440008E3
:1043D8002B681A1D1B682A6004F1420584F84230D4
:1043E8000123A4E020682968060601F104030AD520
:1043F8000E682B60002E03DA2D23764284F84330B2
:104408000A235E4819E00E6810F0400F2B6018BFB1
:1044180036B2EFE72B682068191D2960010601D51F
:104428001E6802E04606FBD51E886F2F0CBF0823C6
:104438000A235248002184F843106568002DA8BF5C
:104448002168A560A4BF21F0040121600EB9002DE8
:104458004DD01546B6FBF3F103FB1167C75D05F8B0
:10446800017D3746BB420E46F4D9082B0BD1236891
:10447800DE0708D5236961689942DEBF302305F855
:10448800013C05F1FF35521B22614B46214640464F
:10449800CDF800A003AAFFF7DFFE01304CD14FF0A2
:1044A800FF3004B0BDE8F087344881F845702968CA
:1044B800236851F8046B29601D0614D5DF0744BF33
:1044C80043F0200323601EB9236823F020032360F0
:1044D8001023AFE7236843F020032360782328489C
:1044E80084F84530E3E7590648BFB6B2E6E7154613
:1044F800BBE72B682668181D6169286035061B68AC
:1045080001D5196002E07006FBD519800023154615
:104518002361BAE72B6800211A1D2A601D686268AA
:10452800284602F057FE08B1401B606063682361AB
:10453800002384F84330A8E72A46494640462369C1
:10454800D0470130ABD023689B0713D4E068039BA6
:104558009842B8BF1846A4E7012332464946404668
:10456800D04701309BD00135E36803995B1AAB4211
:10457800F2DCEBE7002504F11906F5E7EE86000802
:10458800FF8600082DE9F04F87B003938B68174624
:104598005A1EB2F5AE7F85BF6FF4AE755B19002366
:1045A800029388BF40F25D138B464FF000058CBF25
:1045B8008B6002930B68804643F4F0634BF81C3B16
:1045C8000C465E46AA46A946CDE904550195A2685F
:1045D80052B13B681B784E2B64D8402B3CD8A3F1D2
:1045E8002B01C8B20E283AD9B9F1000F03D02368BD
:1045F80023F4807323600AF1FF3ABAF1010F00F245
:1046080013815E4500F205810125284607B0BDE803
:10461800F08FA3F161020D2AE6D801A151F822F02A
:1046280067470008F1450008F1450008F145000812
:10463800C74700089F470008F1450008F1450008F2
:1046480075470008F1450008F1450008F1450008E4
:10465800F14500082D470008A3F14102DBE70E29C8
:10466800C2D801A050F821F01F470008F145000802
:104678001F470008B3470008F1450008CD46000869
:1046880009470008094700080947000809470008C2
:1046980009470008094700080947000809470008B2
:1046A800094700086E2B09D8602BB2D8542B77D055
:1046B800592B99D1072D97D1082529E0742B6FD054
:1046C800792BF6E72168C8051AD5029B21F08001ED
:1046D800216009F101091BB1013B01320293A2607B
:1046E800A368013BA3602369013323617B68013B15
:1046F800002B7B6040F384803B6801333B6066E7B6
:104708001AEB050F7FF470AF226822F4C0722260A2
:1047180006F8013BE4E7226810067FF565AF22F052
:104728008002F4E7BAF1000F0ED1B9F1000F0ED1F3
:10473800226802F4E061B1F5E06F08D122F4F0627A
:104748004FF0010A2260E3E7BAF1020F55D0012DBC
:1047580002D0042D7FF448AF0135EDB2D8E7BAF1A5
:10476800010F7FF441AF4FF0020AD1E77DB9B9F1EB
:10477800000F7FF43CAF226802F4E061B1F5E06F0E
:104788007FF439AF22F4F06201252260C0E7032DDF
:10479800E2D0052DDEE7022D7FF426AF0325B7E72B
:1047A800062D7FF421AF0725B2E7226891057FF532
:1047B8001BAF22F420722260CDF80490A8E722688B
:1047C80002F4A061B1F5806F06D050057FF50CAFFB
:1047D800B9F1000F3FF40FAF910558BF019922F4CA
:1047E800F06258BFA9EB010142F4C0724FF0000912
:1047F80058BFCDE9041622608AE74FF0030A87E71D
:1048080039464046D4F88031984700283FF4DFAE57
:10481800EAE6D4F87C313A46404616F8011D984736
:104828002369013B2361ECE66B1E062B25D8022D7C
:1048380036D85E457FF6E8AED4F87C313A46404635
:1048480016F8011D98472369013B2361F1E7029897
:10485800D4F87C3110F8011D3A460290404698473A
:104868002369013B23610AF1FF3A5FFA8AFABAF138
:10487800020FECD1033DEDB2761B2368DA052FD584
:104888005B0510D55E457FF6BFAED4F87C313A465D
:10489800404616F8011D98472369013B2361F1E75B
:1048A800AA460296DFE716F8011C2369652903F179
:1048B800FF3306F1FF3523610CD045290AD0D4F81F
:1048C8007C313A4640469847236916F8021C013B5A
:1048D800B51E23613A464046D4F87C3198472E46A7
:1048E800256815F0100555D13570236803F4C063A9
:1048F800B3F5806F1BD1019B4B45A3EB090223D174
:1049080000225946404600F007FF2268039B12F038
:10491800020F06460F461B6821D01A1D03990A602C
:104928001B68C3E90067E3680133E3606DE6049B35
:10493800002BE5D005990A232A464046013100F0AC
:104948006DFF049B059EC21A04F26F139E4228BF96
:1049580004F5B7763046104900F0B4F8D0E712F005
:10496800040F03F10402D9D1DDF80CC0CCF8002003
:10497800D3F8008002460B46FCF7B0F828B1074888
:1049880000F09CF8C8F80000CDE730463946FCF73F
:1049980003F9F7E7002538E610870008808B000840
:1049A8000FB40A4B13B51C6824B1A36913B9204688
:1049B80001F086FF05AB2046049AA168019303F035
:1049C80051FB02B0BDE8104004B070470C00002055
:1049D80070B50E46054618B183690BB901F070FF32
:1049E800AB69AC6813B9284601F06AFF2C4B9C42AE
:1049F80020D16C68636EDB0705D4A389980502D4BF
:104A0800A06D02F066FBA38919071DD52369DBB1E8
:104A1800013EA36816F8011F013BA36039BB002BB8
:104A280038DA22460A21284600F0FAFE013011D071
:104A38000A2511E01B4B9C4201D1AC68DAE71A4BFE
:104A48009C4208BFEC68D5E72146284600F03AFFAB
:104A58000028DDD04FF0FF35636EDA0705D4A3894F
:104A68009B0502D4A06D02F035FB284670BD002BD3
:104A780004DAA2699A4206DC0A2904D023685A1C7F
:104A880022601970C5E72246284600F0C9FE0130A9
:104A9800BFD1DFE70A2523685A1C22601D70DBE7B7
:104AA8001C8900083C890008FC880008024B014664
:104AB8001868FFF78DBF00BF0C0000200048704742
:104AC8000000C07F0EB46FF0004100B59CB01DAB74
:104AD80002900690079104910848094953F8042B5D
:104AE8000591006802A9019303F094F90022029B42
:104AF8001A701CB05DF804EB03B070470C0000207E
:104B08000802FFFF2DE9F0410F46904602F0EEFE45
:104B180004460D46B8F1000F11D0C7F30A53C3F18C
:104B28006B03002B0BDD00241B0503F17F5505F5F6
:104B3800401522462B46FBF737FD04460D46204616
:104B48002946BDE8F08100002DE9F04F9B4600237F
:104B58009FB01A939E4B82461F680E4638461592A0
:104B6800FBF75EFB4FF0000804464FF0000919966A
:104B7800199B1A782B2A4CD03AD80D2A33D8082AF0
:104B880033D8002A3DD000230A93199D2B78302B67
:104B980040F0AA806B7803F0DF03582B66D10A9B9C
:104BA800504601931AAB00938A4ACDF808B01BAB64
:104BB80019A901F08BFF10F00706044605D0062E50
:104BC80029D10023013519950A93159B002B40F034
:104BD8008A850A9BD3B1424609F10043104619461B
:104BE8001FB0BDE8F08F202ACDD101331993BFE75C
:104BF8002D2AC8D101220A925A1C19925B78002BDF
:104C0800C3D1159B1996002B40F06B8542464B4645
:104C1800E4E70022EFE71A9A3AB135211CA802F01E
:104C280069FF50461A9902F031FB013E042E06D85E
:104C3800DFE806F00A0314170A00DDE91C892107DA
:104C4800C3D549F00049C0E71B9ADDE91C8302F28D
:104C5800334223F4801343EA0259F0E7DFF87891EE
:104C6800EDE76FF000494FF0FF38E8E7199B5A1C51
:104C780019925B78302BF9D0002BA6D0012307932B
:104C8800199B0A22089300239B46CDE905331998FE
:104C98000578A5F13003D9B2092927D92246394622
:104CA80003F069FB002833D000202A465C460346FF
:104CB8000490652A01D0452A14D11CB9079A0243E9
:104CC8009FD00024199E721C199272782B2A79D0D1
:104CD8002D2A00F083800027A2F13001092940F233
:104CE8008380199600259FE00023C8E7BBF1080FD1
:104CF800D5BF0699059902FB013302FB013300F188
:104D08000100D4BF069305930BF1010B1990BEE780
:104D1800199B1A1919921A5DBBF1000F36D05C461F
:104D28000490A2F13003092B12D90123C1E7199B82
:104D380001305A1C19925A78302AF8D0A2F131035E
:104D4800082B00F2D584049000200446199B089390
:104D5800303A00F1010313D004990519194404915C
:104D680023460A21AB4213D12318082B04F101046E
:104D780004441BDC0A23069903FB01230693002342
:104D8800199A1846511C19915278CAE75846D3E720
:104D9800082B04DC069F4F4306970133E2E75F1CAC
:104DA800102FDEBF059F4F430597F6E7102CDFBF96
:104DB8000A23059903FB01230593E0E700230493E5
:104DC80001237BE70027B21C1992B27884E700BF61
:104DD800C4890008188700080000F07F0127F2E75F
:104DE800199A511C19915278302AF9D0A2F131013F
:104DF80008293FF677AF4FF00A0EA2F1300C199A46
:104E08000992199A511C19915278A2F13005092D6D
:104E180035D9099D491B082944F61F6502DC6545FB
:104E2800A8BF654607B16D42002C4CD107990143D4
:104E38007FF4CBAE002B7FF4E4AE692A26D023DCC6
:104E4800492A23D04E2A7FF4DCAE9D4919A802F0E6
:104E58008BF800283FF4D5AE199B1B78282B2CD152
:104E680098491CAA19A802F093F8052825D11D9B7A
:104E7800DDF8708043F0FF4949F4E009A5E60EFB30
:104E88000C2CACF1300CBCE76E2ADCE78E4919A873
:104E980002F06AF800283FF4B4AE199B8B49013B35
:104EA80019A8199302F060F810B9199B01331993E6
:104EB8004FF00008DFF8189287E6864803F002FAF8
:104EC8008046894681E6049BBBF1000F08BFA346D4
:104ED800EB1A102C069826460793A8BF1026FBF756
:104EE800E9FA092C8046894613DD7B4B03EBC603A0
:104EF80053E91223FBF758FB804605988946FBF7D0
:104F0800D9FA02460B4640464946FBF797F98046D0
:104F180089460F2C36DC079B002B3FF456AE22DD6A
:104F2800162B09DC6C49424601EBC3014B46D1E91B
:104F38000001FBF739FBC3E7079AC4F12503934245
:104F480020DB654DC4F10F0405EBC4014246D1E9ED
:104F580000014B46FBF728FB079B1C1B05EBC40510
:104F6800D5E90023E5E7079B16330BDB049B404696
:104F78005D1B594B494603EBC505D5E90023FBF7F3
:104F88003DFC9DE7079BA61B1E44002E74DD16F012
:104F98000F030AD05049424601EBC301D1E9000191
:104FA8004B46FBF701FB8046894636F00F0652D088
:104FB800B6F59A7F27DD4FF0000BCDF810B0CDF88D
:104FC80020B0CDF818B022234FF00008DFF8009188
:104FD800CAF80030089B002B3FF4F7AD50461A99E9
:104FE80002F054F95046069902F050F950460499D7
:104FF80002F04CF95046089902F048F959465046D3
:1050080002F044F9E1E5354B404605930023494653
:105018001F463611012E21DC0BB1804689462F4BE5
:10502800A9F1547903EBC7074246D7E900014B467B
:10503800FBF7BAFA264B0A460B40294980468B42B1
:10504800B9D8A1F580118B4286BF4FF0FF38DFF841
:10505800949002F15479002305937FE0F20705D577
:10506800059BD3E90023FBF79FFA0123059A013733
:10507800083276100592CDE7EDD0764216F00F0291
:105088000AD0154B404603EBC2034946D3E9002337
:10509800FBF7B4FB804689463611DCD01F2E23DD92
:1050A8004FF0000BCDF810B0CDF820B0CDF818B007
:1050B80022234FF000084FF00009CAF8003089E7B2
:1050C800E98600082C870008E18600086C8800083B
:1050D8000000F07F808B0008608A0008388A00088A
:1050E8000000A07CFFFFEF7F16F0100318BF6A23B3
:1050F8004046059349460023B04FF20704D5D7E947
:105108000023FBF751FA0123761007F10807F4D1C1
:105118000BB180468946059BC3B1C9F30A52C2F157
:105128006B03002B494611DD1F2B40F32781342BDD
:10513800D8BF4FF0FF334FF00008CFBF4FF05C7976
:10514800C2F14B0203FA02F202EA0109002200232B
:1051580040464946FBF790FC0028A1D1069B5A46D9
:10516800009350462346089902F0F8F80890002862
:105178003FF421AF049B4FF0000B5D1B079BCDF85C
:1051880010B0002BB4BF2B4600230E93079B23EAD5
:10519800E3731493089B5046596802F037F8069059
:1051A80000283FF410AF089B0C301A6903F10C017A
:1051B8000232920002F01CF81CAB01931BAB009367
:1051C80042464B465046CDE90C8902F009FC1A903C
:1051D80000283FF4F8AE0121504602F057F9034683
:1051E800049000283FF4EFAE1B9D1C9A002DABBF26
:1051F8000E9B149BEE185C1B059BA8BF149CA5EB8B
:10520800030515446E4B05F1FF35B8BF0E9E9D4250
:10521800C2F1360280F2C4805B1B1F2B4FF00107DE
:10522800A2EB030200F3B180002507FA03F30F9302
:10523800B718059BBE4214441C443346A8BF3B46DE
:10524800A342A8BF2346002BC2BFFF1AE41AF61ACE
:105258000E9B002B17DD1A465046049902F0D4F92C
:10526800049000283FF4AFAE01461A9A504602F067
:1052780023F9099000283FF4A6AE50461A9902F087
:1052880005F8099B1A93002F00F38E80079B002BCB
:1052980008DD5046149A069902F0B6F906900028DF
:1052A8003FF491AE002C08DD22465046069902F0E4
:1052B80005FA069000283FF486AE002E08DD324637
:1052C8005046049902F0FAF9049000283FF47BAEA6
:1052D8005046069A1A9902F07DFA834600283FF450
:1052E80072AE0024C3680499C4600B9302F056FAA6
:1052F800A0426BDA0B9B53EA080340F09180C9F394
:105308001303002B40F08C8029F000431B0D1B0574
:10531800B3F1D66F40F28480DBF814301BB9DBF8A8
:105328001030012B7CDD59460122504602F0C6F9A7
:105338000499834602F032FA002871DD05994B463C
:10534800204A002900F08C8002EA0901B1F1D66FE9
:1053580000F38680B1F15C7F7FF7AAAE40464946EC
:10536800194B0022FBF720F90B46034308BF222301
:105378008046894608BFCAF800302FE64FF0FF3252
:1053880002FA03F303EA0808E0E6C5F17F4505F5EC
:105398007F0505F57B45E23507FA05F50F9747E7E1
:1053A800012300250F9343E73A4650461A9902F025
:1053B80085F91A9000287FF469AF04E64087000851
:1053C80002FCFFFF0000F07F00005039CDF8249068
:1053D80065D10B9AC9F313035AB3994A93422BD157
:1053E800059B414603B34A46964B1340B3F1D46F2D
:1053F8004FF0FF321BD81B0DC3F16B0302FA03F306
:10540800994219D1904B099A9A4202D101313FF43D
:10541800DAAD4FF000088B4B099A1A4002F5801953
:10542800059B002B9AD1D9E54FF0FF33E8E71346E7
:10543800E6E753EA080381D0E5B1099B1D42EFD0A6
:105448000B9B40464946059AC3B1FFF75BFB0246F2
:105458000B46DDE90C01FAF7F1FE80468946DFE7E5
:105468001340A3F580136FEA13594FF0FF386FEA22
:105478000959D5E70F9B13EA080FE0E7FFF742FB4E
:1054880002460B46DDE90C01FAF7D6FE002200239E
:1054980080468946FBF7F0FA0028C1D008E658464E
:1054A800049902F0F9FA00224FF0804306460F46AD
:1054B800FBF7F6FA002870D00B9B002B42D0002691
:1054C800624F624D099B23F000431B0D1B050F9390
:1054D8000F9A5F4B9A4240F0C380099B4046A3F164
:1054E8005479494602F002FA02460B4630463946DC
:1054F800FBF75AF842464B46FAF7A0FE0B465149CD
:10550800544A1940914280465DD90D9A4E4B9A42B1
:1055180003D10C9B01333FF456AD4FF0FF38DFF851
:10552800289150461A9901F0B1FE5046069901F0AB
:10553800ADFE5046049901F0A9FE5946504601F0C7
:10554800A5FE27E6B8F1000F19D1099BC3F3130391
:10555800E3B90022304639463C4BFBF797FAC8B905
:105568000022304639463C4BFBF71EF804460D46F0
:1055780005F1004316941793DDE91667A2E7B8F121
:10558800010F03D1099B002B3FF492AD00260024A4
:10559800324F96E70B9C304DEAE72F4B00223046FE
:1055A8003946FBF701F80B9B04460D4633B901F168
:1055B800004310901193DDE9106783E702460B461C
:1055C800CDE91023F7E703F15479059B002BA8D107
:1055D80029F000430F9A1B0D1B059A42A1D12046C2
:1055E8002946FBF729FBFAF7B1FF02460B4620468E
:1055F8002946FAF721FE0B9AC9F3130343EA080375
:10560800134304460D4666D009A3D3E90023FBF7EC
:105618003DFA00287FF4E2AC07A3D3E90023204633
:105628002946FBF751FA00283FF47BAFD6E400BFC8
:105638009535A094FFFFDF3F35E5AF350000E03F2B
:10564800FFFF0F000000F07FFFFFEF7F0000F03F3B
:105658000000E07FFFFF9F7C0000E03F0000F0BFFC
:10566800059B13B30F9BB3F1D46F1ED826A3D3E9C0
:10567800002320462946FBF713FA90B12946204615
:10568800FBF76AFA012838BF0120FAF713FF0B9BD2
:1056980004460D46D3B901F1004312901393DDE996
:1056A80012670F9A07F1D6639F1ADDE90C0102F021
:1056B8001DF902460B4630463946FAF775FFDDE913
:1056C8000C23FAF7BBFD804689467EE702460B4667
:1056D800CDE91223E3E70EA3D3E90023FBF7D6F9BC
:1056E800A1E700230A93199B159A1360FFF771BA73
:1056F800652A3FF463AB452A3FF460AB0123FFF70B
:1057080095BB00BFAFF300800000C0FFFFFFDF4183
:105718009535A094FFFFCF3F014BFFF715BA00BFA7
:1057280074000020012B2DE9F047804601D0242B7E
:1057380006D9FEF795FA162303600020BDE8F08726
:105748000D46354F284615F8014BE65D16F008065C
:10575800F8D12D2C2FD101262C78851C002B57D061
:10576800102B09D1302C07D1287800F0DF005828F9
:1057780049D110236C780235002706F1004E0EF14E
:10578800FF3EBEFBF3F9384603FB19EAA4F1300CDF
:10579800BCF1090F14D86446A34222DD002F1DDB9B
:1057A80081451BD301D1A24518DB012700FB03402B
:1057B80015F8014BEAE72B2C04BF2C78851CCDE7A4
:1057C800A4F1410CBCF1190F01D8373CE4E7A4F16E
:1057D800610CBCF1190F04D8573CDDE74FF0FF37D7
:1057E800E6E7002F07DA22237046C8F80030002ABF
:1057F800A4D0691E05E006B14042002A9ED0002FC1
:10580800F7D111609AE73024002BB5D10823B3E70C
:10581800302CA9D00A23AFE769870008FFF782BFB9
:10582800F8B50E461446054618B183690BB901F060
:1058380047F8214B9C422BD16C68A369A360A389CC
:105848001A072FD523696BB323692068F6B2C01AEB
:1058580063693746834204DC2146284600F09CFFF2
:1058680030BBA3680130013BA36023685A1C226047
:105878001E706369834204D0A389DB0706D50A2E0C
:1058880004D12146284600F087FF88B93846F8BD7C
:105898000A4B9C4201D1AC68CFE7094B9C4208BF38
:1058A800EC68CAE72146284600F00CF80028CBD05F
:1058B8004FF0FF37EAE700BF1C8900083C89000861
:1058C800FC880008324B70B51D6806460C4625B1A9
:1058D800AB6913B9284600F0F3FF2E4B9C420FD159
:1058E8006C68A389B4F90C2019072CD4DD0611D4EF
:1058F8000923336042F040034FF0FF30A3813EE0BC
:10590800254B9C4201D1AC68EBE7244B9C4208BF75
:10591800EC68E6E7580712D5616B41B104F144031E
:10592800994202D0304602F03DF900236363A3890F
:1059380023F02403A3810023636023692360A389E0
:1059480043F00803A38123694BB9A38903F42073A7
:10595800B3F5007F03D02146304601F0E1FBA08972
:10596800B4F90C2010F001030AD00023A360636986
:105978005B42A361236943B910F08000BAD170BDBE
:10598800810758BF6369A360F4E70020F7E700BF09
:105998000C0000201C8900083C890008FC880008CD
:1059A8002DE9F74F03690C690746A342C0F28280CC
:1059B800013C00F1140501F1140805EB840301937F
:1059C80058F8243055F8242001339A42B2FBF3F6F4
:1059D8004FEA840B08EB840931D34FF0000E4046A0
:1059E800AC46F24650F8042B93B206FB03E3120CC4
:1059F8004FEA134E9BB206FB02E2AAEB0303DCF864
:105A080000A04FEA124E1FFA8AFA5344DCF800A0AD
:105A180092B2C2EB1A4202EB23429BB243EA024320
:105A280081454FEA224A4CF8043BDBD255F80B304B
:105A38002BB9019B043B9D421A462FD33C61384643
:105A480001F0ACFE002825DB28464FF0000C01369B
:105A580058F8041BD0F800E08BB2ACEB03031FFA34
:105A68008EF213440A0CC2EB1E4202EB23429BB295
:105A780043EA0243C1454FEA224C40F8043BE7D2CF
:105A880055F8242005EB840322B9043B9D421A46AD
:105A98000AD33C61304603B0BDE8F08F1268043B7E
:105AA800002ACBD1013CC6E71268043B002AF0D19A
:105AB800013CEBE70020EEE72DE9F04F16461F46C4
:105AC800446A99B00546CDE90467DDF8948074B955
