:020000040800F2
:100000000000012099480008814500088745000844
:100010008D45000893450008994500080000000040
:100020000000000000000000000000009F450008E4
:10003000AB45000800000000B7450008C3450008B4
:10004000E1480008E1480008E1480008E1480008EC
:10005000E1480008E1480008E1480008E1480008DC
:10006000E1480008E1480008E1480008E1480008CC
:10007000E1480008E1480008E1480008E1480008BC
:10008000E1480008E1480008E1480008E1480008AC
:10009000E1480008E1480008E1480008E14800089C
:1000A000E1480008E1480008E1480008E14800088C
:1000B000E1480008E1480008E1480008E14800087C
:1000C000E1480008E1480008E1480008E14800086C
:1000D000E1480008D1450008E1480008E14800086F
:1000E000E1480008E1480008E1480008E14800084C
:1000F000E1480008E1480008E1480008E14800083C
:10010000E1480008E1480008E1480008E14800082B
:10011000E1480008E1480008E1480008E14800081B
:10012000E1480008E1480008E1480008E14800080B
:1001300000000000000000000000000000000000BF
:1001400000000000000000000000000000000000AF
:10015000000000000000000000000000000000009F
:10016000000000000000000000000000000000008F
:10017000000000000000000000000000000000007F
:10018000000000000000000000000000000000006F
:10019000000000000000000000000000000000005F
:1001A000000000000000000000000000000000004F
:1001B000000000000000000000000000000000003F
:1001C000000000000000000000000000000000002F
:1001D000000000000000000000000000000000001F
:0401E0005FF8E0F1F3
:1001E80010B5054C237833B9044B13B10448AFF369
:1001F80000800123237010BDE801002000000000EA
:10020800BCB5000808B5034B1BB103490348AFF35D
:10021800008008BD00000000EC010020BCB500080B
:10022800034613F8012B002AFBD1181A013870472E
:1002380081F0004102E000BF83F0004330B54FEA8F
:1002480041044FEA430594EA050F08BF90EA020FFC
:100258001FBF54EA000C55EA020C7FEA645C7FEA8F
:10026800655C00F0E2804FEA5454D4EB5555B8BFB2
:100278006D420CDD2C4480EA020281EA030382EA23
:10028800000083EA010180EA020281EA0303362DB5
:1002980088BF30BD11F0004F4FEA01314FF4801C88
:1002A8004CEA113102D0404261EB410113F0004F9A
:1002B8004FEA03334CEA133302D0524263EB430351
:1002C80094EA050F00F0A780A4F10104D5F1200EEF
:1002D8000DDB02FA0EFC22FA05F2801841F100014A
:1002E80003FA0EF2801843FA05F359410EE0A5F11E
:1002F80020050EF1200E012A03FA0EFC28BF4CF04F
:10030800020C43FA05F3C01851EBE37101F0004504
:1003180007D54FF0000EDCF1000C7EEB00006EEB11
:100328000101B1F5801F1BD3B1F5001F0CD349089B
:100338005FEA30004FEA3C0C04F101044FEA4452F2
:1003480012F5800F80F09A80BCF1004F08BF5FEA79
:10035800500C50F1000041EB045141EA050130BD59
:100368005FEA4C0C404141EB0101013C28BFB1F56B
:10037800801FE9D291F0000F04BF01460020B1FAB6
:1003880081F308BF2033A3F10B03B3F120020CDA89
:100398000C3208DD02F1140CC2F10C0201FA0CF067
:1003A80021FA02F10CE002F11402D8BFC2F1200CCC
:1003B80001FA02F120FA0CFCDCBF41EA0C01904082
:1003C800E41AA2BF01EB0451294330BD6FEA0404CB
:1003D8001F3C1CDA0C340EDC04F11404C4F12002B6
:1003E80020FA04F001FA02F340EA030021FA04F3C8
:1003F80045EA030130BDC4F10C04C4F1200220FA1F
:1004080002F001FA04F340EA0300294630BD21FA5C
:1004180004F0294630BD94F0000F83F4801306BF22
:1004280081F480110134013D4EE77FEA645C18BF16
:100438007FEA655C29D094EA050F08BF90EA020FAD
:1004480005D054EA000C04BF1946104630BD91EAA5
:10045800030F1EBF0021002030BD5FEA545C05D1A8
:100468004000494128BF41F0004130BD14F58004E7
:100478003CBF01F5801130BD01F0004545F0FE415B
:1004880041F470014FF0000030BD7FEA645C1ABF90
:10049800194610467FEA655C1CBF0B46024650EAC7
:1004A800013406BF52EA033591EA030F41F40021F3
:1004B80030BD00BF90F0000F04BF0021704730B579
:1004C8004FF4806404F132044FF000054FF000014E
:1004D80050E700BF90F0000F04BF0021704730B50F
:1004E8004FF4806404F1320410F0004548BF4042E4
:1004F8004FF000013EE700BF42004FEAE2014FEA39
:1005080031014FEA02701FBF12F07F4393F07F4F13
:1005180081F06051704732F07F4208BF704793F016
:100528007F4F04BF41F40021704730B54FF4607429
:1005380001F0004521F000411CE700BF50EA01022C
:1005480008BF704730B54FF000050AE050EA0102D5
:1005580008BF704730B511F0004502D5404261EB45
:1005680041014FF4806404F132045FEA915C3FF486
:10057800D8AE4FF003025FEADC0C18BF03325FEA23
:10058800DC0C18BF033202EBDC02C2F1200300FAD4
:1005980003FC20FA02F001FA03FE40EA0E0021FAF9
:1005A80002F11444BDE600BF70B54FF0FF0C4CF4E7
:1005B800E06C1CEA11541DBF1CEA135594EA0C0F99
:1005C80095EA0C0F00F0DEF82C4481EA030621EAD4
:1005D8004C5123EA4C5350EA013518BF52EA03350F
:1005E80041F4801143F4801338D0A0FB02CE4FF0C1
:1005F8000005E1FB02E506F00042E0FB03E54FF0F1
:100608000006E1FB03569CF0000F18BF4EF0010EE8
:10061800A4F1FF04B6F5007F64F5407404D25FEAE4
:100628004E0E6D4146EB060642EAC62141EA555197
:100638004FEAC52040EA5E504FEACE2EB4F1FD0CD9
:1006480088BFBCF5E06F1ED8BEF1004F08BF5FEA57
:10065800500E50F1000041EB045170BD06F0004609
:1006680046EA010140EA020081EA0301B4EB5C04B6
:10067800C2BFD4EB0C0541EA045170BD41F48011AE
:100688004FF0000E013C00F3AB8014F1360FDEBFD3
:10069800002001F0004170BDC4F10004203C35DAAF
:1006A8000C341BDC04F11404C4F1200500FA05F332
:1006B80020FA04F001FA05F240EA020001F00042D3
:1006C80021F0004110EBD37021FA04F642EB060149
:1006D8005EEA430E08BF20EAD37070BDC4F10C0473
:1006E800C4F1200500FA04F320FA05F001FA04F237
:1006F80040EA020001F0004110EBD37041F1000123
:100708005EEA430E08BF20EAD37070BDC4F120052D
:1007180000FA05F24EEA020E20FA04F301FA05F295
:1007280043EA020321FA04F001F0004121FA04F23D
:1007380020EA020000EBD3705EEA430E08BF20EA0D
:10074800D37070BD94F0000F0FD101F00046400047
:1007580041EB010111F4801F08BF013CF7D041EAC9
:10076800060195F0000F18BF704703F000465200CD
:1007780043EB030313F4801F08BF013DF7D043EA9E
:100788000603704794EA0C0F0CEA135518BF95EA54
:100798000C0F0CD050EA410618BF52EA4306D1D1DB
:1007A80081EA030101F000414FF0000070BD50EAFA
:1007B800410606BF1046194652EA430619D094EA84
:1007C8000C0F02D150EA013613D195EA0C0F05D16E
:1007D80052EA03361CBF104619460AD181EA0301C2
:1007E80001F0004141F0FE4141F470014FF000007A
:1007F80070BD41F0FE4141F4780170BD70B54FF015
:10080800FF0C4CF4E06C1CEA11541DBF1CEA135594
:1008180094EA0C0F95EA0C0F00F0A7F8A4EB050476
:1008280081EA030E52EA03354FEA013100F088806D
:100838004FEA03334FF0805545EA131343EA126336
:100848004FEA022245EA111545EA10654FEA0026EB
:100858000EF000419D4208BF964244F1FD0404F5A4
:10086800407402D25B084FEA3202B61A65EB030500
:100878005B084FEA32024FF480104FF4002CB6EBBD
:10088800020E75EB030E22BFB61A754640EA0C003D
:100898005B084FEA3202B6EB020E75EB030E22BF7D
:1008A800B61A754640EA5C005B084FEA3202B6EBBE
:1008B800020E75EB030E22BFB61A754640EA9C007D
:1008C8005B084FEA3202B6EB020E75EB030E22BF4D
:1008D800B61A754640EADC0055EA060E18D04FEA0B
:1008E800051545EA16754FEA06164FEAC30343EAAB
:1008F80052734FEAC2025FEA1C1CC0D111F4801F78
:100908000BD141EA00014FF000004FF0004CB6E770
:1009180011F4801F04BF01430020B4F1FD0C88BF0F
:10092800BCF5E06F3FF6AFAEB5EB030C04BFB6EB1A
:10093800020C5FEA500C50F1000041EB045170BD0D
:100948000EF0004E4EEA113114EB5C04C2BFD4EB3A
:100958000C0541EA045170BD41F480114FF0000EBE
:10096800013C90E645EA060E8DE60CEA135594EA3A
:100978000C0F08BF95EA0C0F3FF43BAF94EA0C0F3D
:100988000AD150EA01347FF434AF95EA0C0F7FF4B2
:1009980025AF104619462CE795EA0C0F06D152EA06
:1009A80003353FF4FDAE1046194622E750EA4106EA
:1009B80018BF52EA43067FF4C5AE50EA41047FF4FB
:1009C8000DAF52EA43057FF4EBAE12E74FF0FF3C60
:1009D80006E000BF4FF0010C02E000BF4FF0010C31
:1009E8004DF804CD4FEA410C7FEA6C5C4FEA430CAA
:1009F80018BF7FEA6C5C1BD001B050EA410C0CBFF9
:100A080052EA430C91EA030F02BF90EA020F00205A
:100A1800704710F1000F91EA030F58BF994208BFC1
:100A280090422CBFD8176FEAE37040F0010070477E
:100A38004FEA410C7FEA6C5C02D150EA013C07D1D5
:100A48004FEA430C7FEA6C5CD6D152EA033CD3D020
:100A58005DF8040B704700BF8446104662468C461A
:100A68001946634600E000BF01B5FFF7B7FF00284D
:100A780048BF10F1000F01BD4DF808EDFFF7F4FF76
:100A88000CBF012000205DF808FB00BF4DF808ED01
:100A9800FFF7EAFF34BF012000205DF808FB00BF24
:100AA8004DF808EDFFF7E0FF94BF012000205DF846
:100AB80008FB00BF4DF808EDFFF7CEFF94BF0120FB
:100AC80000205DF808FB00BF4DF808EDFFF7C4FFF4
:100AD80034BF012000205DF808FB00BF4FEA410C3D
:100AE8007FEA6C5C02D150EA013C0AD14FEA430C20
:100AF8007FEA6C5C02D152EA033C02D14FF000005D
:100B080070474FF0010070474FEA410212F500129A
:100B180015D211D56FF47873B3EB625212D94FEA3C
:100B2800C12343F0004343EA505311F0004F23FA26
:100B380002F018BF404270474FF00000704750EA7B
:100B4800013005D111F0004008BF6FF00040704738
:100B58004FF00000704700BF4A0011D212F5001292
:100B680011D20DD56FF47873B3EB62520ED44FEAFD
:100B7800C12343F0004343EA505323FA02F070477D
:100B88004FF00000704750EA013002D14FF0FF30BB
:100B980070474FF0000070474FEA4102B2F1E0435E
:100BA80024BFB3F5001CDCF1FE5C0DD901F0004C4C
:100BB8004FEAC0024CEA5070B2F1004F40EB83009C
:100BC80008BF20F00100704711F0804F21D113F1C8
:100BD8003872BCBF01F00040704741F480114FEA01
:100BE8005252C2F11802C2F1200C10FA0CF320FA8A
:100BF80002F018BF40F001004FEAC1234FEAD323A7
:100C080003FA0CFC40EA0C0023FA02F34FEA430310
:100C1800CCE77FEA625307D150EA01331EBF4FF099
:100C2800FE4040F44000704701F0004040F0FE40B4
:100C380040F40000704700BF38B505460C46002256
:100C4800002328462146FFF721FF28B928462146D8
:100C5800BDE8384000F00AB8284604F1004100F029
:100C680005F8404261EB410138BD00BFD0B5002214
:100C78000B4B06460F46FFF797FCFFF76DFF044640
:100C8800FFF718FC0022074BFFF78EFC02460B46C5
:100C980030463946FFF7D0FAFFF75EFF2146D0BD50
:100CA8000000F03D0000F04180B586B000AF7860EC
:100CB8001C4B9B687B6103F069FE38617A681346B8
:100CC800DB001344DB00FB60FA687B699A4215D9A4
:100CD80000BF03F05BFE02463B699342F9D07A6994
:100CE800FB68D31A03F58C3303F5A073BB6000BF10
:100CF8000C4B9B68BA689A42FAD30FE07A69FB6892
:100D0800D31ABB6000BF074B9B68BA689A4205D2EA
:100D180003F03CFE02463B699342F4D000BF18370B
:100D2800BD4680BD10E000E080B582B000AF7860BD
:100D3800786803F035FE00BF0837BD4680BD000067
:100D480080B483B000AF0346FB80FB889BB2FB8076
:100D5800044BFA8892B21A8000BF0C37BD4680BC9B
:100D6800704700BFFE07006C80B483B000AF034635
:100D7800FB80FB889BB2FB80044BFA8892B25A80B6
:100D880000BF0C37BD4680BC704700BFFE07006C33
:100D980080B483B000AF054B5B889BB2FB80FB88B7
:100DA8009BB218460C37BD4680BC7047FE07006CE6
:100DB80080B483B000AF03460A46FB801346BB806D
:100DC800054AFB881380044ABB88538000BF0C3750
:100DD800BD4680BC704700BFFE07006C80B400AF02
:100DE800034B044A12891A8000BFBD4680BC704775
:100DF800FE07006C0402002080B582B000AF0346F5
:100E08000A46FB801346BB80654B9B8841F66312FC
:100E1800934267D1624B9B79002B1ED1604B1A8895
:100E2800FB88D31A9BB2013BFB805D4B5B8918465C
:100E3800FFF786FF0020FFF797FF0020FFF794FFDA
:100E4800FB881B0A9BB21846FFF78EFFFB88DBB2B4
:100E58009BB21846FFF788FF21E0514B5B89184683
:100E6800FFF76EFFFB881B0A9BB21846FFF77CFF53
:100E7800FB88DBB29BB21846FFF776FF484B1B880E
:100E8800013B1B129BB21846FFF76EFF444B1B88B1
:100E9800013B9BB2DBB29BB21846FFF765FF404BA4
:100EA8009B891846FFF74CFFBB881B0A9BB2184664
:100EB800FFF75AFFBB88DBB29BB21846FFF754FF17
:100EC800374B5B88013B1B129BB21846FFF74CFF60
:100ED800334B5B88013B9BB2DBB29BB21846FFF7F2
:100EE80043FF58E02E4B9B8845F21052934230D175
:100EF8002B4B5B891846FFF723FFFB881B0A9BB225
:100F08001846FFF731FF264B5B8901339BB2184621
:100F1800FFF716FFFB88DBB29BB21846FFF724FFEA
:100F28001F4B9B891846FFF70BFFBB881B0A9BB218
:100F38001846FFF719FF1A4B9B8901339BB21846D5
:100F4800FFF7FEFEBB88DBB29BB21846FFF70CFF2B
:100F580021E0134B5B891846FFF7F2FEFB881B0A5A
:100F68009BB21846FFF700FFFB88DBB29BB218461E
:100F7800FFF7FAFE0A4B9B891846FFF7E1FEBB888C
:100F88001B0A9BB21846FFF7EFFEBB88DBB29BB289
:100F98001846FFF7E9FE00BF0837BD4680BD00BF11
:100FA8000402002080B584B000AF0346FB71002323
:100FB800FB810023BB819A4B9B79012B05D1984B70
:100FC8009B8841F66312934209D1954B9B79002B7C
:100FD80034D1934B9B8841F6631293422ED1FB790F
:100FE800072B2CD801A252F823F000BF15100008D7
:100FF8001B10000821100008271000082D100008F9
:1010080033100008391000083F1000080623FB7150
:1010180015E00723FB7112E00423FB710FE00523A1
:10102800FB710CE00123FB7109E00023FB7106E072
:101038000323FB7103E00223FB7100E000BFFB798F
:10104800072B36D801A252F823F000BFBB100008C6
:10105800751000087F100008891000089310000818
:101068009D100008A7100008B1100008FB8943F084
:101078008003FB811DE0FB8943F04003FB8118E0FE
:10108800FB8943F0C003FB8113E0FB8943F0200395
:10109800FB810EE0FB8943F06003FB8109E0FB89DB
:1010A80043F0A003FB8104E0FB8943F0E003FB81EC
:1010B80000BF5B4B9B8845F21052934203D14FF41B
:1010C8005853BB8101E03623BB81554B9B8849F2BD
:1010D8004132934205D0524B9B8847F28972934222
:1010E80003D1FB8943F00803FB81FA89BB891146C8
:1010F8001846FFF75DFE4A4B9B8841F66312934200
:1011080025D0FB8903F02003002B10D0444B1A880C
:10111800434B5B889A421AD2414B1B887B81404BD8
:101128005A883F4B1A803E4A7B8953800FE03C4BDC
:101138001A883B4B5B889A4209D9394B1B887B81BB
:10114800374B5A88364B1A80354A7B895380344B43
:101158009B8845F21052934264D1314B5B89184603
:10116800FFF7EEFD0020FFF7FFFD2D4B5B890133F4
:101178009BB21846FFF7E4FD0020FFF7F5FD284B6A
:101188005B8902339BB21846FFF7DAFD244B1B88B4
:10119800013B1B129BB21846FFF7E6FD204B5B890B
:1011A80003339BB21846FFF7CBFD1D4B1B88013B51
:1011B8009BB2DBB29BB21846FFF7D6FD184B9B8952
:1011C8001846FFF7BDFD0020FFF7CEFD144B9B89A5
:1011D80001339BB21846FFF7B3FD0020FFF7C4FDAB
:1011E8000F4B9B8902339BB21846FFF7A9FD0C4BA6
:1011F8005B88013B1B129BB21846FFF7B5FD084BF5
:101208009B8903339BB21846FFF79AFD044B5B8812
:10121800013B9BB2DBB29BB21846FFF7A5FD39E054
:10122800040200201D4B5B891846FFF789FD00204A
:10123800FFF79AFD0020FFF797FD184B1B88013B2D
:101248001B129BB21846FFF78FFD144B1B88013BFE
:101258009BB2DBB29BB21846FFF786FD0F4B9B890A
:101268001846FFF76DFD0020FFF77EFD0020FFF711
:101278007BFD0A4B5B88013B1B129BB21846FFF7AC
:1012880073FD064B5B88013B9BB2DBB29BB21846F1
:10129800FFF76AFD00BF1037BD4680BD040200207D
:1012A80080B582B000AF0346FB800B46BB80134677
:1012B8007B80584B9B8845F21052934230D1554B56
:1012C8005B891846FFF73CFDFB881B0A9BB2184652
:1012D800FFF74AFD4F4B5B8901339BB21846FFF776
:1012E8002FFDFB88DBB29BB21846FFF73DFD494B4B
:1012F8009B891846FFF724FDBB881B0A9BB218463A
:10130800FFF732FD434B9B8901339BB21846FFF729
:1013180017FDBB88DBB29BB21846FFF725FD6DE0D1
:101328003C4B9B8841F66312934245D1394B9B79DC
:10133800002B06D1374B1A88FB88D31A9BB2013B86
:10134800FB80344B5B891846FFF7FAFCFB881B0AC5
:101358009BB21846FFF708FDFB88DBB29BB2184624
:10136800FFF702FDFB881B0A9BB21846FFF7FCFC3F
:10137800FB88DBB29BB21846FFF7F6FC254B9B892E
:101388001846FFF7DDFCBB881B0A9BB21846FFF71F
:10139800EBFCBB88DBB29BB21846FFF7E5FCBB88C9
:1013A8001B0A9BB21846FFF7DFFCBB88DBB29BB277
:1013B8001846FFF7D9FC21E0164B5B891846FFF762
:1013C800BFFCFB881B0A9BB21846FFF7CDFCFB88C5
:1013D800DBB29BB21846FFF7C7FC0E4B9B89184639
:1013E800FFF7AEFCBB881B0A9BB21846FFF7BCFC94
:1013F800BB88DBB29BB21846FFF7B6FC064B054A22
:1014080012891A80044A7B88538000BF0837BD467A
:1014180080BD00BF04020020FE07006C0000000031
:1014280080B582B000AF0346FB71BE20FFF788FC91
:101438000520FFF799FCFB791846FFF74BF810A336
:10144800D3E90023FFF7B0F802460B4610461946C9
:10145800FFF782FB03469BB21846FFF785FC012085
:10146800FFF782FCFF20FFF77FFC0020FFF77CFCE2
:101478000020FFF779FC00BF0837BD4680BD00BFDC
:10148800666666666666044080B582B000AF03464D
:10149800FB71584AFB799371FB79002B51D1554B5D
:1014A800F0221A80534B4FF4A0725A80514B9B88FC
:1014B80045F21052934214D14E4B4FF430521A81D8
:1014C8004C4B4FF428525A814A4B4FF42C529A8174
:1014D800484B4FF4F0721A80464B4FF448725A80CA
:1014E80020E0444B9B8841F66312934211D1414B53
:1014F8002C221A813F4B2B225A813E4B2A229A8159
:101508003C4B4FF4F0721A803A4B4FF448725A80B1
:1015180008E0384B2C221A81364B2A225A81354B47
:101528002B229A81334B9B8845F21032934259D132
:10153800304B4FF4A0721A802E4B4FF4F0725A8041
:1015480050E02C4B4FF4A0721A802A4BF0225A809C
:10155800284B9B8845F21052934214D1254B4FF4E7
:1015680030521A81234B4FF428525A81214B4FF4A1
:101578002C529A811F4B4FF448721A801D4B4FF41E
:10158800F0725A8020E01B4B9B8841F6631293420D
:1015980011D1184B2C221A81164B2A225A81154B2D
:1015A8002B229A81134B4FF448721A80114B4FF437
:1015B800F0725A8008E00F4B2C221A810D4B2A2218
:1015C8005A810C4B2B229A810A4B9B8845F2103288
:1015D800934207D1074B4FF4F0721A80054B4FF432
:1015E800A0725A800020FFF7DDFC00BF0837BD4617
:1015F80080BD00BF0402002080B586B000AF8C4BD0
:101608009B698B4A43F008039361894B9B6903F0FC
:1016180008037B607B680123BB600123FB60012317
:101628003B6103237B6107F108031946814803F0F6
:101638002BFE3220FFF778FBD320FFF781FBFFF763
:10164800A7FB03461A467C4B9A80FFF7A1FB03468B
:101658001A46794B9A80FFF79BFB03461A46764B4E
:101668009A80754B9B881B029AB2734B9A80FFF73E
:101678008FFB03461A46704B9B8813439AB26E4BF6
:101688009A806D4B9B8849F24132934200F0C780A3
:101698000420FFF755FBFFF77BFB03461A46664B12
:1016A8009A80FFF775FB03461A46634B9A80FFF74B
:1016B8006FFB03461A46604B9A805F4B9B881B0260
:1016C8009AB25D4B9A80FFF763FB03461A465A4B62
:1016D8009B8813439AB2584B9A80574B9B8848F281
:1016E8005252934203D1544B47F289729A80524B1B
:1016F8009B8847F28972934200F09180D420FFF7CB
:101708001FFBFFF745FB03461A464B4B9A80FFF732
:101718003FFB03461A46484B9A80FFF739FB0346BE
:101728001A46454B9A80444B9B881B029AB2424BFF
:101738009A80FFF72DFB03461A463F4B9B881343BD
:101748009AB23D4B9A803C4B9B8845F210329342AB
:1017580065D055214FF47040FFF72AFBAA214FF2BC
:101768000100FFF725FB52214FF20200FFF720FB93
:1017780008214FF20300FFF71BFB01214FF2040081
:10178800FFF716FB4FF44540FFF7DAFAFFF700FBC7
:1017980003461A46284B9A80274B9B881B029AB20D
:1017A800254B9A804CF20150FFF7CAFAFFF7F0FA7E
:1017B80003461A46204B9B8813439AB21E4B9A80C5
:1017C8001D4B9B8845F21052934228D0A120FFF769
:1017D800B7FAFFF7DDFA03461A46174B9A80FFF768
:1017E800D7FA03461A46144B9A80134B9B881B0260
:1017F8009AB2114B9A80FFF7CBFA03461A460E4B62
:101808009B8813439AB20C4B9A800B4B9B8845F2EA
:101818006172934203D1084B41F663129A80064BDA
:101828009B8849F24132934240F01E8106E000BF96
:1018380000100240000C014004020020CF20FFF7F6
:101848007FFA0020FFF790FAC120FFF78DFA3020C9
:10185800FFF78AFAED20FFF773FA6420FFF784FA9E
:101868000320FFF781FA1220FFF77EFA8120FFF7A5
:101878007BFAE820FFF764FA8520FFF775FA102055
:10188800FFF772FA7A20FFF76FFACB20FFF758FAC2
:101898003920FFF769FA2C20FFF766FA0020FFF7D6
:1018A80063FA3420FFF760FA0220FFF75DFAF720A9
:1018B800FFF746FA2020FFF757FAEA20FFF740FA29
:1018C8000020FFF751FA0020FFF74EFAC020FFF77B
:1018D80037FA1B20FFF748FAC120FFF731FA012039
:1018E800FFF742FAC520FFF72BFA3020FFF73CFA42
:1018F8003020FFF739FAC720FFF722FAB720FFF7A1
:1019080033FA3620FFF71CFA4820FFF72DFA3A2061
:10191800FFF716FA5520FFF727FAB120FFF710FA5C
:101928000020FFF721FA1A20FFF71EFAB620FFF76A
:1019380007FA0A20FFF718FAA220FFF715FAF22093
:10194800FFF7FEF90020FFF70FFA2620FFF7F8F956
:101958000120FFF709FAE020FFF7F2F90F20FFF75F
:1019680003FA2A20FFF700FA2820FFF7FDF90820DC
:10197800FFF7FAF90E20FFF7F7F90820FFF7F4F957
:101988005420FFF7F1F9A920FFF7EEF94320FFF7FC
:10199800EBF90A20FFF7E8F90F20FFF7E5F9002037
:1019A800FFF7E2F90020FFF7DFF90020FFF7DCF985
:1019B8000020FFF7D9F9E120FFF7C2F90020FFF76F
:1019C800D3F91520FFF7D0F91720FFF7CDF9072035
:1019D800FFF7CAF91120FFF7C7F90620FFF7C4F986
:1019E8002B20FFF7C1F95620FFF7BEF93C20FFF77F
:1019F800BBF90520FFF7B8F91020FFF7B5F90F205C
:101A0800FFF7B2F93F20FFF7AFF93F20FFF7ACF936
:101A18000F20FFF7A9F92B20FFF792F90020FFF715
:101A2800A3F90020FFF7A0F90120FFF79DF93F2057
:101A3800FFF79AF92A20FFF783F90020FFF794F9B6
:101A48000020FFF791F90020FFF78EF9EF20FFF74C
:101A58008BF91120FFF774F97820FFF765F9292031
:101A6800FFF76EF902F0A8B86D4B9B8847F28972B0
:101A7800934240F0D7801120FFF762F97820FFF7F2
:101A880053F93620FFF75CF90020FFF76DF93A208B
:101A9800FFF756F90520FFF767F9B220FFF750F96D
:101AA8000C20FFF761F90C20FFF75EF90020FFF723
:101AB8005BF93320FFF758F93320FFF755F9B720C2
:101AC800FFF73EF93520FFF74FF9BB20FFF738F94C
:101AD8003220FFF749F9C020FFF732F90C20FFF751
:101AE80043F9C220FFF72CF90120FFF73DF9C32085
:101AF800FFF726F91020FFF737F9C420FFF720F980
:101B08002020FFF731F9C620FFF71AF90F20FFF759
:101B18002BF9D020FFF714F9A420FFF725F9A1200D
:101B2800FFF722F9E020FFF70BF9D020FFF71CF9A7
:101B38000020FFF719F90220FFF716F90720FFF731
:101B480013F90A20FFF710F92820FFF70DF93220C2
:101B5800FFF70AF94420FFF707F94220FFF704F9D5
:101B68000620FFF701F90E20FFF7FEF81220FFF715
:101B7800FBF81420FFF7F8F81720FFF7F5F8E12035
:101B8800FFF7DEF8D020FFF7EFF80020FFF7ECF8BA
:101B98000220FFF7E9F80720FFF7E6F80A20FFF729
:101BA800E3F82820FFF7E0F83120FFF7DDF85420AC
:101BB800FFF7DAF84720FFF7D7F80E20FFF7D4F839
:101BC8001C20FFF7D1F81720FFF7CEF81B20FFF7EE
:101BD800CBF81E20FFF7C8F82A20FFF7B1F800203D
:101BE800FFF7C2F80020FFF7BFF80020FFF7BCF8A6
:101BF800EF20FFF7B9F82B20FFF7A2F80020FFF736
:101C0800B3F80020FFF7B0F80120FFF7ADF83F2048
:101C1800FFF7AAF82920FFF793F801F0CDBF00BF1E
:101C280004020020034B9B8845F21032934240F097
:101C38007C8701E004020020ED20FFF781F80120F5
:101C4800FFF792F8FE20FFF78FF8EE20FFF778F8FD
:101C5800DE20FFF789F82120FFF786F8F120FFF74B
:101C68006FF80120FFF780F8DF20FFF769F81020F0
:101C7800FFF77AF8C420FFF763F88F20FFF774F8AE
:101C8800C620FFF75DF80020FFF76EF8E220FFF7A7
:101C98006BF8E220FFF768F8E220FFF765F8BF204D
:101CA800FFF74EF8AA20FFF75FF8B020FFF748F8D3
:101CB8000D20FFF759F80020FFF756F80D20FFF721
:101CC80053F80020FFF750F81120FFF74DF80020D7
:101CD800FFF74AF81920FFF747F80020FFF744F804
:101CE8002120FFF741F80020FFF73EF82D20FFF7ED
:101CF8003BF80020FFF738F83D20FFF735F80020C3
:101D0800FFF732F85D20FFF72FF80020FFF72CF8D7
:101D18005D20FFF729F80020FFF726F8B120FFF72C
:101D28000FF88020FFF720F80020FFF71DF88B2020
:101D3800FFF71AF80020FFF717F89620FFF714F8B6
:101D48000020FFF711F8B220FEF7FAFF0020FFF796
:101D58000BF80020FFF708F80220FFF705F800202D
:101D6800FFF702F80320FEF7FFFF0020FEF7FCFF55
:101D7800B320FEF7E5FF0020FEF7F6FF0020FEF790
:101D8800F3FF0020FEF7F0FF0020FEF7EDFF002034
:101D9800FEF7EAFF0020FEF7E7FF0020FEF7E4FF6A
:101DA8000020FEF7E1FF0020FEF7DEFF0020FEF72F
:101DB800DBFF0020FEF7D8FF0020FEF7D5FF00204C
:101DC800FEF7D2FF0020FEF7CFFF0020FEF7CCFF82
:101DD8000020FEF7C9FF0020FEF7C6FF0020FEF72F
:101DE800C3FF0020FEF7C0FF0020FEF7BDFF002064
:101DF800FEF7BAFF0020FEF7B7FF0020FEF7B4FF9A
:101E08000020FEF7B1FFB420FEF79AFF8B20FEF703
:101E1800ABFF0020FEF7A8FF9620FEF7A5FF0020E5
:101E2800FEF7A2FFA120FEF79FFF0020FEF79CFF10
:101E3800B520FEF785FF0220FEF796FF0020FEF78B
:101E480093FF0320FEF790FF0020FEF78DFF04208C
:101E5800FEF78AFF0020FEF787FFB620FEF770FF27
:101E68000020FEF781FF0020FEF77EFFB720FEF777
:101E780067FF0020FEF778FF0020FEF775FF3F2080
:101E8800FEF772FF0020FEF76FFF5E20FEF76CFF83
:101E98000020FEF769FF6420FEF766FF0020FEF7CA
:101EA80063FF8C20FEF760FF0020FEF75DFFAC208B
:101EB800FEF75AFF0020FEF757FFDC20FEF754FF1D
:101EC8000020FEF751FF7020FEF74EFF0020FEF7BE
:101ED8004BFF9020FEF748FF0020FEF745FFEB2060
:101EE800FEF742FF0020FEF73FFFDC20FEF73CFF35
:101EF8000020FEF739FFB820FEF722FF0020FEF78A
:101F080033FF0020FEF730FF0020FEF72DFF0020F2
:101F1800FEF72AFF0020FEF727FF0020FEF724FF28
:101F28000020FEF721FF0020FEF71EFFBA20FEF773
:101F380007FF2420FEF718FF0020FEF715FF0020FA
:101F4800FEF712FF0020FEF70FFFC120FEF7F8FE94
:101F58002020FEF709FF0020FEF706FF5420FEF7B9
:101F680003FF0020FEF700FFFF20FEF7FDFE002024
:101F7800FEF7FAFEC220FEF7E3FE0A20FEF7F4FEA3
:101F88000020FEF7F1FE0420FEF7EEFE0020FEF72B
:101F9800EBFEC320FEF7D4FE3C20FEF7E5FE002052
:101FA800FEF7E2FE3A20FEF7DFFE0020FEF7DCFE39
:101FB8003920FEF7D9FE0020FEF7D6FE3720FEF7BF
:101FC800D3FE0020FEF7D0FE3C20FEF7CDFE002019
:101FD800FEF7CAFE3620FEF7C7FE0020FEF7C4FE55
:101FE8003220FEF7C1FE0020FEF7BEFE2F20FEF7CE
:101FF800BBFE0020FEF7B8FE2C20FEF7B5FE002041
:10200800FEF7B2FE2920FEF7AFFE0020FEF7ACFE79
:102018002620FEF7A9FE0020FEF7A6FE2420FEF7E4
:10202800A3FE0020FEF7A0FE2420FEF79DFE002060
:10203800FEF79AFE2320FEF797FE0020FEF794FE97
:102048003C20FEF791FE0020FEF78EFE3620FEF7BC
:102058008BFE0020FEF788FE3220FEF785FE00206A
:10206800FEF782FE2F20FEF77FFE0020FEF77CFEA3
:102078002C20FEF779FE0020FEF776FE2920FEF7D9
:1020880073FE0020FEF770FE2620FEF76DFE00208E
:10209800FEF76AFE2420FEF767FE0020FEF764FEC6
:1020A8002420FEF761FE0020FEF75EFE2320FEF7E7
:1020B8005BFE0020FEF758FEC420FEF741FE6220BA
:1020C800FEF752FE0020FEF74FFE0520FEF74CFEFD
:1020D8000020FEF749FE8420FEF746FE0020FEF7AA
:1020E80043FEF020FEF740FE0020FEF73DFE1820DC
:1020F800FEF73AFE0020FEF737FEA420FEF734FE76
:102108000020FEF731FE1820FEF72EFE0020FEF715
:102118002BFE5020FEF728FE0020FEF725FE0C209F
:10212800FEF722FE0020FEF71FFE1720FEF71CFE1A
:102138000020FEF719FE9520FEF716FE0020FEF798
:1021480013FEF320FEF710FE0020FEF70DFEE6203A
:10215800FEF70AFE0020FEF707FEC520FEF7F0FD99
:102168003220FEF701FE0020FEF7FEFD4420FEF7B8
:10217800FBFD0020FEF7F8FD6520FEF7F5FD0020C9
:10218800FEF7F2FD7620FEF7EFFD0020FEF7ECFDEE
:102198008820FEF7E9FD0020FEF7E6FDC620FEF7E1
:1021A800CFFD2020FEF7E0FD0020FEF7DDFD172023
:1021B800FEF7DAFD0020FEF7D7FD0120FEF7D4FD7B
:1021C8000020FEF7D1FDC720FEF7BAFD0020FEF77C
:1021D800CBFD0020FEF7C8FD0020FEF7C5FD00205E
:1021E800FEF7C2FDC820FEF7ABFD0020FEF7BCFDE0
:1021F8000020FEF7B9FD0020FEF7B6FD0020FEF72F
:10220800B3FDC920FEF79CFD0020FEF7ADFD0020C0
:10221800FEF7AAFD0020FEF7A7FD0020FEF7A4FDAB
:102228000020FEF7A1FD0020FEF79EFD0020FEF72E
:102238009BFD0020FEF798FD0020FEF795FD00208D
:10224800FEF792FD0020FEF78FFD0020FEF78CFDC3
:102258000020FEF789FD0020FEF786FD0020FEF72E
:1022680083FD0020FEF780FDE020FEF769FD1620C3
:10227800FEF77AFD0020FEF777FD1C20FEF774FDBF
:102288000020FEF771FD2120FEF76EFD0020FEF70D
:102298006BFD3620FEF768FD0020FEF765FD462041
:1022A800FEF762FD0020FEF75FFD5220FEF75CFDA1
:1022B8000020FEF759FD6420FEF756FD0020FEF7CA
:1022C80053FD7A20FEF750FD0020FEF74DFD8B20D0
:1022D800FEF74AFD0020FEF747FD9920FEF744FD72
:1022E8000020FEF741FDA820FEF73EFD0020FEF786
:1022F8003BFDB920FEF738FD0020FEF735FDC42070
:10230800FEF732FD0020FEF72FFDCA20FEF72CFD58
:102318000020FEF729FDD220FEF726FD0020FEF75B
:1023280023FDD920FEF720FD0020FEF71DFDE0204B
:10233800FEF71AFD0020FEF717FDF320FEF714FD47
:102348000020FEF711FDE120FEF7FAFC1620FEF74B
:102358000BFD0020FEF708FD1C20FEF705FD002000
:10236800FEF702FD2220FEF7FFFC0020FEF7FCFC32
:102378003620FEF7F9FC0020FEF7F6FC4520FEF7B4
:10238800F3FC0020FEF7F0FC5220FEF7EDFC0020E5
:10239800FEF7EAFC6420FEF7E7FC0020FEF7E4FC09
:1023A8007A20FEF7E1FC0020FEF7DEFC8B20FEF72A
:1023B800DBFC0020FEF7D8FC9920FEF7D5FC0020B6
:1023C800FEF7D2FCA820FEF7CFFC0020FEF7CCFCDD
:1023D800B920FEF7C9FC0020FEF7C6FCC420FEF7B2
:1023E800C3FC0020FEF7C0FCCA20FEF7BDFC00209D
:1023F800FEF7BAFCD220FEF7B7FC0020FEF7B4FCCB
:10240800D820FEF7B1FC0020FEF7AEFCE020FEF776
:10241800ABFC0020FEF7A8FCF320FEF7A5FC00208B
:10242800FEF7A2FCE220FEF78BFC0520FEF79CFCE1
:102438000020FEF799FC0B20FEF796FC0020FEF723
:1024480093FC1B20FEF790FC0020FEF78DFC342047
:10245800FEF78AFC0020FEF787FC4420FEF784FC88
:102468000020FEF781FC4F20FEF77EFC0020FEF7DF
:102478007BFC6120FEF778FC0020FEF775FC7920D4
:10248800FEF772FC0020FEF76FFC8820FEF76CFC5C
:102498000020FEF769FC9720FEF766FC0020FEF797
:1024A80063FCA620FEF760FC0020FEF75DFCB72069
:1024B800FEF75AFC0020FEF757FCC220FEF754FC3A
:1024C8000020FEF751FCC720FEF74EFC0020FEF767
:1024D8004BFCD120FEF748FC0020FEF745FCD62037
:1024E800FEF742FC0020FEF73FFCDD20FEF73CFC37
:1024F8000020FEF739FCF320FEF736FC0020FEF73B
:1025080033FCE320FEF71CFC0520FEF72DFC002021
:10251800FEF72AFC0A20FEF727FC0020FEF724FC21
:102528001C20FEF721FC0020FEF71EFC3320FEF7DE
:102538001BFC0020FEF718FC4420FEF715FC0020C9
:10254800FEF712FC5020FEF70FFC0020FEF70CFCF3
:102558006220FEF709FC0020FEF706FC7820FEF753
:1025680003FC0020FEF700FC8820FEF7FDFB00209E
:10257800FEF7FAFB9720FEF7F7FB0020FEF7F4FBC7
:10258800A620FEF7F1FB0020FEF7EEFBB720FEF7D2
:10259800EBFB0020FEF7E8FBC220FEF7E5FB00207E
:1025A800FEF7E2FBC720FEF7DFFB0020FEF7DCFBAF
:1025B800D120FEF7D9FB0020FEF7D6FBD520FEF789
:1025C800D3FB0020FEF7D0FBDD20FEF7CDFB00207B
:1025D800FEF7CAFBF320FEF7C7FB0020FEF7C4FB9B
:1025E800E420FEF7ADFB0120FEF7BEFB0020FEF75E
:1025F800BBFB0120FEF7B8FB0020FEF7B5FB02206D
:10260800FEF7B2FB0020FEF7AFFB2A20FEF7ACFB7B
:102618000020FEF7A9FB3C20FEF7A6FB0020FEF7F2
:10262800A3FB4B20FEF7A0FB0020FEF79DFB5D20DF
:10263800FEF79AFB0020FEF797FB7420FEF794FB49
:102648000020FEF791FB8420FEF78EFB0020FEF7AA
:102658008BFB9320FEF788FB0020FEF785FBA2206A
:10266800FEF782FB0020FEF77FFBB320FEF77CFB22
:102678000020FEF779FBBE20FEF776FB0020FEF770
:1026880073FBC420FEF770FB0020FEF76DFBCD2026
:10269800FEF76AFB0020FEF767FBD320FEF764FB1A
:1026A8000020FEF761FBDD20FEF75EFB0020FEF751
:1026B8005BFBF320FEF758FB0020FEF755FBE520F7
:1026C800FEF73EFB0020FEF74FFB0020FEF74CFB19
:1026D8000020FEF749FB0020FEF746FB0220FEF72C
:1026E80043FB0020FEF740FB2920FEF73DFB0020BE
:1026F800FEF73AFB3C20FEF737FB0020FEF734FBE1
:102708004B20FEF731FB0020FEF72EFB5D20FEF785
:102718002BFB0020FEF728FB7420FEF725FB00208A
:10272800FEF722FB8420FEF71FFB0020FEF71CFBB0
:102738009320FEF719FB0020FEF716FBA220FEF7F8
:1027480013FB0020FEF710FBB320FEF70DFB002063
:10275800FEF70AFBBE20FEF707FB0020FEF704FB8E
:10276800C420FEF701FB0020FEF7FEFACD20FEF79D
:10277800FBFA0020FEF7F8FAD320FEF7F5FA00205E
:10278800FEF7F2FADC20FEF7EFFA0020FEF7ECFA8B
:10279800F320FEF7E9FA0020FEF7E6FAE620FEF756
:1027A800CFFA1120FEF7E0FA0020FEF7DDFA342018
:1027B800FEF7DAFA0020FEF7D7FA5620FEF7D4FA29
:1027C8000020FEF7D1FA7620FEF7CEFA0020FEF7B9
:1027D800CBFA7720FEF7C8FA0020FEF7C5FA662084
:1027E800FEF7C2FA0020FEF7BFFA8820FEF7BCFA0F
:1027F8000020FEF7B9FA9920FEF7B6FA0020FEF796
:10280800B3FABB20FEF7B0FA0020FEF7ADFA992024
:10281800FEF7AAFA0020FEF7A7FA6620FEF7A4FA48
:102828000020FEF7A1FA5520FEF79EFA0020FEF7D9
:102838009BFA5520FEF798FA0020FEF795FA4520F6
:10284800FEF792FA0020FEF78FFA4320FEF78CFA83
:102858000020FEF789FA4420FEF786FA0020FEF7EA
:1028680083FAE720FEF76CFA3220FEF77DFA0020A3
:10287800FEF77AFA5520FEF777FA0020FEF774FA89
:102888007620FEF771FA0020FEF76EFA6620FEF752
:102898006BFA0020FEF768FA6720FEF765FA002059
:1028A800FEF762FA6720FEF75FFA0020FEF75CFA8F
:1028B8008720FEF759FA0020FEF756FA9920FEF70E
:1028C80053FA0020FEF750FABB20FEF74DFA00201D
:1028D800FEF74AFA9920FEF747FA0020FEF744FA75
:1028E8007720FEF741FA0020FEF73EFA4420FEF773
:1028F8003BFA0020FEF738FA5620FEF735FA00209A
:10290800FEF732FA2320FEF72FFA0020FEF72CFA02
:102918003320FEF729FA0020FEF726FA4520FEF7B5
:1029280023FA0020FEF720FAE820FEF709FA002033
:10293800FEF71AFA0020FEF717FA9920FEF714FAA4
:102948000020FEF711FA8720FEF70EFA0020FEF7A6
:102958000BFA8820FEF708FA0020FEF705FA772020
:10296800FEF702FA0020FEF7FFF96620FEF7FCF9F1
:102978000020FEF7F9F98820FEF7F6F90020FEF7A7
:10298800F3F9AA20FEF7F0F90020FEF7EDF9BB20D5
:10299800FEF7EAF90020FEF7E7F99920FEF7E4F9D7
:1029A8000020FEF7E1F96620FEF7DEF90020FEF7C9
:1029B800DBF95520FEF7D8F90020FEF7D5F95520A8
:1029C800FEF7D2F90020FEF7CFF94420FEF7CCF944
:1029D8000020FEF7C9F94420FEF7C6F90020FEF7EB
:1029E800C3F95520FEF7C0F90020FEF7BDF9E9202C
:1029F800FEF7A6F9AA20FEF7B7F90020FEF7B4F90A
:102A08000020FEF7B1F90020FEF7AEF90020FEF72E
:102A180097F9AA20FEF7A8F9CF20FEF791F9002030
:102A2800FEF7A2F90020FEF79FF90020FEF79CF9B7
:102A38000020FEF799F90020FEF796F90020FEF72E
:102A480093F90020FEF790F90020FEF78DF9002099
:102A5800FEF78AF90020FEF787F90020FEF784F9CF
:102A68000020FEF781F90020FEF77EF90020FEF72E
:102A78007BF90020FEF778F90020FEF775F90020B1
:102A8800FEF772F9F020FEF75BF90020FEF76CF90B
:102A98005020FEF769F90020FEF766F90020FEF7DE
:102AA80063F90020FEF760F9F320FEF749F90020EA
:102AB800FEF75AF9F920FEF743F90620FEF754F914
:102AC8001020FEF751F92920FEF74EF90020FEF7F5
:102AD8004BF93A20FEF734F95520FEF745F9112055
:102AE800FEF72EF96420FEF71FF92920FEF728F9D2
:102AF8003520FEF725F90020FEF736F95120FEF7BC
:102B08001FF9FF20FEF730F95320FEF719F92C20A2
:102B1800FEF72AF95520FEF713F98220FEF724F96B
:102B28002C20FEF70DF901F047B8044B9B8845F2BD
:102B38001052934240F0818702E000BF0402002057
:102B480055214FF47040FEF733F9AA214FF20100E6
:102B5800FEF72EF952214FF20200FEF729F908215B
:102B68004FF20300FEF724F901214FF20400FEF7AB
:102B78001FF90D214FF43040FEF71AF90D214BF2E1
:102B88000100FEF715F90D214BF20200FEF710F9CE
:102B980034214FF43640FEF70BF934214BF2016033
:102BA800FEF706F934214BF20260FEF701F90D2118
:102BB8004FF43140FEF7FCF80D214BF20110FEF7FF
:102BC800F7F80D214BF20210FEF7F2F834214FF41A
:102BD8003740FEF7EDF834214BF20170FEF7E8F8C4
:102BE80034214BF20270FEF7E3F800214FF4324033
:102BF800FEF7DEF800214BF20120FEF7D9F800219C
:102C08004BF20220FEF7D4F824214FF43840FEF7A7
:102C1800CFF824214BF60100FEF7CAF824214BF621
:102C28000200FEF7C5F801214FF43F40FEF7C0F857
:102C38000F214FF43340FEF7BBF80F214BF2013060
:102C4800FEF7B6F80F214BF20230FEF7B1F8342147
:102C58004FF43940FEF7ACF834214BF60110FEF77B
:102C6800A7F834214BF60210FEF7A2F808214FF41A
:102C78003540FEF79DF808214BF20150FEF798F811
:102C880008214BF20250FEF793F803214FF442401B
:102C9800FEF78EF824214FF43A40FEF789F82421F4
:102CA8004BF60120FEF784F824214BF60220FEF7AC
:102CB8007FF800214FF43C40FEF77AF878214BF674
:102CC8000140FEF775F800214BF60240FEF770F858
:102CD80000214FF43D40FEF76BF878214BF6015088
:102CE800FEF766F800214BF60250FEF761F8002166
:102CF8004FF43E40FEF75CF864214BF60160FEF7A6
:102D080057F800214FF45140FEF752F833214DF2A5
:102D18000110FEF74DF800214DF20210FEF748F8B9
:102D280034214DF20310FEF743F800214DF2041050
:102D3800FEF73EF83A214DF20510FEF739F800216A
:102D48004DF20610FEF734F84A214DF20710FEF74F
:102D58002FF800214DF20810FEF72AF85C214DF2F9
:102D68000910FEF725F800214DF20A10FEF720F8A9
:102D780081214DF20B10FEF71BF800214DF20C10CB
:102D8800FEF716F8A6214DF20D10FEF711F80021F6
:102D98004DF20E10FEF70CF8E5214DF20F10FEF77C
:102DA80007F801214DF21010FEF702F813214DF239
:102DB8001110FDF7FDFF01214DF21210FDF7F8FF8C
:102DC80054214DF21310FDF7F3FF01214DF21410B9
:102DD800FDF7EEFF82214DF21510FDF7E9FF012105
:102DE8004DF21610FDF7E4FFCA214DF21710FDF75A
:102DF800DFFF02214DF21810FDF7DAFF00214DF236
:102E08001910FDF7D5FF02214DF21A10FDF7D0FF7A
:102E180001214DF21B10FDF7CBFF02214DF21C10D2
:102E2800FDF7C6FF34214DF21D10FDF7C1FF022149
:102E38004DF21E10FDF7BCFF67214DF21F10FDF784
:102E4800B7FF02214DF22010FDF7B2FF84214DF2A9
:102E58002110FDF7ADFF02214DF22210FDF7A8FF6A
:102E6800A4214DF22310FDF7A3FF02214DF22410F7
:102E7800FDF79EFFB7214DF22510FDF799FF0221BE
:102E88004DF22610FDF794FFCF214DF22710FDF7E4
:102E98008FFF02214DF22810FDF78AFFDE214DF247
:102EA8002910FDF785FF02214DF22A10FDF780FF5A
:102EB800F2214DF22B10FDF77BFF02214DF22C1071
:102EC800FDF776FFFE214DF22D10FDF771FF03216E
:102ED8004DF22E10FDF76CFF10214DF22F10FDF76B
:102EE80067FF03214DF23010FDF762FF33214DF2E9
:102EF8003110FDF75DFF03214DF23210FDF758FF49
:102F08006D214DF23310FDF753FF00214FF452406D
:102F1800FDF74EFF33214DF20120FDF749FF002157
:102F28004DF20220FDF744FF34214DF20320FDF756
:102F38003FFF00214DF20420FDF73AFF3A214DF200
:102F48000520FDF735FF00214DF20620FDF730FF83
:102F58004A214DF20720FDF72BFF00214DF20820F2
:102F6800FDF726FF5C214DF20920FDF721FF002126
:102F78004DF20A20FDF71CFF81214DF20B20FDF7D1
:102F880017FF00214DF20C20FDF712FFA6214DF28C
:102F98000D20FDF70DFF00214DF20E20FDF708FF73
:102FA800E5214DF20F20FDF703FF01214DF210201E
:102FB800FDF7FEFE13214DF21120FDF7F9FE012168
:102FC8004DF21220FDF7F4FE54214DF21320FDF7C7
:102FD800EFFE01214DF21420FDF7EAFE82214DF2A9
:102FE8001520FDF7E5FE01214DF21620FDF7E0FE64
:102FF800CA214DF21720FDF7DBFE02214DF2182001
:10300800FDF7D6FE00214DF21920FDF7D1FE022171
:103018004DF21A20FDF7CCFE01214DF21B20FDF7E1
:10302800C7FE02214DF21C20FDF7C2FE34214DF2ED
:103038001D20FDF7BDFE02214DF21E20FDF7B8FE52
:1030480067214DF21F20FDF7B3FE02214DF220202B
:10305800FDF7AEFE84214DF22120FDF7A9FE0221E5
:103068004DF22220FDF7A4FEA4214DF22320FDF706
:103078009FFE02214DF22420FDF79AFEB7214DF262
:103088002520FDF795FE02214DF22620FDF790FE42
:10309800CF214DF22720FDF78BFE02214DF228208B
:1030A800FDF786FEDE214DF22920FDF781FE022183
:1030B8004DF22A20FDF77CFEF2214DF22B20FDF780
:1030C80077FE02214DF22C20FDF772FEFE214DF213
:1030D8002D20FDF76DFE03214DF22E20FDF768FE31
:1030E80010214DF22F20FDF763FE03214DF2302011
:1030F800FDF75EFE33214DF23120FDF759FE032125
:103108004DF23220FDF754FE6D214DF23320FDF7CC
:103118004FFE00214FF45340FDF74AFE33214DF294
:103128000130FDF745FE00214DF20230FDF740FE6B
:1031380034214DF20330FDF73BFE00214DF20430FF
:10314800FDF736FE3A214DF20530FDF731FE00213C
:103158004DF20630FDF72CFE4A214DF20730FDF7FF
:1031680027FE00214DF20830FDF722FE5C214DF2CA
:103178000930FDF71DFE00214DF20A30FDF718FE5B
:1031880081214DF20B30FDF713FE00214DF20C307A
:10319800FDF70EFEA6214DF20D30FDF709FE0021C8
:1031A8004DF20E30FDF704FEE5214DF20F30FDF72C
:1031B800FFFD01214DF21030FDF7FAFD13214DF20C
:1031C8001130FDF7F5FD01214DF21230FDF7F0FD4C
:1031D80054214DF21330FDF7EBFD01214DF214306F
:1031E800FDF7E6FD82214DF21530FDF7E1FD0121E5
:1031F8004DF21630FDF7DCFDCA214DF21730FDF710
:10320800D7FD02214DF21830FDF7D2FD00214DF215
:103218001930FDF7CDFD02214DF21A30FDF7C8FD3A
:1032280001214DF21B30FDF7C3FD02214DF21C3088
:10323800FDF7BEFD34214DF21D30FDF7B9FD022129
:103248004DF21E30FDF7B4FD67214DF21F30FDF73A
:10325800AFFD02214DF22030FDF7AAFD84214DF289
:103268002130FDF7A5FD02214DF22230FDF7A0FD2A
:10327800A4214DF22330FDF79BFD02214DF22430AD
:10328800FDF796FDB7214DF22530FDF791FD02219E
:103298004DF22630FDF78CFDCF214DF22730FDF79A
:1032A80087FD02214DF22830FDF782FDDE214DF227
:1032B8002930FDF77DFD02214DF22A30FDF778FD1A
:1032C800F2214DF22B30FDF773FD02214DF22C3027
:1032D800FDF76EFDFE214DF22D30FDF769FD03214E
:1032E8004DF22E30FDF764FD10214DF22F30FDF721
:1032F8005FFD03214DF23030FDF75AFD33214DF2C9
:103308003130FDF755FD03214DF23230FDF750FD08
:103318006D214DF23330FDF74BFD00214FF4544041
:10332800FDF746FD33214DF20140FDF741FD002137
:103338004DF20240FDF73CFD34214DF20340FDF70C
:1033480037FD00214DF20440FDF732FD3A214DF2E0
:103358000540FDF72DFD00214DF20640FDF728FD43
:103368004A214DF20740FDF723FD00214DF20840A8
:10337800FDF71EFD5C214DF20940FDF719FD002106
:103388004DF20A40FDF714FD81214DF20B40FDF787
:103398000FFD00214DF20C40FDF70AFDA6214DF26C
:1033A8000D40FDF705FD00214DF20E40FDF700FD33
:1033B800E5214DF20F40FDF7FBFC01214DF21040D5
:1033C800FDF7F6FC13214DF21140FDF7F1FC012148
:1033D8004DF21240FDF7ECFC54214DF21340FDF77D
:1033E800E7FC01214DF21440FDF7E2FC82214DF289
:1033F8001540FDF7DDFC01214DF21640FDF7D8FC24
:10340800CA214DF21740FDF7D3FC02214DF21840B6
:10341800FDF7CEFC00214DF21940FDF7C9FC022151
:103428004DF21A40FDF7C4FC01214DF21B40FDF797
:10343800BFFC02214DF21C40FDF7BAFC34214DF2CD
:103448001D40FDF7B5FC02214DF21E40FDF7B0FC12
:1034580067214DF21F40FDF7ABFC02214DF22040E1
:10346800FDF7A6FC84214DF22140FDF7A1FC0221C5
:103478004DF22240FDF79CFCA4214DF22340FDF7BC
:1034880097FC02214DF22440FDF792FCB7214DF242
:103498002540FDF78DFC02214DF22640FDF788FC02
:1034A800CF214DF22740FDF783FC02214DF2284041
:1034B800FDF77EFCDE214DF22940FDF779FC022163
:1034C8004DF22A40FDF774FCF2214DF22B40FDF736
:1034D8006FFC02214DF22C40FDF76AFCFE214DF2F3
:1034E8002D40FDF765FC03214DF22E40FDF760FCF1
:1034F80010214DF22F40FDF75BFC03214DF23040C7
:10350800FDF756FC33214DF23140FDF751FC032104
:103518004DF23240FDF74CFC6D214DF23340FDF782
:1035280047FC00214FF45540FDF742FC33214DF292
:103538000150FDF73DFC00214DF20250FDF738FC2B
:1035480034214DF20350FDF733FC00214DF20450B5
:10355800FDF72EFC3A214DF20550FDF729FC00211C
:103568004DF20650FDF724FC4A214DF20750FDF7B5
:103578001FFC00214DF20850FDF71AFC5C214DF2AA
:103588000950FDF715FC00214DF20A50FDF710FC1B
:1035980081214DF20B50FDF70BFC00214DF20C5030
:1035A800FDF706FCA6214DF20D50FDF701FC0021A8
:1035B8004DF20E50FDF7FCFBE5214DF20F50FDF7E3
:1035C800F7FB01214DF21050FDF7F2FB13214DF2EC
:1035D8001150FDF7EDFB01214DF21250FDF7E8FB0C
:1035E80054214DF21350FDF7E3FB01214DF2145025
:1035F800FDF7DEFB82214DF21550FDF7D9FB0121C5
:103608004DF21650FDF7D4FBCA214DF21750FDF7C5
:10361800CFFB02214DF21850FDF7CAFB00214DF2F5
:103628001950FDF7C5FB02214DF21A50FDF7C0FBFA
:1036380001214DF21B50FDF7BBFB02214DF21C503E
:10364800FDF7B6FB34214DF21D50FDF7B1FB022109
:103658004DF21E50FDF7ACFB67214DF21F50FDF7F0
:10366800A7FB02214DF22050FDF7A2FB84214DF269
:103678002150FDF79DFB02214DF22250FDF798FBEA
:10368800A4214DF22350FDF793FB02214DF2245063
:10369800FDF78EFBB7214DF22550FDF789FB02217E
:1036A8004DF22650FDF784FBCF214DF22750FDF750
:1036B8007FFB02214DF22850FDF77AFBDE214DF207
:1036C8002950FDF775FB02214DF22A50FDF770FBDA
:1036D800F2214DF22B50FDF76BFB02214DF22C50DD
:1036E800FDF766FBFE214DF22D50FDF761FB03212E
:1036F8004DF22E50FDF75CFB10214DF22F50FDF7D7
:1037080057FB03214DF23050FDF752FB33214DF2A8
:103718003150FDF74DFB03214DF23250FDF748FBC8
:103728006D214DF23350FDF743FB00214FF4564015
:10373800FDF73EFB33214DF20160FDF739FB002117
:103748004DF20260FDF734FB34214DF20360FDF7C2
:103758002FFB00214DF20460FDF72AFB3A214DF2C0
:103768000560FDF725FB00214DF20660FDF720FB03
:103778004A214DF20760FDF71BFB00214DF208605E
:10378800FDF716FB5C214DF20960FDF711FB0021E6
:103798004DF20A60FDF70CFB81214DF20B60FDF73D
:1037A80007FB00214DF20C60FDF702FBA6214DF24C
:1037B8000D60FDF7FDFA00214DF20E60FDF7F8FAF5
:1037C800E5214DF20F60FDF7F3FA01214DF210608B
:1037D800FDF7EEFA13214DF21160FDF7E9FA012128
:1037E8004DF21260FDF7E4FA54214DF21360FDF733
:1037F800DFFA01214DF21460FDF7DAFA82214DF269
:103808001560FDF7D5FA01214DF21660FDF7D0FAE3
:10381800CA214DF21760FDF7CBFA02214DF218606C
:10382800FDF7C6FA00214DF21960FDF7C1FA022131
:103838004DF21A60FDF7BCFA01214DF21B60FDF74D
:10384800B7FA02214DF21C60FDF7B2FA34214DF2AD
:103858001D60FDF7ADFA02214DF21E60FDF7A8FAD2
:1038680067214DF21F60FDF7A3FA02214DF2206097
:10387800FDF79EFA84214DF22160FDF799FA0221A5
:103888004DF22260FDF794FAA4214DF22360FDF772
:103898008FFA02214DF22460FDF78AFAB7214DF222
:1038A8002560FDF785FA02214DF22660FDF780FAC2
:1038B800CF214DF22760FDF77BFA02214DF22860F7
:1038C800FDF776FADE214DF22960FDF771FA022143
:1038D8004DF22A60FDF76CFAF2214DF22B60FDF7EC
:1038E80067FA02214DF22C60FDF762FAFE214DF2D3
:1038F8002D60FDF75DFA03214DF22E60FDF758FAB1
:1039080010214DF22F60FDF753FA03214DF230607C
:10391800FDF74EFA33214DF23160FDF749FA0321E4
:103928004DF23260FDF744FA6D214DF23360FDF738
:103938003FFA55214FF47040FDF73AFAAA214FF2A9
:103948000100FDF735FA52214FF20200FDF730FA77
:1039580008214FF20300FDF72BFA00214FF2040073
:10396800FDF726FACC214FF43140FDF721FA00216A
:103978004BF20110FDF71CFA05214FF43640FDF714
:1039880017FA70214FF43740FDF712FA70214BF205
:103998000170FDF70DFA01214FF43840FDF708FAE0
:1039A80003214BF60100FDF703FA03214BF6020051
:1039B800FDF7FEF903214BF60300FDF7F9F90221A3
:1039C8004FF43C40FDF7F4F900214BF60140FDF7B8
:1039D800EFF900214BF60240FDF7EAF9D0214FF448
:1039E8004940FDF7E5F902214CF60110FDF7E0F931
:1039F80050214CF60210FDF7DBF950214CF603106C
:103A0800FDF7D6F950214CF60410FDF7D1F9002145
:103A18004FF45450FDF7CCF955214FF46850FDF799
:103A2800C7F94FF48850FDF78BF97820FDF73CF97A
:103A38004FF42450FDF784F9BEE0664B9B8841F6AD
:103A48006312934240F0B880E220FDF779F91D2017
:103A5800FDF78AF90220FDF787F90420FDF784F9BC
:103A68006420FDF721F9E020FDF76AF90120FDF750
:103A78007BF90A20FDF758F9E020FDF761F90320EA
:103A8800FDF772F90C20FDF74FF90120FDF758F901
:103A98000A20FDF749F9E620FDF752F92F20FDF736
:103AA80063F9FF20FDF760F9FF20FDF75DF9B0200D
:103AB800FDF746F92020FDF757F90020FDF754F9E6
:103AC8000320FDF751F940F21F30FDF74DF90120B1
:103AD800FDF74AF940F2DF10FDF746F90020FDF73F
:103AE80043F9B420FDF72CF90420FDF73DF940F225
:103AF8001F40FDF739F90020FDF736F92E20FDF7B4
:103B080033F90020FDF730F90020FDF72DF90020EA
:103B1800FDF72AF90020FDF727F9B620FDF710F97F
:103B28000220FDF721F94FF40370FDF71DF900207D
:103B3800FDF71AF91720FDF717F91520FDF714F905
:103B48000020FDF711F90020FDF70EF9F020FDF730
:103B5800F7F80320FDF708F92920FDF7F1F8D02040
:103B6800FDF7EEF80020FDF7FFF8BE20FDF7E8F8B6
:103B78000520FDF7F9F8FE20FDF7F6F80120FDF71E
:103B8800F3F80020FDF7F0F80020FDF7EDF800202D
:103B9800FDF7EAF8B820FDF7D3F80320FDF7E4F8BD
:103BA8000120FDF7E1F8BA20FDF7CAF80120FDF77A
:103BB800DBF86420FDF734FC0020FDF765FC064BBC
:103BC80001221A604FF6FF7000F008F800BF18379E
:103BD800BD4680BD040200208081214280B584B0AA
:103BE80000AF0346FB800023FB60114B1B88BB60C2
:103BF8000F4B5B881A46BB6802FB03F3BB600021CE
:103C08000020FDF7F9F8FDF7E9F80023FB6005E06F
:103C1800084AFB885380FB680133FB60FA68BB687D
:103C28009A42F5D300BF00BF1037BD4680BD00BF24
:103C380004020020FE07006C90B585B000AF044672
:103C4800084611461A462346FB800346BB800B46AE
:103C5800FB701346BB70BB887B81BB78DB08DBB28B
:103C68001A46BB7803F00703DBB2002B14BF01230D
:103C78000023DBB21344DBB2BA785208D2B202FB9B
:103C880003F37B72FB78203BFB7000237B736BE0B4
:103C9800BB780C2B0BD1FA78797B394813465B003B
:103CA80013449B0003440B441B78FB7319E0BB7857
:103CB800102B08D1FA787B7B324912010A4413444D
:103CC8001B78FB730DE0BB78182B52D1FA78797BFF
:103CD8002D481346DB0013449B0003440B441B7818
:103CE800FB730023BB7337E097F90F30002B08DA1A
:103CF800264B1B689AB2B988FB881846FDF7D0FA9C
:103D08000BE097F82030002B07D1214B1B689AB2A3
:103D1800B988FB881846FDF7C3FAFB7B5B00FB7389
:103D2800BB880133BB801B4B5B88BA889A4222D27E
:103D3800BA887B89D21ABB789A420AD17B89BB8020
:103D4800FB880133FB80134B1B88FA889A4207D300
:103D580012E0BB7B0133BB73BB7B072BC4D900E0EC
:103D680000BF7B7B01337B737A7B7B7A9A428FD34C
:103D780002E000BF00E000BF1437BD4690BD00BFA1
:103D880084B60008F8BA0008E8C00008000000205F
:103D9800040000200402002090B587B002AF04465A
:103DA800084611461A462346FB800346BB800B464D
:103DB8007B8013463B80FB88FB737A88FB8813441F
:103DC8007B803A88BB8813443B8024E0FA887B8850
:103DD8009A4207D3FB7BFB8097F820309AB2BB88C6
:103DE8001344BB80BA883B889A421DD27B6A1A78F2
:103DF80097F82030B988F88800240094FFF71CFF52
:103E080097F820305B08DBB29AB2FB881344FB803A
:103E18007B6A01337B627B6A1B787E2B05D87B6AC1
:103E28001B781F2BD2D800E000BF00BF1437BD4657
:103E380090BD80B483B000AF78607B681B889BB26C
:103E480018460C37BD4680BC704790B587B000AFA8
:103E5800F860B9601346FB800023FB820EE0FB8A02
:103E68005B00BA68D418F868FFF7E3FF03462380BD
:103E7800FB680233FB60FB8A0133FB82FA8AFB880A
:103E88009A42ECD300BF00BF1C37BD4690BDB0B509
:103E980086B000AFF860B9601346FB800023FB8250
:103EA80014E0FB8A5B00BA6813441B889BB20022AB
:103EB8001C46154622462B46F968012000F0E4FF0F
:103EC800FB680233FB60FB8A0133FB82FA8AFB88BA
:103ED8009A42E6D300BF00BF1837BD46B0BD000008
:103EE80080B58EB000AFF860B9601346FB80FB6800
:103EF800B3F1006FC0F0A180FB68B3F1205F80F0E0
:103F08009C8001F031F8FB6803F17843BB62BB6A1F
:103F1800DB0A7B63BB6AC3F30A035B087B867B8E81
:103F2800C3F580633B86FA883B8E9A4201D8FB88AA
:103F38003B867B6B03F58033DB024FF4806241499B
:103F48001846FFF782FF0023FB850CE07A8EFB8D75
:103F580013443C4A32F813304FF6FF72934207D1AC
:103F6800FB8D0133FB85FA8D3B8E9A42EED300E040
:103F780000BFFA8D3B8E9A4232D20023BB610123E7
:103F8800FB6101237B627B6B03F58033DB023B62C1
:103F980007F1140207F118031146184601F0CCF88E
:103FA8000023FB850DE0FB8D5B00BA681A44F98D90
:103FB8007B8E0B441188234A22F81310FB8D0133A2
:103FC800FB85FA8D3B8E9A42EDD37B6B03F58033EC
:103FD800DB024FF480621B491846FFF758FF05E0E3
:103FE8003B8E1A46B968F868FFF751FFFA883B8E8E
:103FF8009A421ED07B6B01337B6300237B863B8E0A
:104008005B00BA681344BB603B8E5B001A46FB68D2
:104018001344FB60FA883B8ED31AFB80FB88B3F508
:10402800806F03D94FF480633B8682E7FB883B8629
:104038007FE700BF00F0BEFF00E000BF3837BD4695
:1040480080BD00BF1402002080B58EB000AF07F11C
:104058001C0300221A605A609A60DA601A615A6179
:104068009A613B4600221A605A609A60DA601A61C7
:104078005A619A61304B4FF020421A602E4B2F4AFA
:104088005A602D4B06229A602B4B0022DA602A4B8D
:1040980000221A61284B10225A61274B00229A618C
:1040A800254B0022DA61244B00221A62224B00229F
:1040B8005A62214B4FF480529A621F4B0022DA62F7
:1040C8001D4B4FF480421A631B4B00225A631A4B54
:1040D80000229A630623FB610F233B621A237B624B
:1040E8000023BB621023FB6211233B6300237B6325
:1040F80003233B600F237B600623BB600023FB6028
:1041080010233B6111237B610023BB613A4607F111
:104118001C031946084801F08BFE0346002B01D00A
:1041280000F003FA064BDB69054A43F48063D36168
:1041380000BF3837BD4680BD140A0020040100A026
:104148000000014080B586B000AF07F108030022E7
:104158001A605A609A60DA601F4B1B68002B36D1D0
:104168001D4B01221A601D4B5B691C4A43F4807386
:1041780053611A4B5B6903F480737B607B6841F27F
:104188000103BB600223FB6003237B6107F1080383
:104198001946134801F078F84FF68073BB60022384
:1041A800FB6003237B6107F1080319460D4801F002
:1041B8006BF84CF23373BB600223FB6003237B6113
:1041C80007F108031946084801F05EF800E000BF4F
:1041D8001837BD4680BD00BF5C0A002000100240B1
:1041E80000200140001801400014014080B582B051
:1041F80000AF7860FFF7A6FF00BF0837BD4680BD57
:1042080080B58AB000AF07F1180300221A605A601F
:104218009A60DA60444B9B69434A43F040039361D8
:10422800414B9B6903F040037B617B693E4B9B6973
:104238003D4A43F0100393613B4B9B6903F0100325
:104248003B613B69384B9B69374A43F004039361F0
:10425800354B9B6903F00403FB60FB68324B9B6999
:10426800314A43F4807393612F4B9B6903F4807345
:10427800BB60BB682C4B9B692B4A43F020039361BE
:10428800294B9B6903F020037B607B68264B9B6965
:10429800254A43F008039361234B9B6903F0080305
:1042A8003B603B6800222021204801F098F9002259
:1042B80020211F4801F093F91823BB610023FB61FB
:1042C80001233B6207F118031946184800F0DCFF88
:1042D8002023BB610123FB6100233B6203237B6234
:1042E80007F118031946114800F0CEFF0123BB61FE
:1042F8000023FB6102233B6207F1180319460D48AE
:1043080000F0C2FF2023BB610123FB6100233B6255
:1043180003237B6207F118031946054800F0B4FF30
:1043280000BF2837BD4680BD00100240001801407C
:10433800000C014000080140B0B590B002AF002366
:104348007B634F4B07F114041D460FCD0FC42B6838
:10435800237000F0C3FA00F0ADF8FFF751FF00F04A
:1043680003FAFFF771FEFDF747F9464B4FF4784221
:104378001A60454B9B881A4607F12803434918469B
:1043880003F058FB424B0193182300931823D222C1
:1043980028211E20FFF700FD07F1280301931023B1
:1043A80000931023C82246211E20FFF7F5FC394B45
:1043B8000193102300931023C8225A211E20FFF7CF
:1043C800EBFC1021344801F0F3F80346002B1ED112
:1043D800324B0193102300931023C8226E211E2014
:1043E800FFF7DAFC07F11403092219462C48FFF7F6
:1043F80077FD2C4B0193102300931023C8226E21C4
:104408001E20FFF7C9FCC82000F0CAFA34E00821D2
:10441800214801F0CDF80346002B2DD1224B019302
:10442800102300931023C8226E211E20FFF7B4FC2E
:104438003B46092219461A48FFF707FD1B4B019313
:10444800102300931023C8226E211E20FFF7A4FC1E
:104458000C4B1F221A603B46019310230093102334
:10446800C82282211E20FFF797FC064B4FF47842A2
:104478001A60C82000F094FA0D4803F0BFFAA0E7CC
:1044880070B600080000002004020020D8B500081B
:10449800E4B50008F8B500080018014010B6000897
:1044A8000000070828B6000840B6000854B60008FF
:1044B80068B6000880B590B000AF07F1180328224D
:1044C8000021184602F024FC3B1D00221A605A60A5
:1044D8009A60DA601A610223BB610123BB62102370
:1044E800FB6200237B6307F11803184601F090F87C
:1044F8000346002B01D000F018F80F237B6000233F
:10450800BB600023FB6000233B6100237B613B1DF4
:104518000021184601F0FEFA0346002B01D000F0F6
:1045280004F800BF4037BD4680BD80B400AF72B606
:1045380000BFFEE780B483B000AF0E4B9B690D4A05
:1045480043F0010393610B4B9B6903F001037B600C
:104558007B68084BDB69074A43F08053D361054BFE
:10456800DB6903F080533B603B6800BF0C37BD46F6
:1045780080BC70470010024080B400AFFEE780B4F2
:1045880000AFFEE780B400AFFEE780B400AFFEE7FF
:1045980080B400AFFEE780B400AF00BFBD4680BC6A
:1045A800704780B400AF00BFBD4680BC704780B480
:1045B80000AF00BFBD4680BC704780B500AF00F0BB
:1045C800D3F900BF80BD000080B500AF024801F0FC
:1045D8004FFD00BF80BD00BF640A002080B400AF5B
:1045E80001231846BD4680BC704780B582B000AF35
:1045F8007860396002F062FB034616221A604FF0B9
:10460800FF3318460837BD4680BD80B582B000AF7D
:1046180078604FF0FF317868FFF7E7FFFEE780B575
:1046280086B000AFF860B9607A6000237B610AE069
:10463800AFF300800146BB685A1CBA60CAB21A7050
:104648007B6901337B617A697B689A42F0DB7B681E
:1046580018461837BD4680BD80B586B000AFF860F3
:10466800B9607A6000237B6109E0BB685A1CBA60B4
:104678001B78184600F0F6F87B6901337B617A698C
:104688007B689A42F1DB7B6818461837BD4680BDC7
:1046980080B483B000AF78604FF0FF3318460C3712
:1046A800BD4680BC704780B483B000AF7860396085
:1046B8003B684FF400525A60002318460C37BD4639
:1046C80080BC704780B483B000AF7860012318467F
:1046D8000C37BD4680BC704780B485B000AFF86029
:1046E800B9607A60002318461437BD4680BC70470D
:1046F80080B586B000AF7860144A154BD31A7B6139
:104708007B693B61134B1B68002B02D1114B124A8A
:104718001A60104B1A687B6813443A699A4207D2A8
:1047280002F0CCFA03460C221A604FF0FF3309E07E
:10473800084B1B68FB60074B1A687B681344054AE3
:104748001360FB6818461837BD4680BD000001207D
:1047580000040000600A0020E00A002080B400AFD6
:1047680000BFBD4680BC704780B500AF114B124AF0
:104778001A60104B4FF4E1325A600E4B00229A60D7
:104788000C4B0022DA600B4B00221A61094B0C22F9
:104798005A61084B00229A61064B0022DA610548EB
:1047A80001F093FB0346002B01D0FFF7BEFE00BFCC
:1047B80080BD00BF640A00200038014080B588B081
:1047C80000AF786007F1100300221A605A609A60FF
:1047D800DA607B681B68204A934239D11F4B9B697A
:1047E8001E4A43F4804393611C4B9B6903F4804346
:1047F800FB60FB68194B9B69184A43F004039361FB
:10480800164B9B6903F00403BB60BB684FF400734D
:104818003B6102237B610323FB6107F11003194607
:104828000F4800F031FD4FF480633B6100237B614A
:104838000023BB6107F110031946094800F024FD65
:1048480000220021252000F0A6F9252000F0BFF95C
:1048580000BF2037BD4680BD00380140001002402F
:104868000008014080B584B000AF78607B68DBB297
:10487800FB7307F10F0164230122044801F075FB63
:104888007B6818461037BD4680BD00BF640A00200B
:10489800FFF764FF0B480C490C4A002302E0D45888
:1048A800C4500433C4188C42F9D3094A094C002374
:1048B80001E013600432A242FBD302F005FAFFF7CD
:1048C8003BFD704700000020E801002024D30008C9
:1048D800E8010020E00A0020FEE7000080B500AFF4
:1048E800084B1B68074A43F010031360032000F0CD
:1048F80047F90F2000F008F8FFF71CFE00231846C0
:1049080080BD00BF0020024080B582B000AF786053
:10491800124B1A68124B1B7819464FF47A73B3FB83
:10492800F1F3B2FBF3F3184600F05FF90346002BEE
:1049380001D001230EE07B680F2B0AD8002279688A
:104948004FF0FF3000F027F9064A7B681360002318
:1049580000E0012318460837BD4680BD0800002046
:10496800100000200C00002080B400AF054B1B781D
:104978001A46054B1B681344034A136000BFBD4623
:1049880080BC704710000020AC0A002080B400AF43
:10499800024B1B681846BD4680BC7047AC0A002015
:1049A80080B584B000AF7860FFF7F0FFB8607B682F
:1049B800FB60FB68B3F1FF3F05D00A4B1B781A4632
:1049C800FB681344FB6000BFFFF7E0FF0246BB68CB
:1049D800D31AFA689A42F7D800BF00BF1037BD460D
:1049E80080BD00BF1000002080B485B000AF7860A3
:1049F8007B6803F00703FB600C4BDB68BB60BA689D
:104A08004FF6FF031340BB60FB681A02BB681343F1
:104A180043F0BF6343F40033BB60044ABB68D36010
:104A280000BF1437BD4680BC704700BF00ED00E0F2
:104A380080B400AF044BDB681B0A03F00703184679
:104A4800BD4680BC704700BF00ED00E080B483B075
:104A580000AF0346FB7197F90730002B0BDBFB799E
:104A680003F01F02064997F907305B09012000FA95
:104A780002F241F8232000BF0C37BD4680BC7047C6
:104A880000E100E080B483B000AF03463960FB71F9
:104A980097F90730002B0ADB3B68DAB20C4997F923
:104AA80007301201D2B20B4483F800230AE03B68B6
:104AB800DAB20849FB7903F00F03043B1201D2B2C2
:104AC8000B441A7600BF0C37BD4680BC704700BF48
:104AD80000E100E000ED00E080B489B000AFF860CC
:104AE800B9607A60FB6803F00703FB61FB69C3F1F7
:104AF8000703042B28BF0423BB61FB690433062B7F
:104B080002D9FB69033B00E000237B614FF0FF32D1
:104B1800BB6902FA03F3DA43BB681A407B699A401F
:104B28004FF0FF317B6901FA03F3D9437B680B40EF
:104B3800134318462437BD4680BC704780B582B001
:104B480000AF78607B68013BB3F1807F01D301231C
:104B58000FE00A4A7B68013B53600F214FF0FF309A
:104B6800FFF790FF054B00229A60044B07221A605A
:104B7800002318460837BD4680BD00BF10E000E09E
:104B880080B582B000AF78607868FFF72DFF00BF6E
:104B98000837BD4680BD80B586B000AF0346B96012
:104BA8007A60FB7300237B61FFF742FF78617A68C4
:104BB800B9687869FFF790FF024697F90F301146F8
:104BC8001846FFF75FFF00BF1837BD4680BD80B5A8
:104BD80082B000AF0346FB7197F907301846FFF71C
:104BE80035FF00BF0837BD4680BD80B582B000AF35
:104BF80078607868FFF7A2FF034618460837BD4675
:104C080080BD80B485B000AF78600023FB737B68FB
:104C180093F82130DBB2022B08D07B6804229A6318
:104C28007B68002283F82020012320E07B681B6832
:104C38001A687B681B6822F00E021A607B681B6882
:104C48001A687B681B6822F001021A607B681A6C7C
:104C58007B68DB6B012101FA02F25A607B68012252
:104C680083F821207B68002283F82020FB7B1846EC
:104C78001437BD4680BC704780B584B000AF7860FB
:104C88000023FB737B6893F82130DBB2022B05D03D
:104C98007B6804229A630123FB73D6E07B681B6858
:104CA8001A687B681B6822F00E021A607B681B6812
:104CB8001A687B681B6822F001021A607B681B680F
:104CC8001A46644B9A4258D97B681B68624A9342D9
:104CD8004FD07B681B68614A934248D07B681B6849
:104CE8005F4A934240D07B681B685E4A934238D043
:104CF8007B681B685C4A934230D07B681B685B4AC0
:104D0800934228D07B681B68524A934220D07B6824
:104D18001B68574A934219D07B681B68554A9342CF
:104D280012D07B681B68544A93420AD07B681B6880
:104D3800524A934202D14FF480531BE04FF4803320
:104D480018E04FF4807315E0102313E0012311E0FD
:104D58004FF080730EE04FF480130BE04FF4803374
:104D680008E04FF4805305E04FF4807302E010230D
:104D780000E00123424A536057E07B681B68364ACB
:104D880093424FD07B681B68344A934248D07B6873
:104D98001B68334A934240D07B681B68314A934270
:104DA80038D07B681B68304A934230D07B681B68D8
:104DB8002E4A934228D07B681B68264A934220D00B
:104DC8007B681B682A4A934219D07B681B68294A6A
:104DD800934212D07B681B68274A93420AD07B68AB
:104DE8001B68264A934202D14FF480531BE04FF4CC
:104DF800803318E04FF4807315E0102313E001238B
:104E080011E04FF080730EE04FF480130BE04FF485
:104E1800803308E04FF4805305E04FF4807302E0DC
:104E2800102300E00123174A53607B68012283F8AE
:104E380021207B68002283F820207B685B6B002B95
:104E480003D07B685B6B78689847FB7B1846103704
:104E5800BD4680BD80000240080002401C000240A0
:104E68003000024044000240580002406C000240FA
:104E7800080402401C04024030040240440402407A
:104E88000004024000000240F0B587B000AFF860AF
:104E9800B960C7E900230123FB750023BB75002314
:104EA8007B752F4B1B7E012B01D1022354E02C4B29
:104EB80001221A764CF2503000F0A8F80346FB7530
:104EC800FB7D002B44D1FB68012B02D101237B75AC
:104ED80007E0FB68022B02D102237B7501E0042363
:104EE8007B750023BB752DE0BB7D5A00BB6802EBC8
:104EF800030CBB7D1901D7E90023C1F12006A1F1FC
:104F0800200022FA01F403FA06F6344323FA00F0EB
:104F1800044323FA01F5A3B21946604600F05AF893
:104F28004CF2503000F072F80346FB750D4B1B69CC
:104F38000C4A23F001031361FB7D002B07D1BB7DD5
:104F48000133BB75BA7D7B7D9A42CDD300E000BFAB
:104F5800034B00221A76FB7D18461C37BD46F0BD70
:104F6800B00A00200020024080B483B000AF0023C4
:104F7800FB710D4B1B6903F08003002B0DD00A4B0E
:104F88000A4A5A60084B0A4A5A60074B1B6903F0E1
:104F98008003002B01D00123FB71FB7918460C37E5
:104FA800BD4680BC704700BF002002402301674512
:104FB800AB89EFCD80B400AF054B1B69044A43F0C1
:104FC8008003136100231846BD4680BC704700BFAC
:104FD8000020024080B483B000AF78600B467B802D
:104FE800084B0022DA61084B1B69074A43F00103AA
:104FF80013617B687A881A8000BF0C37BD4680BC75
:10500800704700BFB00A00200020024080B584B07D
:1050180000AF7860FFF7BAFCF86010E07B68B3F186
:10502800FF3F0CD07B68002B07D0FFF7AFFC024690
:10503800FB68D31A7A689A4201D2032325E0154BFC
:10504800DB6803F00103002BE8D1124BDB6803F0A7
:105058002003002B02D00F4B2022DA600D4BDB68B7
:1050680003F01003002B0BD10A4BDB6903F001039B
:10507800002B05D1074BDB6803F00403002B03D09A
:1050880000F00AF8012300E0002318461037BD4657
:1050980080BD00BF0020024080B483B000AF002371
:1050A8007B60234BDB6803F01003002B09D0214BF6
:1050B800DB6943F002031F4AD3617B6843F01003A6
:1050C8007B601B4BDB6803F00403002B09D0194BF2
:1050D800DB6943F00103174AD3617B6843F004039B
:1050E8007B60134BDB6903F00103002B0BD0114BE2
:1050F800DB6943F004030F4AD3610D4BDB690C4AAB
:1051080023F00103D3617B6840F20112934206D178
:10511800074BDB69064A23F00103D36102E0044A26
:105128007B68D36000BF0C37BD4680BC704700BFAA
:1051380000200240B00A002080B584B000AF78603B
:1051480039600123FB730023BB602F4B1B7E012BAF
:1051580001D1022353E02C4B01221A767B681B688D
:10516800022B16D14CF25030FFF750FF0346002BAC
:1051780041D1012000F04CF84CF25030FFF746FFC7
:105188000346FB73214B1B69204A23F00403136178
:1051980031E04CF25030FFF739FF0346002B2AD19B
:1051A8003B684FF0FF321A607B689B68BB6019E070
:1051B800B86800F049F84CF25030FFF727FF034673
:1051C800FB73124B1B69114A23F002031361FB7B2B
:1051D800002B03D03B68BA681A600CE0BB6803F583
:1051E8000063BB607B68DB68DA027B689B681344FA
:1051F800BA689A42DCD3044B00221A76FB7B184625
:105208001037BD4680BD00BFB00A00200020024014
:1052180080B483B000AF7860094B0022DA61094B93
:105228001B69084A43F004031361064B1B69054ACE
:1052380043F04003136100BF0C37BD4680BC704784
:10524800B00A00200020024080B483B000AF78602C
:105258000B4B0022DA610B4B1B690A4A43F002032D
:105268001361084A7B685361064B1B69054A43F082
:105278004003136100BF0C37BD4680BC704700BFB8
:10528800B00A00200020024080B48BB000AF7860E4
:10529800396000237B6200233B6279E101227B6A4B
:1052A80002FA03F3FB613B681B68FA691340BB61B0
:1052B800BA69FB699A4240F068813B685B68964A24
:1052C80093425ED0944A934275D8944A934258D0F8
:1052D800924A93426FD8924A934252D0904A93424C
:1052E80069D8904A93424CD08E4A934263D88E4AEA
:1052F800934246D08C4A93425DD8122B2AD8122B5F
:1053080059D801A252F823F08B53000865530008BE
:1053180077530008B9530008BF530008BF5300086B
:10532800BF530008BF530008BF530008BF5300080D
:10533800BF530008BF530008BF530008BF530008FD
:10534800BF530008BF530008BF5300086D5300083F
:1053580081530008754A934213D02CE03B68DB6800
:105368003B6229E03B68DB6804333B6224E03B682E
:10537800DB6808333B621FE03B68DB680C333B6249
:105388001AE03B689B68002B02D104233B6213E0C0
:105398003B689B68012B05D108233B627B68FA694F
:1053A8001A6109E008233B627B68FA695A6103E0E5
:1053B80000233B6200E000BFBB69FF2B01D87B687C
:1053C80001E07B6804337B61BB69FF2B02D87B6AF1
:1053D8009B0002E07B6A083B9B003B617B691A6883
:1053E8000F213B6901FA03F3DB431A40396A3B6931
:1053F80001FA03F31A437B691A603B685B6803F0A0
:105408008053002B00F0C180494B9B69484A43F008
:1054180001039361464B9B6903F00103BB60BB68C2
:10542800444A7B6A9B08023352F82330FB607B6A4C
:1054380003F003039B000F2202FA03F3DB43FA682D
:105448001340FB607B683C4A93421FD07B683B4A11
:10545800934219D07B683A4A934213D07B68394A01
:1054680093420DD07B68384A934207D07B68374A0D
:10547800934201D105230AE0062308E0042306E04D
:10548800032304E0022302E0012300E000237A6AF8
:1054980002F0030292009340FA681343FB60254927
:1054A8007B6A9B080233FA6841F823203B685B68F3
:1054B80003F48013002B06D0254B9A682449BB6956
:1054C80013438B6006E0224B9A68BB69DB43204993
:1054D80013408B603B685B6803F40013002B06D015
:1054E8001B4BDA681A49BB691343CB6006E0184BBB
:1054F800DA68BB69DB4316491340CB603B685B68DD
:1055080003F40033002B25D0114B5A681049BB69AE
:1055180013434B6025E000BF00003210000031103B
:1055280000002210000021100000121000001110CD
:10553800001002400000014000080140000C01403A
:10554800001001400014014000180140001C0140F7
:1055580000040140154B5A68BB69DB4313491340EB
:105568004B603B685B6803F48033002B06D00F4B1D
:105578001A680E49BB6913430B6006E00B4B1A68A7
:10558800BB69DB43094913400B607B6A01337B62CB
:105598003B681A687B6A22FA03F3002B7FF47EAE1D
:1055A80000BF00BF2C37BD4680BC704700040140D7
:1055B80080B485B000AF78600B467B807B689A68C2
:1055C8007B881340002B02D00123FB7301E00023EA
:1055D800FB73FB7B18461437BD4680BC704780B40C
:1055E80083B000AF78600B467B8013467B707B7876
:1055F800002B03D07A887B681A6103E07B881A0441
:105608007B681A6100BF0C37BD4680BC704700003C
:1056180080B586B000AF78607B68002B01D101238C
:1056280072E27B681B6803F00103002B00F087809F
:10563800924B5B6803F00C03042B0CD08F4B5B6818
:1056480003F00C03082B12D18C4B5B6803F48033F6
:10565800B3F5803F0BD1894B1B6803F40033002B53
:105668006CD07B685B68002B68D101234CE27B68B7
:105678005B68B3F5803F06D1804B1B687F4A43F4D3
:10568800803313602EE07B685B68002B0CD17B4B6A
:105698001B687A4A23F480331360784B1B68774A77
:1056A80023F4802313601DE07B685B68B3F5A02FAB
:1056B8000CD1724B1B68714A43F4802313606F4B03
:1056C8001B686E4A43F4803313600BE06B4B1B6816
:1056D8006A4A23F480331360684B1B68674A23F4D3
:1056E800802313607B685B68002B13D0FFF74EF9AB
:1056F800386108E0FFF74AF902463B69D31A642B80
:1057080001D9032300E25D4B1B6803F40033002B2F
:10571800F0D014E0FFF73AF9386108E0FFF736F9FE
:1057280002463B69D31A642B01D90323ECE1534B9E
:105738001B6803F40033002BF0D100E000BF7B6846
:105748001B6803F00203002B63D04C4B5B6803F02B
:105758000C03002B0BD0494B5B6803F00C03082BA0
:105768001CD1464B5B6803F48033002B16D1434BA6
:105778001B6803F00203002B05D07B681B69012B13
:1057880001D00123C0E13D4B1B6823F0F8027B6880
:105798005B69DB00394913430B603AE07B681B699E
:1057A800002B20D0364B01221A60FFF7EFF8386142
:1057B80008E0FFF7EBF802463B69D31A022B01D940
:1057C8000323A1E12D4B1B6803F00203002BF0D04B
:1057D8002A4B1B6823F0F8027B685B69DB002749CA
:1057E80013430B6015E0264B00221A60FFF7CEF832
:1057F800386108E0FFF7CAF802463B69D31A022B62
:1058080001D9032380E11D4B1B6803F00203002B21
:10581800F0D17B681B6803F00803002B3AD07B6843
:105828009B69002B19D0174B01221A60FFF7AEF8BD
:10583800386108E0FFF7AAF802463B69D31A022B41
:1058480001D9032360E10D4B5B6A03F00203002BCF
:10585800F0D0012000F0CEFA1CE00A4B00221A60BA
:10586800FFF794F838610FE0FFF790F802463B69BC
:10587800D31A022B08D9032346E100BF00100240C7
:105888000000424280044242924B5B6A03F00203EA
:10589800002BE9D17B681B6803F00403002B00F0A0
:1058A800A6800023FB758B4BDB6903F08053002B2C
:1058B8000DD1884BDB69874A43F08053D361854B10
:1058C800DB6903F08053BB60BB680123FB75824B27
:1058D8001B6803F48073002B18D17F4B1B687E4A2A
:1058E80043F480731360FFF751F8386108E0FFF75D
:1058F8004DF802463B69D31A642B01D9032303E10F
:10590800754B1B6803F48073002BF0D07B68DB6851
:10591800012B06D16F4B1B6A6E4A43F001031362D9
:105928002DE07B68DB68002B0CD16A4B1B6A694A47
:1059380023F001031362674B1B6A664A23F00403D2
:1059480013621CE07B68DB68052B0CD1614B1B6A7A
:10595800604A43F0040313625E4B1B6A5D4A43F0DE
:10596800010313620BE05B4B1B6A5A4A23F00103E5
:105978001362584B1B6A574A23F0040313627B686F
:10598800DB68002B15D0FFF701F838610AE0FEF755
:10599800FDFF02463B69D31A41F28832934201D98E
:1059A8000323B1E04B4B1B6A03F00203002BEED03C
:1059B80014E0FEF7EBFF38610AE0FEF7E7FF024666
:1059C8003B69D31A41F28832934201D903239BE001
:1059D800404B1B6A03F00203002BEED1FB7D012B29
:1059E80005D13C4BDB693B4A23F08053D3617B688C
:1059F800DB69002B00F08780364B5B6803F00C03F3
:105A0800082B61D07B68DB69022B46D1334B00221F
:105A18001A60FEF7BBFF386108E0FEF7B7FF0246E1
:105A28003B69D31A022B01D903236DE0294B1B686C
:105A380003F00073002BF0D17B681B6AB3F5803F3D
:105A480008D1244B5B6823F400327B689B682149AA
:105A580013434B601F4B5B6823F474127B68196A0D
:105A68007B685B6A0B431B4913434B601B4B01224A
:105A78001A60FEF78BFF386108E0FEF787FF0246E1
:105A88003B69D31A022B01D903233DE0114B1B6854
:105A980003F00073002BF0D035E0104B00221A60A1
:105AA800FEF774FF386108E0FEF770FF02463B69B5
:105AB800D31A022B01D9032326E0064B1B6803F0F7
:105AC8000073002BF0D11EE07B68DB69012B07D146
